
OTEM.elf:     file format elf32-littlearm

Sections:
Idx Name          Size      VMA       LMA       File off  Algn
  0 .isr_vector   00000138  08000000  08000000  00010000  2**0
                  CONTENTS, ALLOC, LOAD, READONLY, DATA
  1 .text         00009340  08000140  08000140  00010140  2**4
                  CONTENTS, ALLOC, LOAD, READONLY, CODE
  2 .rodata       000005ac  08009480  08009480  00019480  2**3
                  CONTENTS, ALLOC, LOAD, READONLY, DATA
  3 .ARM.extab    00000000  08009a2c  08009a2c  000201e0  2**0
                  CONTENTS
  4 .ARM          00000008  08009a2c  08009a2c  00019a2c  2**2
                  CONTENTS, ALLOC, LOAD, READONLY, DATA
  5 .preinit_array 00000000  08009a34  08009a34  000201e0  2**0
                  CONTENTS, ALLOC, LOAD, DATA
  6 .init_array   00000004  08009a34  08009a34  00019a34  2**2
                  CONTENTS, ALLOC, LOAD, DATA
  7 .fini_array   00000004  08009a38  08009a38  00019a38  2**2
                  CONTENTS, ALLOC, LOAD, DATA
  8 .data         000001e0  20000000  08009a3c  00020000  2**2
                  CONTENTS, ALLOC, LOAD, DATA
  9 .bss          00000120  200001e0  08009c1c  000201e0  2**2
                  ALLOC
 10 ._user_heap_stack 00000600  20000300  08009c1c  00020300  2**0
                  ALLOC
 11 .ARM.attributes 0000002a  00000000  00000000  000201e0  2**0
                  CONTENTS, READONLY
 12 .debug_info   00013a77  00000000  00000000  0002020a  2**0
                  CONTENTS, READONLY, DEBUGGING, OCTETS
 13 .debug_abbrev 000027fc  00000000  00000000  00033c81  2**0
                  CONTENTS, READONLY, DEBUGGING, OCTETS
 14 .debug_aranges 00001510  00000000  00000000  00036480  2**3
                  CONTENTS, READONLY, DEBUGGING, OCTETS
 15 .debug_ranges 00001428  00000000  00000000  00037990  2**3
                  CONTENTS, READONLY, DEBUGGING, OCTETS
 16 .debug_macro  0001b29e  00000000  00000000  00038db8  2**0
                  CONTENTS, READONLY, DEBUGGING, OCTETS
 17 .debug_line   00013d8e  00000000  00000000  00054056  2**0
                  CONTENTS, READONLY, DEBUGGING, OCTETS
 18 .debug_str    000aa336  00000000  00000000  00067de4  2**0
                  CONTENTS, READONLY, DEBUGGING, OCTETS
 19 .comment      00000050  00000000  00000000  0011211a  2**0
                  CONTENTS, READONLY
 20 .debug_frame  00006fa4  00000000  00000000  0011216c  2**2
                  CONTENTS, READONLY, DEBUGGING, OCTETS

Disassembly of section .text:

08000140 <__do_global_dtors_aux>:
 8000140:	b510      	push	{r4, lr}
 8000142:	4c05      	ldr	r4, [pc, #20]	; (8000158 <__do_global_dtors_aux+0x18>)
 8000144:	7823      	ldrb	r3, [r4, #0]
 8000146:	b933      	cbnz	r3, 8000156 <__do_global_dtors_aux+0x16>
 8000148:	4b04      	ldr	r3, [pc, #16]	; (800015c <__do_global_dtors_aux+0x1c>)
 800014a:	b113      	cbz	r3, 8000152 <__do_global_dtors_aux+0x12>
 800014c:	4804      	ldr	r0, [pc, #16]	; (8000160 <__do_global_dtors_aux+0x20>)
 800014e:	f3af 8000 	nop.w
 8000152:	2301      	movs	r3, #1
 8000154:	7023      	strb	r3, [r4, #0]
 8000156:	bd10      	pop	{r4, pc}
 8000158:	200001e0 	.word	0x200001e0
 800015c:	00000000 	.word	0x00000000
 8000160:	08009468 	.word	0x08009468

08000164 <frame_dummy>:
 8000164:	b508      	push	{r3, lr}
 8000166:	4b03      	ldr	r3, [pc, #12]	; (8000174 <frame_dummy+0x10>)
 8000168:	b11b      	cbz	r3, 8000172 <frame_dummy+0xe>
 800016a:	4903      	ldr	r1, [pc, #12]	; (8000178 <frame_dummy+0x14>)
 800016c:	4803      	ldr	r0, [pc, #12]	; (800017c <frame_dummy+0x18>)
 800016e:	f3af 8000 	nop.w
 8000172:	bd08      	pop	{r3, pc}
 8000174:	00000000 	.word	0x00000000
 8000178:	200001e4 	.word	0x200001e4
 800017c:	08009468 	.word	0x08009468

08000180 <strlen>:
 8000180:	4603      	mov	r3, r0
 8000182:	f813 2b01 	ldrb.w	r2, [r3], #1
 8000186:	2a00      	cmp	r2, #0
 8000188:	d1fb      	bne.n	8000182 <strlen+0x2>
 800018a:	1a18      	subs	r0, r3, r0
 800018c:	3801      	subs	r0, #1
 800018e:	4770      	bx	lr

08000190 <memchr>:
 8000190:	f001 01ff 	and.w	r1, r1, #255	; 0xff
 8000194:	2a10      	cmp	r2, #16
 8000196:	db2b      	blt.n	80001f0 <memchr+0x60>
 8000198:	f010 0f07 	tst.w	r0, #7
 800019c:	d008      	beq.n	80001b0 <memchr+0x20>
 800019e:	f810 3b01 	ldrb.w	r3, [r0], #1
 80001a2:	3a01      	subs	r2, #1
 80001a4:	428b      	cmp	r3, r1
 80001a6:	d02d      	beq.n	8000204 <memchr+0x74>
 80001a8:	f010 0f07 	tst.w	r0, #7
 80001ac:	b342      	cbz	r2, 8000200 <memchr+0x70>
 80001ae:	d1f6      	bne.n	800019e <memchr+0xe>
 80001b0:	b4f0      	push	{r4, r5, r6, r7}
 80001b2:	ea41 2101 	orr.w	r1, r1, r1, lsl #8
 80001b6:	ea41 4101 	orr.w	r1, r1, r1, lsl #16
 80001ba:	f022 0407 	bic.w	r4, r2, #7
 80001be:	f07f 0700 	mvns.w	r7, #0
 80001c2:	2300      	movs	r3, #0
 80001c4:	e8f0 5602 	ldrd	r5, r6, [r0], #8
 80001c8:	3c08      	subs	r4, #8
 80001ca:	ea85 0501 	eor.w	r5, r5, r1
 80001ce:	ea86 0601 	eor.w	r6, r6, r1
 80001d2:	fa85 f547 	uadd8	r5, r5, r7
 80001d6:	faa3 f587 	sel	r5, r3, r7
 80001da:	fa86 f647 	uadd8	r6, r6, r7
 80001de:	faa5 f687 	sel	r6, r5, r7
 80001e2:	b98e      	cbnz	r6, 8000208 <memchr+0x78>
 80001e4:	d1ee      	bne.n	80001c4 <memchr+0x34>
 80001e6:	bcf0      	pop	{r4, r5, r6, r7}
 80001e8:	f001 01ff 	and.w	r1, r1, #255	; 0xff
 80001ec:	f002 0207 	and.w	r2, r2, #7
 80001f0:	b132      	cbz	r2, 8000200 <memchr+0x70>
 80001f2:	f810 3b01 	ldrb.w	r3, [r0], #1
 80001f6:	3a01      	subs	r2, #1
 80001f8:	ea83 0301 	eor.w	r3, r3, r1
 80001fc:	b113      	cbz	r3, 8000204 <memchr+0x74>
 80001fe:	d1f8      	bne.n	80001f2 <memchr+0x62>
 8000200:	2000      	movs	r0, #0
 8000202:	4770      	bx	lr
 8000204:	3801      	subs	r0, #1
 8000206:	4770      	bx	lr
 8000208:	2d00      	cmp	r5, #0
 800020a:	bf06      	itte	eq
 800020c:	4635      	moveq	r5, r6
 800020e:	3803      	subeq	r0, #3
 8000210:	3807      	subne	r0, #7
 8000212:	f015 0f01 	tst.w	r5, #1
 8000216:	d107      	bne.n	8000228 <memchr+0x98>
 8000218:	3001      	adds	r0, #1
 800021a:	f415 7f80 	tst.w	r5, #256	; 0x100
 800021e:	bf02      	ittt	eq
 8000220:	3001      	addeq	r0, #1
 8000222:	f415 3fc0 	tsteq.w	r5, #98304	; 0x18000
 8000226:	3001      	addeq	r0, #1
 8000228:	bcf0      	pop	{r4, r5, r6, r7}
 800022a:	3801      	subs	r0, #1
 800022c:	4770      	bx	lr
 800022e:	bf00      	nop

08000230 <__aeabi_drsub>:
 8000230:	f081 4100 	eor.w	r1, r1, #2147483648	; 0x80000000
 8000234:	e002      	b.n	800023c <__adddf3>
 8000236:	bf00      	nop

08000238 <__aeabi_dsub>:
 8000238:	f083 4300 	eor.w	r3, r3, #2147483648	; 0x80000000

0800023c <__adddf3>:
 800023c:	b530      	push	{r4, r5, lr}
 800023e:	ea4f 0441 	mov.w	r4, r1, lsl #1
 8000242:	ea4f 0543 	mov.w	r5, r3, lsl #1
 8000246:	ea94 0f05 	teq	r4, r5
 800024a:	bf08      	it	eq
 800024c:	ea90 0f02 	teqeq	r0, r2
 8000250:	bf1f      	itttt	ne
 8000252:	ea54 0c00 	orrsne.w	ip, r4, r0
 8000256:	ea55 0c02 	orrsne.w	ip, r5, r2
 800025a:	ea7f 5c64 	mvnsne.w	ip, r4, asr #21
 800025e:	ea7f 5c65 	mvnsne.w	ip, r5, asr #21
 8000262:	f000 80e2 	beq.w	800042a <__adddf3+0x1ee>
 8000266:	ea4f 5454 	mov.w	r4, r4, lsr #21
 800026a:	ebd4 5555 	rsbs	r5, r4, r5, lsr #21
 800026e:	bfb8      	it	lt
 8000270:	426d      	neglt	r5, r5
 8000272:	dd0c      	ble.n	800028e <__adddf3+0x52>
 8000274:	442c      	add	r4, r5
 8000276:	ea80 0202 	eor.w	r2, r0, r2
 800027a:	ea81 0303 	eor.w	r3, r1, r3
 800027e:	ea82 0000 	eor.w	r0, r2, r0
 8000282:	ea83 0101 	eor.w	r1, r3, r1
 8000286:	ea80 0202 	eor.w	r2, r0, r2
 800028a:	ea81 0303 	eor.w	r3, r1, r3
 800028e:	2d36      	cmp	r5, #54	; 0x36
 8000290:	bf88      	it	hi
 8000292:	bd30      	pophi	{r4, r5, pc}
 8000294:	f011 4f00 	tst.w	r1, #2147483648	; 0x80000000
 8000298:	ea4f 3101 	mov.w	r1, r1, lsl #12
 800029c:	f44f 1c80 	mov.w	ip, #1048576	; 0x100000
 80002a0:	ea4c 3111 	orr.w	r1, ip, r1, lsr #12
 80002a4:	d002      	beq.n	80002ac <__adddf3+0x70>
 80002a6:	4240      	negs	r0, r0
 80002a8:	eb61 0141 	sbc.w	r1, r1, r1, lsl #1
 80002ac:	f013 4f00 	tst.w	r3, #2147483648	; 0x80000000
 80002b0:	ea4f 3303 	mov.w	r3, r3, lsl #12
 80002b4:	ea4c 3313 	orr.w	r3, ip, r3, lsr #12
 80002b8:	d002      	beq.n	80002c0 <__adddf3+0x84>
 80002ba:	4252      	negs	r2, r2
 80002bc:	eb63 0343 	sbc.w	r3, r3, r3, lsl #1
 80002c0:	ea94 0f05 	teq	r4, r5
 80002c4:	f000 80a7 	beq.w	8000416 <__adddf3+0x1da>
 80002c8:	f1a4 0401 	sub.w	r4, r4, #1
 80002cc:	f1d5 0e20 	rsbs	lr, r5, #32
 80002d0:	db0d      	blt.n	80002ee <__adddf3+0xb2>
 80002d2:	fa02 fc0e 	lsl.w	ip, r2, lr
 80002d6:	fa22 f205 	lsr.w	r2, r2, r5
 80002da:	1880      	adds	r0, r0, r2
 80002dc:	f141 0100 	adc.w	r1, r1, #0
 80002e0:	fa03 f20e 	lsl.w	r2, r3, lr
 80002e4:	1880      	adds	r0, r0, r2
 80002e6:	fa43 f305 	asr.w	r3, r3, r5
 80002ea:	4159      	adcs	r1, r3
 80002ec:	e00e      	b.n	800030c <__adddf3+0xd0>
 80002ee:	f1a5 0520 	sub.w	r5, r5, #32
 80002f2:	f10e 0e20 	add.w	lr, lr, #32
 80002f6:	2a01      	cmp	r2, #1
 80002f8:	fa03 fc0e 	lsl.w	ip, r3, lr
 80002fc:	bf28      	it	cs
 80002fe:	f04c 0c02 	orrcs.w	ip, ip, #2
 8000302:	fa43 f305 	asr.w	r3, r3, r5
 8000306:	18c0      	adds	r0, r0, r3
 8000308:	eb51 71e3 	adcs.w	r1, r1, r3, asr #31
 800030c:	f001 4500 	and.w	r5, r1, #2147483648	; 0x80000000
 8000310:	d507      	bpl.n	8000322 <__adddf3+0xe6>
 8000312:	f04f 0e00 	mov.w	lr, #0
 8000316:	f1dc 0c00 	rsbs	ip, ip, #0
 800031a:	eb7e 0000 	sbcs.w	r0, lr, r0
 800031e:	eb6e 0101 	sbc.w	r1, lr, r1
 8000322:	f5b1 1f80 	cmp.w	r1, #1048576	; 0x100000
 8000326:	d31b      	bcc.n	8000360 <__adddf3+0x124>
 8000328:	f5b1 1f00 	cmp.w	r1, #2097152	; 0x200000
 800032c:	d30c      	bcc.n	8000348 <__adddf3+0x10c>
 800032e:	0849      	lsrs	r1, r1, #1
 8000330:	ea5f 0030 	movs.w	r0, r0, rrx
 8000334:	ea4f 0c3c 	mov.w	ip, ip, rrx
 8000338:	f104 0401 	add.w	r4, r4, #1
 800033c:	ea4f 5244 	mov.w	r2, r4, lsl #21
 8000340:	f512 0f80 	cmn.w	r2, #4194304	; 0x400000
 8000344:	f080 809a 	bcs.w	800047c <__adddf3+0x240>
 8000348:	f1bc 4f00 	cmp.w	ip, #2147483648	; 0x80000000
 800034c:	bf08      	it	eq
 800034e:	ea5f 0c50 	movseq.w	ip, r0, lsr #1
 8000352:	f150 0000 	adcs.w	r0, r0, #0
 8000356:	eb41 5104 	adc.w	r1, r1, r4, lsl #20
 800035a:	ea41 0105 	orr.w	r1, r1, r5
 800035e:	bd30      	pop	{r4, r5, pc}
 8000360:	ea5f 0c4c 	movs.w	ip, ip, lsl #1
 8000364:	4140      	adcs	r0, r0
 8000366:	eb41 0101 	adc.w	r1, r1, r1
 800036a:	3c01      	subs	r4, #1
 800036c:	bf28      	it	cs
 800036e:	f5b1 1f80 	cmpcs.w	r1, #1048576	; 0x100000
 8000372:	d2e9      	bcs.n	8000348 <__adddf3+0x10c>
 8000374:	f091 0f00 	teq	r1, #0
 8000378:	bf04      	itt	eq
 800037a:	4601      	moveq	r1, r0
 800037c:	2000      	moveq	r0, #0
 800037e:	fab1 f381 	clz	r3, r1
 8000382:	bf08      	it	eq
 8000384:	3320      	addeq	r3, #32
 8000386:	f1a3 030b 	sub.w	r3, r3, #11
 800038a:	f1b3 0220 	subs.w	r2, r3, #32
 800038e:	da0c      	bge.n	80003aa <__adddf3+0x16e>
 8000390:	320c      	adds	r2, #12
 8000392:	dd08      	ble.n	80003a6 <__adddf3+0x16a>
 8000394:	f102 0c14 	add.w	ip, r2, #20
 8000398:	f1c2 020c 	rsb	r2, r2, #12
 800039c:	fa01 f00c 	lsl.w	r0, r1, ip
 80003a0:	fa21 f102 	lsr.w	r1, r1, r2
 80003a4:	e00c      	b.n	80003c0 <__adddf3+0x184>
 80003a6:	f102 0214 	add.w	r2, r2, #20
 80003aa:	bfd8      	it	le
 80003ac:	f1c2 0c20 	rsble	ip, r2, #32
 80003b0:	fa01 f102 	lsl.w	r1, r1, r2
 80003b4:	fa20 fc0c 	lsr.w	ip, r0, ip
 80003b8:	bfdc      	itt	le
 80003ba:	ea41 010c 	orrle.w	r1, r1, ip
 80003be:	4090      	lslle	r0, r2
 80003c0:	1ae4      	subs	r4, r4, r3
 80003c2:	bfa2      	ittt	ge
 80003c4:	eb01 5104 	addge.w	r1, r1, r4, lsl #20
 80003c8:	4329      	orrge	r1, r5
 80003ca:	bd30      	popge	{r4, r5, pc}
 80003cc:	ea6f 0404 	mvn.w	r4, r4
 80003d0:	3c1f      	subs	r4, #31
 80003d2:	da1c      	bge.n	800040e <__adddf3+0x1d2>
 80003d4:	340c      	adds	r4, #12
 80003d6:	dc0e      	bgt.n	80003f6 <__adddf3+0x1ba>
 80003d8:	f104 0414 	add.w	r4, r4, #20
 80003dc:	f1c4 0220 	rsb	r2, r4, #32
 80003e0:	fa20 f004 	lsr.w	r0, r0, r4
 80003e4:	fa01 f302 	lsl.w	r3, r1, r2
 80003e8:	ea40 0003 	orr.w	r0, r0, r3
 80003ec:	fa21 f304 	lsr.w	r3, r1, r4
 80003f0:	ea45 0103 	orr.w	r1, r5, r3
 80003f4:	bd30      	pop	{r4, r5, pc}
 80003f6:	f1c4 040c 	rsb	r4, r4, #12
 80003fa:	f1c4 0220 	rsb	r2, r4, #32
 80003fe:	fa20 f002 	lsr.w	r0, r0, r2
 8000402:	fa01 f304 	lsl.w	r3, r1, r4
 8000406:	ea40 0003 	orr.w	r0, r0, r3
 800040a:	4629      	mov	r1, r5
 800040c:	bd30      	pop	{r4, r5, pc}
 800040e:	fa21 f004 	lsr.w	r0, r1, r4
 8000412:	4629      	mov	r1, r5
 8000414:	bd30      	pop	{r4, r5, pc}
 8000416:	f094 0f00 	teq	r4, #0
 800041a:	f483 1380 	eor.w	r3, r3, #1048576	; 0x100000
 800041e:	bf06      	itte	eq
 8000420:	f481 1180 	eoreq.w	r1, r1, #1048576	; 0x100000
 8000424:	3401      	addeq	r4, #1
 8000426:	3d01      	subne	r5, #1
 8000428:	e74e      	b.n	80002c8 <__adddf3+0x8c>
 800042a:	ea7f 5c64 	mvns.w	ip, r4, asr #21
 800042e:	bf18      	it	ne
 8000430:	ea7f 5c65 	mvnsne.w	ip, r5, asr #21
 8000434:	d029      	beq.n	800048a <__adddf3+0x24e>
 8000436:	ea94 0f05 	teq	r4, r5
 800043a:	bf08      	it	eq
 800043c:	ea90 0f02 	teqeq	r0, r2
 8000440:	d005      	beq.n	800044e <__adddf3+0x212>
 8000442:	ea54 0c00 	orrs.w	ip, r4, r0
 8000446:	bf04      	itt	eq
 8000448:	4619      	moveq	r1, r3
 800044a:	4610      	moveq	r0, r2
 800044c:	bd30      	pop	{r4, r5, pc}
 800044e:	ea91 0f03 	teq	r1, r3
 8000452:	bf1e      	ittt	ne
 8000454:	2100      	movne	r1, #0
 8000456:	2000      	movne	r0, #0
 8000458:	bd30      	popne	{r4, r5, pc}
 800045a:	ea5f 5c54 	movs.w	ip, r4, lsr #21
 800045e:	d105      	bne.n	800046c <__adddf3+0x230>
 8000460:	0040      	lsls	r0, r0, #1
 8000462:	4149      	adcs	r1, r1
 8000464:	bf28      	it	cs
 8000466:	f041 4100 	orrcs.w	r1, r1, #2147483648	; 0x80000000
 800046a:	bd30      	pop	{r4, r5, pc}
 800046c:	f514 0480 	adds.w	r4, r4, #4194304	; 0x400000
 8000470:	bf3c      	itt	cc
 8000472:	f501 1180 	addcc.w	r1, r1, #1048576	; 0x100000
 8000476:	bd30      	popcc	{r4, r5, pc}
 8000478:	f001 4500 	and.w	r5, r1, #2147483648	; 0x80000000
 800047c:	f045 41fe 	orr.w	r1, r5, #2130706432	; 0x7f000000
 8000480:	f441 0170 	orr.w	r1, r1, #15728640	; 0xf00000
 8000484:	f04f 0000 	mov.w	r0, #0
 8000488:	bd30      	pop	{r4, r5, pc}
 800048a:	ea7f 5c64 	mvns.w	ip, r4, asr #21
 800048e:	bf1a      	itte	ne
 8000490:	4619      	movne	r1, r3
 8000492:	4610      	movne	r0, r2
 8000494:	ea7f 5c65 	mvnseq.w	ip, r5, asr #21
 8000498:	bf1c      	itt	ne
 800049a:	460b      	movne	r3, r1
 800049c:	4602      	movne	r2, r0
 800049e:	ea50 3401 	orrs.w	r4, r0, r1, lsl #12
 80004a2:	bf06      	itte	eq
 80004a4:	ea52 3503 	orrseq.w	r5, r2, r3, lsl #12
 80004a8:	ea91 0f03 	teqeq	r1, r3
 80004ac:	f441 2100 	orrne.w	r1, r1, #524288	; 0x80000
 80004b0:	bd30      	pop	{r4, r5, pc}
 80004b2:	bf00      	nop

080004b4 <__aeabi_ui2d>:
 80004b4:	f090 0f00 	teq	r0, #0
 80004b8:	bf04      	itt	eq
 80004ba:	2100      	moveq	r1, #0
 80004bc:	4770      	bxeq	lr
 80004be:	b530      	push	{r4, r5, lr}
 80004c0:	f44f 6480 	mov.w	r4, #1024	; 0x400
 80004c4:	f104 0432 	add.w	r4, r4, #50	; 0x32
 80004c8:	f04f 0500 	mov.w	r5, #0
 80004cc:	f04f 0100 	mov.w	r1, #0
 80004d0:	e750      	b.n	8000374 <__adddf3+0x138>
 80004d2:	bf00      	nop

080004d4 <__aeabi_i2d>:
 80004d4:	f090 0f00 	teq	r0, #0
 80004d8:	bf04      	itt	eq
 80004da:	2100      	moveq	r1, #0
 80004dc:	4770      	bxeq	lr
 80004de:	b530      	push	{r4, r5, lr}
 80004e0:	f44f 6480 	mov.w	r4, #1024	; 0x400
 80004e4:	f104 0432 	add.w	r4, r4, #50	; 0x32
 80004e8:	f010 4500 	ands.w	r5, r0, #2147483648	; 0x80000000
 80004ec:	bf48      	it	mi
 80004ee:	4240      	negmi	r0, r0
 80004f0:	f04f 0100 	mov.w	r1, #0
 80004f4:	e73e      	b.n	8000374 <__adddf3+0x138>
 80004f6:	bf00      	nop

080004f8 <__aeabi_f2d>:
 80004f8:	0042      	lsls	r2, r0, #1
 80004fa:	ea4f 01e2 	mov.w	r1, r2, asr #3
 80004fe:	ea4f 0131 	mov.w	r1, r1, rrx
 8000502:	ea4f 7002 	mov.w	r0, r2, lsl #28
 8000506:	bf1f      	itttt	ne
 8000508:	f012 437f 	andsne.w	r3, r2, #4278190080	; 0xff000000
 800050c:	f093 4f7f 	teqne	r3, #4278190080	; 0xff000000
 8000510:	f081 5160 	eorne.w	r1, r1, #939524096	; 0x38000000
 8000514:	4770      	bxne	lr
 8000516:	f032 427f 	bics.w	r2, r2, #4278190080	; 0xff000000
 800051a:	bf08      	it	eq
 800051c:	4770      	bxeq	lr
 800051e:	f093 4f7f 	teq	r3, #4278190080	; 0xff000000
 8000522:	bf04      	itt	eq
 8000524:	f441 2100 	orreq.w	r1, r1, #524288	; 0x80000
 8000528:	4770      	bxeq	lr
 800052a:	b530      	push	{r4, r5, lr}
 800052c:	f44f 7460 	mov.w	r4, #896	; 0x380
 8000530:	f001 4500 	and.w	r5, r1, #2147483648	; 0x80000000
 8000534:	f021 4100 	bic.w	r1, r1, #2147483648	; 0x80000000
 8000538:	e71c      	b.n	8000374 <__adddf3+0x138>
 800053a:	bf00      	nop

0800053c <__aeabi_ul2d>:
 800053c:	ea50 0201 	orrs.w	r2, r0, r1
 8000540:	bf08      	it	eq
 8000542:	4770      	bxeq	lr
 8000544:	b530      	push	{r4, r5, lr}
 8000546:	f04f 0500 	mov.w	r5, #0
 800054a:	e00a      	b.n	8000562 <__aeabi_l2d+0x16>

0800054c <__aeabi_l2d>:
 800054c:	ea50 0201 	orrs.w	r2, r0, r1
 8000550:	bf08      	it	eq
 8000552:	4770      	bxeq	lr
 8000554:	b530      	push	{r4, r5, lr}
 8000556:	f011 4500 	ands.w	r5, r1, #2147483648	; 0x80000000
 800055a:	d502      	bpl.n	8000562 <__aeabi_l2d+0x16>
 800055c:	4240      	negs	r0, r0
 800055e:	eb61 0141 	sbc.w	r1, r1, r1, lsl #1
 8000562:	f44f 6480 	mov.w	r4, #1024	; 0x400
 8000566:	f104 0432 	add.w	r4, r4, #50	; 0x32
 800056a:	ea5f 5c91 	movs.w	ip, r1, lsr #22
 800056e:	f43f aed8 	beq.w	8000322 <__adddf3+0xe6>
 8000572:	f04f 0203 	mov.w	r2, #3
 8000576:	ea5f 0cdc 	movs.w	ip, ip, lsr #3
 800057a:	bf18      	it	ne
 800057c:	3203      	addne	r2, #3
 800057e:	ea5f 0cdc 	movs.w	ip, ip, lsr #3
 8000582:	bf18      	it	ne
 8000584:	3203      	addne	r2, #3
 8000586:	eb02 02dc 	add.w	r2, r2, ip, lsr #3
 800058a:	f1c2 0320 	rsb	r3, r2, #32
 800058e:	fa00 fc03 	lsl.w	ip, r0, r3
 8000592:	fa20 f002 	lsr.w	r0, r0, r2
 8000596:	fa01 fe03 	lsl.w	lr, r1, r3
 800059a:	ea40 000e 	orr.w	r0, r0, lr
 800059e:	fa21 f102 	lsr.w	r1, r1, r2
 80005a2:	4414      	add	r4, r2
 80005a4:	e6bd      	b.n	8000322 <__adddf3+0xe6>
 80005a6:	bf00      	nop

080005a8 <__aeabi_dmul>:
 80005a8:	b570      	push	{r4, r5, r6, lr}
 80005aa:	f04f 0cff 	mov.w	ip, #255	; 0xff
 80005ae:	f44c 6ce0 	orr.w	ip, ip, #1792	; 0x700
 80005b2:	ea1c 5411 	ands.w	r4, ip, r1, lsr #20
 80005b6:	bf1d      	ittte	ne
 80005b8:	ea1c 5513 	andsne.w	r5, ip, r3, lsr #20
 80005bc:	ea94 0f0c 	teqne	r4, ip
 80005c0:	ea95 0f0c 	teqne	r5, ip
 80005c4:	f000 f8de 	bleq	8000784 <__aeabi_dmul+0x1dc>
 80005c8:	442c      	add	r4, r5
 80005ca:	ea81 0603 	eor.w	r6, r1, r3
 80005ce:	ea21 514c 	bic.w	r1, r1, ip, lsl #21
 80005d2:	ea23 534c 	bic.w	r3, r3, ip, lsl #21
 80005d6:	ea50 3501 	orrs.w	r5, r0, r1, lsl #12
 80005da:	bf18      	it	ne
 80005dc:	ea52 3503 	orrsne.w	r5, r2, r3, lsl #12
 80005e0:	f441 1180 	orr.w	r1, r1, #1048576	; 0x100000
 80005e4:	f443 1380 	orr.w	r3, r3, #1048576	; 0x100000
 80005e8:	d038      	beq.n	800065c <__aeabi_dmul+0xb4>
 80005ea:	fba0 ce02 	umull	ip, lr, r0, r2
 80005ee:	f04f 0500 	mov.w	r5, #0
 80005f2:	fbe1 e502 	umlal	lr, r5, r1, r2
 80005f6:	f006 4200 	and.w	r2, r6, #2147483648	; 0x80000000
 80005fa:	fbe0 e503 	umlal	lr, r5, r0, r3
 80005fe:	f04f 0600 	mov.w	r6, #0
 8000602:	fbe1 5603 	umlal	r5, r6, r1, r3
 8000606:	f09c 0f00 	teq	ip, #0
 800060a:	bf18      	it	ne
 800060c:	f04e 0e01 	orrne.w	lr, lr, #1
 8000610:	f1a4 04ff 	sub.w	r4, r4, #255	; 0xff
 8000614:	f5b6 7f00 	cmp.w	r6, #512	; 0x200
 8000618:	f564 7440 	sbc.w	r4, r4, #768	; 0x300
 800061c:	d204      	bcs.n	8000628 <__aeabi_dmul+0x80>
 800061e:	ea5f 0e4e 	movs.w	lr, lr, lsl #1
 8000622:	416d      	adcs	r5, r5
 8000624:	eb46 0606 	adc.w	r6, r6, r6
 8000628:	ea42 21c6 	orr.w	r1, r2, r6, lsl #11
 800062c:	ea41 5155 	orr.w	r1, r1, r5, lsr #21
 8000630:	ea4f 20c5 	mov.w	r0, r5, lsl #11
 8000634:	ea40 505e 	orr.w	r0, r0, lr, lsr #21
 8000638:	ea4f 2ece 	mov.w	lr, lr, lsl #11
 800063c:	f1b4 0cfd 	subs.w	ip, r4, #253	; 0xfd
 8000640:	bf88      	it	hi
 8000642:	f5bc 6fe0 	cmphi.w	ip, #1792	; 0x700
 8000646:	d81e      	bhi.n	8000686 <__aeabi_dmul+0xde>
 8000648:	f1be 4f00 	cmp.w	lr, #2147483648	; 0x80000000
 800064c:	bf08      	it	eq
 800064e:	ea5f 0e50 	movseq.w	lr, r0, lsr #1
 8000652:	f150 0000 	adcs.w	r0, r0, #0
 8000656:	eb41 5104 	adc.w	r1, r1, r4, lsl #20
 800065a:	bd70      	pop	{r4, r5, r6, pc}
 800065c:	f006 4600 	and.w	r6, r6, #2147483648	; 0x80000000
 8000660:	ea46 0101 	orr.w	r1, r6, r1
 8000664:	ea40 0002 	orr.w	r0, r0, r2
 8000668:	ea81 0103 	eor.w	r1, r1, r3
 800066c:	ebb4 045c 	subs.w	r4, r4, ip, lsr #1
 8000670:	bfc2      	ittt	gt
 8000672:	ebd4 050c 	rsbsgt	r5, r4, ip
 8000676:	ea41 5104 	orrgt.w	r1, r1, r4, lsl #20
 800067a:	bd70      	popgt	{r4, r5, r6, pc}
 800067c:	f441 1180 	orr.w	r1, r1, #1048576	; 0x100000
 8000680:	f04f 0e00 	mov.w	lr, #0
 8000684:	3c01      	subs	r4, #1
 8000686:	f300 80ab 	bgt.w	80007e0 <__aeabi_dmul+0x238>
 800068a:	f114 0f36 	cmn.w	r4, #54	; 0x36
 800068e:	bfde      	ittt	le
 8000690:	2000      	movle	r0, #0
 8000692:	f001 4100 	andle.w	r1, r1, #2147483648	; 0x80000000
 8000696:	bd70      	pople	{r4, r5, r6, pc}
 8000698:	f1c4 0400 	rsb	r4, r4, #0
 800069c:	3c20      	subs	r4, #32
 800069e:	da35      	bge.n	800070c <__aeabi_dmul+0x164>
 80006a0:	340c      	adds	r4, #12
 80006a2:	dc1b      	bgt.n	80006dc <__aeabi_dmul+0x134>
 80006a4:	f104 0414 	add.w	r4, r4, #20
 80006a8:	f1c4 0520 	rsb	r5, r4, #32
 80006ac:	fa00 f305 	lsl.w	r3, r0, r5
 80006b0:	fa20 f004 	lsr.w	r0, r0, r4
 80006b4:	fa01 f205 	lsl.w	r2, r1, r5
 80006b8:	ea40 0002 	orr.w	r0, r0, r2
 80006bc:	f001 4200 	and.w	r2, r1, #2147483648	; 0x80000000
 80006c0:	f021 4100 	bic.w	r1, r1, #2147483648	; 0x80000000
 80006c4:	eb10 70d3 	adds.w	r0, r0, r3, lsr #31
 80006c8:	fa21 f604 	lsr.w	r6, r1, r4
 80006cc:	eb42 0106 	adc.w	r1, r2, r6
 80006d0:	ea5e 0e43 	orrs.w	lr, lr, r3, lsl #1
 80006d4:	bf08      	it	eq
 80006d6:	ea20 70d3 	biceq.w	r0, r0, r3, lsr #31
 80006da:	bd70      	pop	{r4, r5, r6, pc}
 80006dc:	f1c4 040c 	rsb	r4, r4, #12
 80006e0:	f1c4 0520 	rsb	r5, r4, #32
 80006e4:	fa00 f304 	lsl.w	r3, r0, r4
 80006e8:	fa20 f005 	lsr.w	r0, r0, r5
 80006ec:	fa01 f204 	lsl.w	r2, r1, r4
 80006f0:	ea40 0002 	orr.w	r0, r0, r2
 80006f4:	f001 4100 	and.w	r1, r1, #2147483648	; 0x80000000
 80006f8:	eb10 70d3 	adds.w	r0, r0, r3, lsr #31
 80006fc:	f141 0100 	adc.w	r1, r1, #0
 8000700:	ea5e 0e43 	orrs.w	lr, lr, r3, lsl #1
 8000704:	bf08      	it	eq
 8000706:	ea20 70d3 	biceq.w	r0, r0, r3, lsr #31
 800070a:	bd70      	pop	{r4, r5, r6, pc}
 800070c:	f1c4 0520 	rsb	r5, r4, #32
 8000710:	fa00 f205 	lsl.w	r2, r0, r5
 8000714:	ea4e 0e02 	orr.w	lr, lr, r2
 8000718:	fa20 f304 	lsr.w	r3, r0, r4
 800071c:	fa01 f205 	lsl.w	r2, r1, r5
 8000720:	ea43 0302 	orr.w	r3, r3, r2
 8000724:	fa21 f004 	lsr.w	r0, r1, r4
 8000728:	f001 4100 	and.w	r1, r1, #2147483648	; 0x80000000
 800072c:	fa21 f204 	lsr.w	r2, r1, r4
 8000730:	ea20 0002 	bic.w	r0, r0, r2
 8000734:	eb00 70d3 	add.w	r0, r0, r3, lsr #31
 8000738:	ea5e 0e43 	orrs.w	lr, lr, r3, lsl #1
 800073c:	bf08      	it	eq
 800073e:	ea20 70d3 	biceq.w	r0, r0, r3, lsr #31
 8000742:	bd70      	pop	{r4, r5, r6, pc}
 8000744:	f094 0f00 	teq	r4, #0
 8000748:	d10f      	bne.n	800076a <__aeabi_dmul+0x1c2>
 800074a:	f001 4600 	and.w	r6, r1, #2147483648	; 0x80000000
 800074e:	0040      	lsls	r0, r0, #1
 8000750:	eb41 0101 	adc.w	r1, r1, r1
 8000754:	f411 1f80 	tst.w	r1, #1048576	; 0x100000
 8000758:	bf08      	it	eq
 800075a:	3c01      	subeq	r4, #1
 800075c:	d0f7      	beq.n	800074e <__aeabi_dmul+0x1a6>
 800075e:	ea41 0106 	orr.w	r1, r1, r6
 8000762:	f095 0f00 	teq	r5, #0
 8000766:	bf18      	it	ne
 8000768:	4770      	bxne	lr
 800076a:	f003 4600 	and.w	r6, r3, #2147483648	; 0x80000000
 800076e:	0052      	lsls	r2, r2, #1
 8000770:	eb43 0303 	adc.w	r3, r3, r3
 8000774:	f413 1f80 	tst.w	r3, #1048576	; 0x100000
 8000778:	bf08      	it	eq
 800077a:	3d01      	subeq	r5, #1
 800077c:	d0f7      	beq.n	800076e <__aeabi_dmul+0x1c6>
 800077e:	ea43 0306 	orr.w	r3, r3, r6
 8000782:	4770      	bx	lr
 8000784:	ea94 0f0c 	teq	r4, ip
 8000788:	ea0c 5513 	and.w	r5, ip, r3, lsr #20
 800078c:	bf18      	it	ne
 800078e:	ea95 0f0c 	teqne	r5, ip
 8000792:	d00c      	beq.n	80007ae <__aeabi_dmul+0x206>
 8000794:	ea50 0641 	orrs.w	r6, r0, r1, lsl #1
 8000798:	bf18      	it	ne
 800079a:	ea52 0643 	orrsne.w	r6, r2, r3, lsl #1
 800079e:	d1d1      	bne.n	8000744 <__aeabi_dmul+0x19c>
 80007a0:	ea81 0103 	eor.w	r1, r1, r3
 80007a4:	f001 4100 	and.w	r1, r1, #2147483648	; 0x80000000
 80007a8:	f04f 0000 	mov.w	r0, #0
 80007ac:	bd70      	pop	{r4, r5, r6, pc}
 80007ae:	ea50 0641 	orrs.w	r6, r0, r1, lsl #1
 80007b2:	bf06      	itte	eq
 80007b4:	4610      	moveq	r0, r2
 80007b6:	4619      	moveq	r1, r3
 80007b8:	ea52 0643 	orrsne.w	r6, r2, r3, lsl #1
 80007bc:	d019      	beq.n	80007f2 <__aeabi_dmul+0x24a>
 80007be:	ea94 0f0c 	teq	r4, ip
 80007c2:	d102      	bne.n	80007ca <__aeabi_dmul+0x222>
 80007c4:	ea50 3601 	orrs.w	r6, r0, r1, lsl #12
 80007c8:	d113      	bne.n	80007f2 <__aeabi_dmul+0x24a>
 80007ca:	ea95 0f0c 	teq	r5, ip
 80007ce:	d105      	bne.n	80007dc <__aeabi_dmul+0x234>
 80007d0:	ea52 3603 	orrs.w	r6, r2, r3, lsl #12
 80007d4:	bf1c      	itt	ne
 80007d6:	4610      	movne	r0, r2
 80007d8:	4619      	movne	r1, r3
 80007da:	d10a      	bne.n	80007f2 <__aeabi_dmul+0x24a>
 80007dc:	ea81 0103 	eor.w	r1, r1, r3
 80007e0:	f001 4100 	and.w	r1, r1, #2147483648	; 0x80000000
 80007e4:	f041 41fe 	orr.w	r1, r1, #2130706432	; 0x7f000000
 80007e8:	f441 0170 	orr.w	r1, r1, #15728640	; 0xf00000
 80007ec:	f04f 0000 	mov.w	r0, #0
 80007f0:	bd70      	pop	{r4, r5, r6, pc}
 80007f2:	f041 41fe 	orr.w	r1, r1, #2130706432	; 0x7f000000
 80007f6:	f441 0178 	orr.w	r1, r1, #16252928	; 0xf80000
 80007fa:	bd70      	pop	{r4, r5, r6, pc}

080007fc <__aeabi_ddiv>:
 80007fc:	b570      	push	{r4, r5, r6, lr}
 80007fe:	f04f 0cff 	mov.w	ip, #255	; 0xff
 8000802:	f44c 6ce0 	orr.w	ip, ip, #1792	; 0x700
 8000806:	ea1c 5411 	ands.w	r4, ip, r1, lsr #20
 800080a:	bf1d      	ittte	ne
 800080c:	ea1c 5513 	andsne.w	r5, ip, r3, lsr #20
 8000810:	ea94 0f0c 	teqne	r4, ip
 8000814:	ea95 0f0c 	teqne	r5, ip
 8000818:	f000 f8a7 	bleq	800096a <__aeabi_ddiv+0x16e>
 800081c:	eba4 0405 	sub.w	r4, r4, r5
 8000820:	ea81 0e03 	eor.w	lr, r1, r3
 8000824:	ea52 3503 	orrs.w	r5, r2, r3, lsl #12
 8000828:	ea4f 3101 	mov.w	r1, r1, lsl #12
 800082c:	f000 8088 	beq.w	8000940 <__aeabi_ddiv+0x144>
 8000830:	ea4f 3303 	mov.w	r3, r3, lsl #12
 8000834:	f04f 5580 	mov.w	r5, #268435456	; 0x10000000
 8000838:	ea45 1313 	orr.w	r3, r5, r3, lsr #4
 800083c:	ea43 6312 	orr.w	r3, r3, r2, lsr #24
 8000840:	ea4f 2202 	mov.w	r2, r2, lsl #8
 8000844:	ea45 1511 	orr.w	r5, r5, r1, lsr #4
 8000848:	ea45 6510 	orr.w	r5, r5, r0, lsr #24
 800084c:	ea4f 2600 	mov.w	r6, r0, lsl #8
 8000850:	f00e 4100 	and.w	r1, lr, #2147483648	; 0x80000000
 8000854:	429d      	cmp	r5, r3
 8000856:	bf08      	it	eq
 8000858:	4296      	cmpeq	r6, r2
 800085a:	f144 04fd 	adc.w	r4, r4, #253	; 0xfd
 800085e:	f504 7440 	add.w	r4, r4, #768	; 0x300
 8000862:	d202      	bcs.n	800086a <__aeabi_ddiv+0x6e>
 8000864:	085b      	lsrs	r3, r3, #1
 8000866:	ea4f 0232 	mov.w	r2, r2, rrx
 800086a:	1ab6      	subs	r6, r6, r2
 800086c:	eb65 0503 	sbc.w	r5, r5, r3
 8000870:	085b      	lsrs	r3, r3, #1
 8000872:	ea4f 0232 	mov.w	r2, r2, rrx
 8000876:	f44f 1080 	mov.w	r0, #1048576	; 0x100000
 800087a:	f44f 2c00 	mov.w	ip, #524288	; 0x80000
 800087e:	ebb6 0e02 	subs.w	lr, r6, r2
 8000882:	eb75 0e03 	sbcs.w	lr, r5, r3
 8000886:	bf22      	ittt	cs
 8000888:	1ab6      	subcs	r6, r6, r2
 800088a:	4675      	movcs	r5, lr
 800088c:	ea40 000c 	orrcs.w	r0, r0, ip
 8000890:	085b      	lsrs	r3, r3, #1
 8000892:	ea4f 0232 	mov.w	r2, r2, rrx
 8000896:	ebb6 0e02 	subs.w	lr, r6, r2
 800089a:	eb75 0e03 	sbcs.w	lr, r5, r3
 800089e:	bf22      	ittt	cs
 80008a0:	1ab6      	subcs	r6, r6, r2
 80008a2:	4675      	movcs	r5, lr
 80008a4:	ea40 005c 	orrcs.w	r0, r0, ip, lsr #1
 80008a8:	085b      	lsrs	r3, r3, #1
 80008aa:	ea4f 0232 	mov.w	r2, r2, rrx
 80008ae:	ebb6 0e02 	subs.w	lr, r6, r2
 80008b2:	eb75 0e03 	sbcs.w	lr, r5, r3
 80008b6:	bf22      	ittt	cs
 80008b8:	1ab6      	subcs	r6, r6, r2
 80008ba:	4675      	movcs	r5, lr
 80008bc:	ea40 009c 	orrcs.w	r0, r0, ip, lsr #2
 80008c0:	085b      	lsrs	r3, r3, #1
 80008c2:	ea4f 0232 	mov.w	r2, r2, rrx
 80008c6:	ebb6 0e02 	subs.w	lr, r6, r2
 80008ca:	eb75 0e03 	sbcs.w	lr, r5, r3
 80008ce:	bf22      	ittt	cs
 80008d0:	1ab6      	subcs	r6, r6, r2
 80008d2:	4675      	movcs	r5, lr
 80008d4:	ea40 00dc 	orrcs.w	r0, r0, ip, lsr #3
 80008d8:	ea55 0e06 	orrs.w	lr, r5, r6
 80008dc:	d018      	beq.n	8000910 <__aeabi_ddiv+0x114>
 80008de:	ea4f 1505 	mov.w	r5, r5, lsl #4
 80008e2:	ea45 7516 	orr.w	r5, r5, r6, lsr #28
 80008e6:	ea4f 1606 	mov.w	r6, r6, lsl #4
 80008ea:	ea4f 03c3 	mov.w	r3, r3, lsl #3
 80008ee:	ea43 7352 	orr.w	r3, r3, r2, lsr #29
 80008f2:	ea4f 02c2 	mov.w	r2, r2, lsl #3
 80008f6:	ea5f 1c1c 	movs.w	ip, ip, lsr #4
 80008fa:	d1c0      	bne.n	800087e <__aeabi_ddiv+0x82>
 80008fc:	f411 1f80 	tst.w	r1, #1048576	; 0x100000
 8000900:	d10b      	bne.n	800091a <__aeabi_ddiv+0x11e>
 8000902:	ea41 0100 	orr.w	r1, r1, r0
 8000906:	f04f 0000 	mov.w	r0, #0
 800090a:	f04f 4c00 	mov.w	ip, #2147483648	; 0x80000000
 800090e:	e7b6      	b.n	800087e <__aeabi_ddiv+0x82>
 8000910:	f411 1f80 	tst.w	r1, #1048576	; 0x100000
 8000914:	bf04      	itt	eq
 8000916:	4301      	orreq	r1, r0
 8000918:	2000      	moveq	r0, #0
 800091a:	f1b4 0cfd 	subs.w	ip, r4, #253	; 0xfd
 800091e:	bf88      	it	hi
 8000920:	f5bc 6fe0 	cmphi.w	ip, #1792	; 0x700
 8000924:	f63f aeaf 	bhi.w	8000686 <__aeabi_dmul+0xde>
 8000928:	ebb5 0c03 	subs.w	ip, r5, r3
 800092c:	bf04      	itt	eq
 800092e:	ebb6 0c02 	subseq.w	ip, r6, r2
 8000932:	ea5f 0c50 	movseq.w	ip, r0, lsr #1
 8000936:	f150 0000 	adcs.w	r0, r0, #0
 800093a:	eb41 5104 	adc.w	r1, r1, r4, lsl #20
 800093e:	bd70      	pop	{r4, r5, r6, pc}
 8000940:	f00e 4e00 	and.w	lr, lr, #2147483648	; 0x80000000
 8000944:	ea4e 3111 	orr.w	r1, lr, r1, lsr #12
 8000948:	eb14 045c 	adds.w	r4, r4, ip, lsr #1
 800094c:	bfc2      	ittt	gt
 800094e:	ebd4 050c 	rsbsgt	r5, r4, ip
 8000952:	ea41 5104 	orrgt.w	r1, r1, r4, lsl #20
 8000956:	bd70      	popgt	{r4, r5, r6, pc}
 8000958:	f441 1180 	orr.w	r1, r1, #1048576	; 0x100000
 800095c:	f04f 0e00 	mov.w	lr, #0
 8000960:	3c01      	subs	r4, #1
 8000962:	e690      	b.n	8000686 <__aeabi_dmul+0xde>
 8000964:	ea45 0e06 	orr.w	lr, r5, r6
 8000968:	e68d      	b.n	8000686 <__aeabi_dmul+0xde>
 800096a:	ea0c 5513 	and.w	r5, ip, r3, lsr #20
 800096e:	ea94 0f0c 	teq	r4, ip
 8000972:	bf08      	it	eq
 8000974:	ea95 0f0c 	teqeq	r5, ip
 8000978:	f43f af3b 	beq.w	80007f2 <__aeabi_dmul+0x24a>
 800097c:	ea94 0f0c 	teq	r4, ip
 8000980:	d10a      	bne.n	8000998 <__aeabi_ddiv+0x19c>
 8000982:	ea50 3401 	orrs.w	r4, r0, r1, lsl #12
 8000986:	f47f af34 	bne.w	80007f2 <__aeabi_dmul+0x24a>
 800098a:	ea95 0f0c 	teq	r5, ip
 800098e:	f47f af25 	bne.w	80007dc <__aeabi_dmul+0x234>
 8000992:	4610      	mov	r0, r2
 8000994:	4619      	mov	r1, r3
 8000996:	e72c      	b.n	80007f2 <__aeabi_dmul+0x24a>
 8000998:	ea95 0f0c 	teq	r5, ip
 800099c:	d106      	bne.n	80009ac <__aeabi_ddiv+0x1b0>
 800099e:	ea52 3503 	orrs.w	r5, r2, r3, lsl #12
 80009a2:	f43f aefd 	beq.w	80007a0 <__aeabi_dmul+0x1f8>
 80009a6:	4610      	mov	r0, r2
 80009a8:	4619      	mov	r1, r3
 80009aa:	e722      	b.n	80007f2 <__aeabi_dmul+0x24a>
 80009ac:	ea50 0641 	orrs.w	r6, r0, r1, lsl #1
 80009b0:	bf18      	it	ne
 80009b2:	ea52 0643 	orrsne.w	r6, r2, r3, lsl #1
 80009b6:	f47f aec5 	bne.w	8000744 <__aeabi_dmul+0x19c>
 80009ba:	ea50 0441 	orrs.w	r4, r0, r1, lsl #1
 80009be:	f47f af0d 	bne.w	80007dc <__aeabi_dmul+0x234>
 80009c2:	ea52 0543 	orrs.w	r5, r2, r3, lsl #1
 80009c6:	f47f aeeb 	bne.w	80007a0 <__aeabi_dmul+0x1f8>
 80009ca:	e712      	b.n	80007f2 <__aeabi_dmul+0x24a>

080009cc <__gedf2>:
 80009cc:	f04f 3cff 	mov.w	ip, #4294967295	; 0xffffffff
 80009d0:	e006      	b.n	80009e0 <__cmpdf2+0x4>
 80009d2:	bf00      	nop

080009d4 <__ledf2>:
 80009d4:	f04f 0c01 	mov.w	ip, #1
 80009d8:	e002      	b.n	80009e0 <__cmpdf2+0x4>
 80009da:	bf00      	nop

080009dc <__cmpdf2>:
 80009dc:	f04f 0c01 	mov.w	ip, #1
 80009e0:	f84d cd04 	str.w	ip, [sp, #-4]!
 80009e4:	ea4f 0c41 	mov.w	ip, r1, lsl #1
 80009e8:	ea7f 5c6c 	mvns.w	ip, ip, asr #21
 80009ec:	ea4f 0c43 	mov.w	ip, r3, lsl #1
 80009f0:	bf18      	it	ne
 80009f2:	ea7f 5c6c 	mvnsne.w	ip, ip, asr #21
 80009f6:	d01b      	beq.n	8000a30 <__cmpdf2+0x54>
 80009f8:	b001      	add	sp, #4
 80009fa:	ea50 0c41 	orrs.w	ip, r0, r1, lsl #1
 80009fe:	bf0c      	ite	eq
 8000a00:	ea52 0c43 	orrseq.w	ip, r2, r3, lsl #1
 8000a04:	ea91 0f03 	teqne	r1, r3
 8000a08:	bf02      	ittt	eq
 8000a0a:	ea90 0f02 	teqeq	r0, r2
 8000a0e:	2000      	moveq	r0, #0
 8000a10:	4770      	bxeq	lr
 8000a12:	f110 0f00 	cmn.w	r0, #0
 8000a16:	ea91 0f03 	teq	r1, r3
 8000a1a:	bf58      	it	pl
 8000a1c:	4299      	cmppl	r1, r3
 8000a1e:	bf08      	it	eq
 8000a20:	4290      	cmpeq	r0, r2
 8000a22:	bf2c      	ite	cs
 8000a24:	17d8      	asrcs	r0, r3, #31
 8000a26:	ea6f 70e3 	mvncc.w	r0, r3, asr #31
 8000a2a:	f040 0001 	orr.w	r0, r0, #1
 8000a2e:	4770      	bx	lr
 8000a30:	ea4f 0c41 	mov.w	ip, r1, lsl #1
 8000a34:	ea7f 5c6c 	mvns.w	ip, ip, asr #21
 8000a38:	d102      	bne.n	8000a40 <__cmpdf2+0x64>
 8000a3a:	ea50 3c01 	orrs.w	ip, r0, r1, lsl #12
 8000a3e:	d107      	bne.n	8000a50 <__cmpdf2+0x74>
 8000a40:	ea4f 0c43 	mov.w	ip, r3, lsl #1
 8000a44:	ea7f 5c6c 	mvns.w	ip, ip, asr #21
 8000a48:	d1d6      	bne.n	80009f8 <__cmpdf2+0x1c>
 8000a4a:	ea52 3c03 	orrs.w	ip, r2, r3, lsl #12
 8000a4e:	d0d3      	beq.n	80009f8 <__cmpdf2+0x1c>
 8000a50:	f85d 0b04 	ldr.w	r0, [sp], #4
 8000a54:	4770      	bx	lr
 8000a56:	bf00      	nop

08000a58 <__aeabi_cdrcmple>:
 8000a58:	4684      	mov	ip, r0
 8000a5a:	4610      	mov	r0, r2
 8000a5c:	4662      	mov	r2, ip
 8000a5e:	468c      	mov	ip, r1
 8000a60:	4619      	mov	r1, r3
 8000a62:	4663      	mov	r3, ip
 8000a64:	e000      	b.n	8000a68 <__aeabi_cdcmpeq>
 8000a66:	bf00      	nop

08000a68 <__aeabi_cdcmpeq>:
 8000a68:	b501      	push	{r0, lr}
 8000a6a:	f7ff ffb7 	bl	80009dc <__cmpdf2>
 8000a6e:	2800      	cmp	r0, #0
 8000a70:	bf48      	it	mi
 8000a72:	f110 0f00 	cmnmi.w	r0, #0
 8000a76:	bd01      	pop	{r0, pc}

08000a78 <__aeabi_dcmpeq>:
 8000a78:	f84d ed08 	str.w	lr, [sp, #-8]!
 8000a7c:	f7ff fff4 	bl	8000a68 <__aeabi_cdcmpeq>
 8000a80:	bf0c      	ite	eq
 8000a82:	2001      	moveq	r0, #1
 8000a84:	2000      	movne	r0, #0
 8000a86:	f85d fb08 	ldr.w	pc, [sp], #8
 8000a8a:	bf00      	nop

08000a8c <__aeabi_dcmplt>:
 8000a8c:	f84d ed08 	str.w	lr, [sp, #-8]!
 8000a90:	f7ff ffea 	bl	8000a68 <__aeabi_cdcmpeq>
 8000a94:	bf34      	ite	cc
 8000a96:	2001      	movcc	r0, #1
 8000a98:	2000      	movcs	r0, #0
 8000a9a:	f85d fb08 	ldr.w	pc, [sp], #8
 8000a9e:	bf00      	nop

08000aa0 <__aeabi_dcmple>:
 8000aa0:	f84d ed08 	str.w	lr, [sp, #-8]!
 8000aa4:	f7ff ffe0 	bl	8000a68 <__aeabi_cdcmpeq>
 8000aa8:	bf94      	ite	ls
 8000aaa:	2001      	movls	r0, #1
 8000aac:	2000      	movhi	r0, #0
 8000aae:	f85d fb08 	ldr.w	pc, [sp], #8
 8000ab2:	bf00      	nop

08000ab4 <__aeabi_dcmpge>:
 8000ab4:	f84d ed08 	str.w	lr, [sp, #-8]!
 8000ab8:	f7ff ffce 	bl	8000a58 <__aeabi_cdrcmple>
 8000abc:	bf94      	ite	ls
 8000abe:	2001      	movls	r0, #1
 8000ac0:	2000      	movhi	r0, #0
 8000ac2:	f85d fb08 	ldr.w	pc, [sp], #8
 8000ac6:	bf00      	nop

08000ac8 <__aeabi_dcmpgt>:
 8000ac8:	f84d ed08 	str.w	lr, [sp, #-8]!
 8000acc:	f7ff ffc4 	bl	8000a58 <__aeabi_cdrcmple>
 8000ad0:	bf34      	ite	cc
 8000ad2:	2001      	movcc	r0, #1
 8000ad4:	2000      	movcs	r0, #0
 8000ad6:	f85d fb08 	ldr.w	pc, [sp], #8
 8000ada:	bf00      	nop

08000adc <__aeabi_dcmpun>:
 8000adc:	ea4f 0c41 	mov.w	ip, r1, lsl #1
 8000ae0:	ea7f 5c6c 	mvns.w	ip, ip, asr #21
 8000ae4:	d102      	bne.n	8000aec <__aeabi_dcmpun+0x10>
 8000ae6:	ea50 3c01 	orrs.w	ip, r0, r1, lsl #12
 8000aea:	d10a      	bne.n	8000b02 <__aeabi_dcmpun+0x26>
 8000aec:	ea4f 0c43 	mov.w	ip, r3, lsl #1
 8000af0:	ea7f 5c6c 	mvns.w	ip, ip, asr #21
 8000af4:	d102      	bne.n	8000afc <__aeabi_dcmpun+0x20>
 8000af6:	ea52 3c03 	orrs.w	ip, r2, r3, lsl #12
 8000afa:	d102      	bne.n	8000b02 <__aeabi_dcmpun+0x26>
 8000afc:	f04f 0000 	mov.w	r0, #0
 8000b00:	4770      	bx	lr
 8000b02:	f04f 0001 	mov.w	r0, #1
 8000b06:	4770      	bx	lr

08000b08 <__aeabi_d2iz>:
 8000b08:	ea4f 0241 	mov.w	r2, r1, lsl #1
 8000b0c:	f512 1200 	adds.w	r2, r2, #2097152	; 0x200000
 8000b10:	d215      	bcs.n	8000b3e <__aeabi_d2iz+0x36>
 8000b12:	d511      	bpl.n	8000b38 <__aeabi_d2iz+0x30>
 8000b14:	f46f 7378 	mvn.w	r3, #992	; 0x3e0
 8000b18:	ebb3 5262 	subs.w	r2, r3, r2, asr #21
 8000b1c:	d912      	bls.n	8000b44 <__aeabi_d2iz+0x3c>
 8000b1e:	ea4f 23c1 	mov.w	r3, r1, lsl #11
 8000b22:	f043 4300 	orr.w	r3, r3, #2147483648	; 0x80000000
 8000b26:	ea43 5350 	orr.w	r3, r3, r0, lsr #21
 8000b2a:	f011 4f00 	tst.w	r1, #2147483648	; 0x80000000
 8000b2e:	fa23 f002 	lsr.w	r0, r3, r2
 8000b32:	bf18      	it	ne
 8000b34:	4240      	negne	r0, r0
 8000b36:	4770      	bx	lr
 8000b38:	f04f 0000 	mov.w	r0, #0
 8000b3c:	4770      	bx	lr
 8000b3e:	ea50 3001 	orrs.w	r0, r0, r1, lsl #12
 8000b42:	d105      	bne.n	8000b50 <__aeabi_d2iz+0x48>
 8000b44:	f011 4000 	ands.w	r0, r1, #2147483648	; 0x80000000
 8000b48:	bf08      	it	eq
 8000b4a:	f06f 4000 	mvneq.w	r0, #2147483648	; 0x80000000
 8000b4e:	4770      	bx	lr
 8000b50:	f04f 0000 	mov.w	r0, #0
 8000b54:	4770      	bx	lr
 8000b56:	bf00      	nop

08000b58 <__aeabi_d2uiz>:
 8000b58:	004a      	lsls	r2, r1, #1
 8000b5a:	d211      	bcs.n	8000b80 <__aeabi_d2uiz+0x28>
 8000b5c:	f512 1200 	adds.w	r2, r2, #2097152	; 0x200000
 8000b60:	d211      	bcs.n	8000b86 <__aeabi_d2uiz+0x2e>
 8000b62:	d50d      	bpl.n	8000b80 <__aeabi_d2uiz+0x28>
 8000b64:	f46f 7378 	mvn.w	r3, #992	; 0x3e0
 8000b68:	ebb3 5262 	subs.w	r2, r3, r2, asr #21
 8000b6c:	d40e      	bmi.n	8000b8c <__aeabi_d2uiz+0x34>
 8000b6e:	ea4f 23c1 	mov.w	r3, r1, lsl #11
 8000b72:	f043 4300 	orr.w	r3, r3, #2147483648	; 0x80000000
 8000b76:	ea43 5350 	orr.w	r3, r3, r0, lsr #21
 8000b7a:	fa23 f002 	lsr.w	r0, r3, r2
 8000b7e:	4770      	bx	lr
 8000b80:	f04f 0000 	mov.w	r0, #0
 8000b84:	4770      	bx	lr
 8000b86:	ea50 3001 	orrs.w	r0, r0, r1, lsl #12
 8000b8a:	d102      	bne.n	8000b92 <__aeabi_d2uiz+0x3a>
 8000b8c:	f04f 30ff 	mov.w	r0, #4294967295	; 0xffffffff
 8000b90:	4770      	bx	lr
 8000b92:	f04f 0000 	mov.w	r0, #0
 8000b96:	4770      	bx	lr

08000b98 <__aeabi_d2f>:
 8000b98:	ea4f 0241 	mov.w	r2, r1, lsl #1
 8000b9c:	f1b2 43e0 	subs.w	r3, r2, #1879048192	; 0x70000000
 8000ba0:	bf24      	itt	cs
 8000ba2:	f5b3 1c00 	subscs.w	ip, r3, #2097152	; 0x200000
 8000ba6:	f1dc 5cfe 	rsbscs	ip, ip, #532676608	; 0x1fc00000
 8000baa:	d90d      	bls.n	8000bc8 <__aeabi_d2f+0x30>
 8000bac:	f001 4c00 	and.w	ip, r1, #2147483648	; 0x80000000
 8000bb0:	ea4f 02c0 	mov.w	r2, r0, lsl #3
 8000bb4:	ea4c 7050 	orr.w	r0, ip, r0, lsr #29
 8000bb8:	f1b2 4f00 	cmp.w	r2, #2147483648	; 0x80000000
 8000bbc:	eb40 0083 	adc.w	r0, r0, r3, lsl #2
 8000bc0:	bf08      	it	eq
 8000bc2:	f020 0001 	biceq.w	r0, r0, #1
 8000bc6:	4770      	bx	lr
 8000bc8:	f011 4f80 	tst.w	r1, #1073741824	; 0x40000000
 8000bcc:	d121      	bne.n	8000c12 <__aeabi_d2f+0x7a>
 8000bce:	f113 7238 	adds.w	r2, r3, #48234496	; 0x2e00000
 8000bd2:	bfbc      	itt	lt
 8000bd4:	f001 4000 	andlt.w	r0, r1, #2147483648	; 0x80000000
 8000bd8:	4770      	bxlt	lr
 8000bda:	f441 1180 	orr.w	r1, r1, #1048576	; 0x100000
 8000bde:	ea4f 5252 	mov.w	r2, r2, lsr #21
 8000be2:	f1c2 0218 	rsb	r2, r2, #24
 8000be6:	f1c2 0c20 	rsb	ip, r2, #32
 8000bea:	fa10 f30c 	lsls.w	r3, r0, ip
 8000bee:	fa20 f002 	lsr.w	r0, r0, r2
 8000bf2:	bf18      	it	ne
 8000bf4:	f040 0001 	orrne.w	r0, r0, #1
 8000bf8:	ea4f 23c1 	mov.w	r3, r1, lsl #11
 8000bfc:	ea4f 23d3 	mov.w	r3, r3, lsr #11
 8000c00:	fa03 fc0c 	lsl.w	ip, r3, ip
 8000c04:	ea40 000c 	orr.w	r0, r0, ip
 8000c08:	fa23 f302 	lsr.w	r3, r3, r2
 8000c0c:	ea4f 0343 	mov.w	r3, r3, lsl #1
 8000c10:	e7cc      	b.n	8000bac <__aeabi_d2f+0x14>
 8000c12:	ea7f 5362 	mvns.w	r3, r2, asr #21
 8000c16:	d107      	bne.n	8000c28 <__aeabi_d2f+0x90>
 8000c18:	ea50 3301 	orrs.w	r3, r0, r1, lsl #12
 8000c1c:	bf1e      	ittt	ne
 8000c1e:	f04f 40fe 	movne.w	r0, #2130706432	; 0x7f000000
 8000c22:	f440 0040 	orrne.w	r0, r0, #12582912	; 0xc00000
 8000c26:	4770      	bxne	lr
 8000c28:	f001 4000 	and.w	r0, r1, #2147483648	; 0x80000000
 8000c2c:	f040 40fe 	orr.w	r0, r0, #2130706432	; 0x7f000000
 8000c30:	f440 0000 	orr.w	r0, r0, #8388608	; 0x800000
 8000c34:	4770      	bx	lr
 8000c36:	bf00      	nop

08000c38 <__aeabi_frsub>:
 8000c38:	f080 4000 	eor.w	r0, r0, #2147483648	; 0x80000000
 8000c3c:	e002      	b.n	8000c44 <__addsf3>
 8000c3e:	bf00      	nop

08000c40 <__aeabi_fsub>:
 8000c40:	f081 4100 	eor.w	r1, r1, #2147483648	; 0x80000000

08000c44 <__addsf3>:
 8000c44:	0042      	lsls	r2, r0, #1
 8000c46:	bf1f      	itttt	ne
 8000c48:	ea5f 0341 	movsne.w	r3, r1, lsl #1
 8000c4c:	ea92 0f03 	teqne	r2, r3
 8000c50:	ea7f 6c22 	mvnsne.w	ip, r2, asr #24
 8000c54:	ea7f 6c23 	mvnsne.w	ip, r3, asr #24
 8000c58:	d06a      	beq.n	8000d30 <__addsf3+0xec>
 8000c5a:	ea4f 6212 	mov.w	r2, r2, lsr #24
 8000c5e:	ebd2 6313 	rsbs	r3, r2, r3, lsr #24
 8000c62:	bfc1      	itttt	gt
 8000c64:	18d2      	addgt	r2, r2, r3
 8000c66:	4041      	eorgt	r1, r0
 8000c68:	4048      	eorgt	r0, r1
 8000c6a:	4041      	eorgt	r1, r0
 8000c6c:	bfb8      	it	lt
 8000c6e:	425b      	neglt	r3, r3
 8000c70:	2b19      	cmp	r3, #25
 8000c72:	bf88      	it	hi
 8000c74:	4770      	bxhi	lr
 8000c76:	f010 4f00 	tst.w	r0, #2147483648	; 0x80000000
 8000c7a:	f440 0000 	orr.w	r0, r0, #8388608	; 0x800000
 8000c7e:	f020 407f 	bic.w	r0, r0, #4278190080	; 0xff000000
 8000c82:	bf18      	it	ne
 8000c84:	4240      	negne	r0, r0
 8000c86:	f011 4f00 	tst.w	r1, #2147483648	; 0x80000000
 8000c8a:	f441 0100 	orr.w	r1, r1, #8388608	; 0x800000
 8000c8e:	f021 417f 	bic.w	r1, r1, #4278190080	; 0xff000000
 8000c92:	bf18      	it	ne
 8000c94:	4249      	negne	r1, r1
 8000c96:	ea92 0f03 	teq	r2, r3
 8000c9a:	d03f      	beq.n	8000d1c <__addsf3+0xd8>
 8000c9c:	f1a2 0201 	sub.w	r2, r2, #1
 8000ca0:	fa41 fc03 	asr.w	ip, r1, r3
 8000ca4:	eb10 000c 	adds.w	r0, r0, ip
 8000ca8:	f1c3 0320 	rsb	r3, r3, #32
 8000cac:	fa01 f103 	lsl.w	r1, r1, r3
 8000cb0:	f000 4300 	and.w	r3, r0, #2147483648	; 0x80000000
 8000cb4:	d502      	bpl.n	8000cbc <__addsf3+0x78>
 8000cb6:	4249      	negs	r1, r1
 8000cb8:	eb60 0040 	sbc.w	r0, r0, r0, lsl #1
 8000cbc:	f5b0 0f00 	cmp.w	r0, #8388608	; 0x800000
 8000cc0:	d313      	bcc.n	8000cea <__addsf3+0xa6>
 8000cc2:	f1b0 7f80 	cmp.w	r0, #16777216	; 0x1000000
 8000cc6:	d306      	bcc.n	8000cd6 <__addsf3+0x92>
 8000cc8:	0840      	lsrs	r0, r0, #1
 8000cca:	ea4f 0131 	mov.w	r1, r1, rrx
 8000cce:	f102 0201 	add.w	r2, r2, #1
 8000cd2:	2afe      	cmp	r2, #254	; 0xfe
 8000cd4:	d251      	bcs.n	8000d7a <__addsf3+0x136>
 8000cd6:	f1b1 4f00 	cmp.w	r1, #2147483648	; 0x80000000
 8000cda:	eb40 50c2 	adc.w	r0, r0, r2, lsl #23
 8000cde:	bf08      	it	eq
 8000ce0:	f020 0001 	biceq.w	r0, r0, #1
 8000ce4:	ea40 0003 	orr.w	r0, r0, r3
 8000ce8:	4770      	bx	lr
 8000cea:	0049      	lsls	r1, r1, #1
 8000cec:	eb40 0000 	adc.w	r0, r0, r0
 8000cf0:	3a01      	subs	r2, #1
 8000cf2:	bf28      	it	cs
 8000cf4:	f5b0 0f00 	cmpcs.w	r0, #8388608	; 0x800000
 8000cf8:	d2ed      	bcs.n	8000cd6 <__addsf3+0x92>
 8000cfa:	fab0 fc80 	clz	ip, r0
 8000cfe:	f1ac 0c08 	sub.w	ip, ip, #8
 8000d02:	ebb2 020c 	subs.w	r2, r2, ip
 8000d06:	fa00 f00c 	lsl.w	r0, r0, ip
 8000d0a:	bfaa      	itet	ge
 8000d0c:	eb00 50c2 	addge.w	r0, r0, r2, lsl #23
 8000d10:	4252      	neglt	r2, r2
 8000d12:	4318      	orrge	r0, r3
 8000d14:	bfbc      	itt	lt
 8000d16:	40d0      	lsrlt	r0, r2
 8000d18:	4318      	orrlt	r0, r3
 8000d1a:	4770      	bx	lr
 8000d1c:	f092 0f00 	teq	r2, #0
 8000d20:	f481 0100 	eor.w	r1, r1, #8388608	; 0x800000
 8000d24:	bf06      	itte	eq
 8000d26:	f480 0000 	eoreq.w	r0, r0, #8388608	; 0x800000
 8000d2a:	3201      	addeq	r2, #1
 8000d2c:	3b01      	subne	r3, #1
 8000d2e:	e7b5      	b.n	8000c9c <__addsf3+0x58>
 8000d30:	ea4f 0341 	mov.w	r3, r1, lsl #1
 8000d34:	ea7f 6c22 	mvns.w	ip, r2, asr #24
 8000d38:	bf18      	it	ne
 8000d3a:	ea7f 6c23 	mvnsne.w	ip, r3, asr #24
 8000d3e:	d021      	beq.n	8000d84 <__addsf3+0x140>
 8000d40:	ea92 0f03 	teq	r2, r3
 8000d44:	d004      	beq.n	8000d50 <__addsf3+0x10c>
 8000d46:	f092 0f00 	teq	r2, #0
 8000d4a:	bf08      	it	eq
 8000d4c:	4608      	moveq	r0, r1
 8000d4e:	4770      	bx	lr
 8000d50:	ea90 0f01 	teq	r0, r1
 8000d54:	bf1c      	itt	ne
 8000d56:	2000      	movne	r0, #0
 8000d58:	4770      	bxne	lr
 8000d5a:	f012 4f7f 	tst.w	r2, #4278190080	; 0xff000000
 8000d5e:	d104      	bne.n	8000d6a <__addsf3+0x126>
 8000d60:	0040      	lsls	r0, r0, #1
 8000d62:	bf28      	it	cs
 8000d64:	f040 4000 	orrcs.w	r0, r0, #2147483648	; 0x80000000
 8000d68:	4770      	bx	lr
 8000d6a:	f112 7200 	adds.w	r2, r2, #33554432	; 0x2000000
 8000d6e:	bf3c      	itt	cc
 8000d70:	f500 0000 	addcc.w	r0, r0, #8388608	; 0x800000
 8000d74:	4770      	bxcc	lr
 8000d76:	f000 4300 	and.w	r3, r0, #2147483648	; 0x80000000
 8000d7a:	f043 40fe 	orr.w	r0, r3, #2130706432	; 0x7f000000
 8000d7e:	f440 0000 	orr.w	r0, r0, #8388608	; 0x800000
 8000d82:	4770      	bx	lr
 8000d84:	ea7f 6222 	mvns.w	r2, r2, asr #24
 8000d88:	bf16      	itet	ne
 8000d8a:	4608      	movne	r0, r1
 8000d8c:	ea7f 6323 	mvnseq.w	r3, r3, asr #24
 8000d90:	4601      	movne	r1, r0
 8000d92:	0242      	lsls	r2, r0, #9
 8000d94:	bf06      	itte	eq
 8000d96:	ea5f 2341 	movseq.w	r3, r1, lsl #9
 8000d9a:	ea90 0f01 	teqeq	r0, r1
 8000d9e:	f440 0080 	orrne.w	r0, r0, #4194304	; 0x400000
 8000da2:	4770      	bx	lr

08000da4 <__aeabi_ui2f>:
 8000da4:	f04f 0300 	mov.w	r3, #0
 8000da8:	e004      	b.n	8000db4 <__aeabi_i2f+0x8>
 8000daa:	bf00      	nop

08000dac <__aeabi_i2f>:
 8000dac:	f010 4300 	ands.w	r3, r0, #2147483648	; 0x80000000
 8000db0:	bf48      	it	mi
 8000db2:	4240      	negmi	r0, r0
 8000db4:	ea5f 0c00 	movs.w	ip, r0
 8000db8:	bf08      	it	eq
 8000dba:	4770      	bxeq	lr
 8000dbc:	f043 4396 	orr.w	r3, r3, #1258291200	; 0x4b000000
 8000dc0:	4601      	mov	r1, r0
 8000dc2:	f04f 0000 	mov.w	r0, #0
 8000dc6:	e01c      	b.n	8000e02 <__aeabi_l2f+0x2a>

08000dc8 <__aeabi_ul2f>:
 8000dc8:	ea50 0201 	orrs.w	r2, r0, r1
 8000dcc:	bf08      	it	eq
 8000dce:	4770      	bxeq	lr
 8000dd0:	f04f 0300 	mov.w	r3, #0
 8000dd4:	e00a      	b.n	8000dec <__aeabi_l2f+0x14>
 8000dd6:	bf00      	nop

08000dd8 <__aeabi_l2f>:
 8000dd8:	ea50 0201 	orrs.w	r2, r0, r1
 8000ddc:	bf08      	it	eq
 8000dde:	4770      	bxeq	lr
 8000de0:	f011 4300 	ands.w	r3, r1, #2147483648	; 0x80000000
 8000de4:	d502      	bpl.n	8000dec <__aeabi_l2f+0x14>
 8000de6:	4240      	negs	r0, r0
 8000de8:	eb61 0141 	sbc.w	r1, r1, r1, lsl #1
 8000dec:	ea5f 0c01 	movs.w	ip, r1
 8000df0:	bf02      	ittt	eq
 8000df2:	4684      	moveq	ip, r0
 8000df4:	4601      	moveq	r1, r0
 8000df6:	2000      	moveq	r0, #0
 8000df8:	f043 43b6 	orr.w	r3, r3, #1526726656	; 0x5b000000
 8000dfc:	bf08      	it	eq
 8000dfe:	f1a3 5380 	subeq.w	r3, r3, #268435456	; 0x10000000
 8000e02:	f5a3 0300 	sub.w	r3, r3, #8388608	; 0x800000
 8000e06:	fabc f28c 	clz	r2, ip
 8000e0a:	3a08      	subs	r2, #8
 8000e0c:	eba3 53c2 	sub.w	r3, r3, r2, lsl #23
 8000e10:	db10      	blt.n	8000e34 <__aeabi_l2f+0x5c>
 8000e12:	fa01 fc02 	lsl.w	ip, r1, r2
 8000e16:	4463      	add	r3, ip
 8000e18:	fa00 fc02 	lsl.w	ip, r0, r2
 8000e1c:	f1c2 0220 	rsb	r2, r2, #32
 8000e20:	f1bc 4f00 	cmp.w	ip, #2147483648	; 0x80000000
 8000e24:	fa20 f202 	lsr.w	r2, r0, r2
 8000e28:	eb43 0002 	adc.w	r0, r3, r2
 8000e2c:	bf08      	it	eq
 8000e2e:	f020 0001 	biceq.w	r0, r0, #1
 8000e32:	4770      	bx	lr
 8000e34:	f102 0220 	add.w	r2, r2, #32
 8000e38:	fa01 fc02 	lsl.w	ip, r1, r2
 8000e3c:	f1c2 0220 	rsb	r2, r2, #32
 8000e40:	ea50 004c 	orrs.w	r0, r0, ip, lsl #1
 8000e44:	fa21 f202 	lsr.w	r2, r1, r2
 8000e48:	eb43 0002 	adc.w	r0, r3, r2
 8000e4c:	bf08      	it	eq
 8000e4e:	ea20 70dc 	biceq.w	r0, r0, ip, lsr #31
 8000e52:	4770      	bx	lr

08000e54 <__aeabi_fmul>:
 8000e54:	f04f 0cff 	mov.w	ip, #255	; 0xff
 8000e58:	ea1c 52d0 	ands.w	r2, ip, r0, lsr #23
 8000e5c:	bf1e      	ittt	ne
 8000e5e:	ea1c 53d1 	andsne.w	r3, ip, r1, lsr #23
 8000e62:	ea92 0f0c 	teqne	r2, ip
 8000e66:	ea93 0f0c 	teqne	r3, ip
 8000e6a:	d06f      	beq.n	8000f4c <__aeabi_fmul+0xf8>
 8000e6c:	441a      	add	r2, r3
 8000e6e:	ea80 0c01 	eor.w	ip, r0, r1
 8000e72:	0240      	lsls	r0, r0, #9
 8000e74:	bf18      	it	ne
 8000e76:	ea5f 2141 	movsne.w	r1, r1, lsl #9
 8000e7a:	d01e      	beq.n	8000eba <__aeabi_fmul+0x66>
 8000e7c:	f04f 6300 	mov.w	r3, #134217728	; 0x8000000
 8000e80:	ea43 1050 	orr.w	r0, r3, r0, lsr #5
 8000e84:	ea43 1151 	orr.w	r1, r3, r1, lsr #5
 8000e88:	fba0 3101 	umull	r3, r1, r0, r1
 8000e8c:	f00c 4000 	and.w	r0, ip, #2147483648	; 0x80000000
 8000e90:	f5b1 0f00 	cmp.w	r1, #8388608	; 0x800000
 8000e94:	bf3e      	ittt	cc
 8000e96:	0049      	lslcc	r1, r1, #1
 8000e98:	ea41 71d3 	orrcc.w	r1, r1, r3, lsr #31
 8000e9c:	005b      	lslcc	r3, r3, #1
 8000e9e:	ea40 0001 	orr.w	r0, r0, r1
 8000ea2:	f162 027f 	sbc.w	r2, r2, #127	; 0x7f
 8000ea6:	2afd      	cmp	r2, #253	; 0xfd
 8000ea8:	d81d      	bhi.n	8000ee6 <__aeabi_fmul+0x92>
 8000eaa:	f1b3 4f00 	cmp.w	r3, #2147483648	; 0x80000000
 8000eae:	eb40 50c2 	adc.w	r0, r0, r2, lsl #23
 8000eb2:	bf08      	it	eq
 8000eb4:	f020 0001 	biceq.w	r0, r0, #1
 8000eb8:	4770      	bx	lr
 8000eba:	f090 0f00 	teq	r0, #0
 8000ebe:	f00c 4c00 	and.w	ip, ip, #2147483648	; 0x80000000
 8000ec2:	bf08      	it	eq
 8000ec4:	0249      	lsleq	r1, r1, #9
 8000ec6:	ea4c 2050 	orr.w	r0, ip, r0, lsr #9
 8000eca:	ea40 2051 	orr.w	r0, r0, r1, lsr #9
 8000ece:	3a7f      	subs	r2, #127	; 0x7f
 8000ed0:	bfc2      	ittt	gt
 8000ed2:	f1d2 03ff 	rsbsgt	r3, r2, #255	; 0xff
 8000ed6:	ea40 50c2 	orrgt.w	r0, r0, r2, lsl #23
 8000eda:	4770      	bxgt	lr
 8000edc:	f440 0000 	orr.w	r0, r0, #8388608	; 0x800000
 8000ee0:	f04f 0300 	mov.w	r3, #0
 8000ee4:	3a01      	subs	r2, #1
 8000ee6:	dc5d      	bgt.n	8000fa4 <__aeabi_fmul+0x150>
 8000ee8:	f112 0f19 	cmn.w	r2, #25
 8000eec:	bfdc      	itt	le
 8000eee:	f000 4000 	andle.w	r0, r0, #2147483648	; 0x80000000
 8000ef2:	4770      	bxle	lr
 8000ef4:	f1c2 0200 	rsb	r2, r2, #0
 8000ef8:	0041      	lsls	r1, r0, #1
 8000efa:	fa21 f102 	lsr.w	r1, r1, r2
 8000efe:	f1c2 0220 	rsb	r2, r2, #32
 8000f02:	fa00 fc02 	lsl.w	ip, r0, r2
 8000f06:	ea5f 0031 	movs.w	r0, r1, rrx
 8000f0a:	f140 0000 	adc.w	r0, r0, #0
 8000f0e:	ea53 034c 	orrs.w	r3, r3, ip, lsl #1
 8000f12:	bf08      	it	eq
 8000f14:	ea20 70dc 	biceq.w	r0, r0, ip, lsr #31
 8000f18:	4770      	bx	lr
 8000f1a:	f092 0f00 	teq	r2, #0
 8000f1e:	f000 4c00 	and.w	ip, r0, #2147483648	; 0x80000000
 8000f22:	bf02      	ittt	eq
 8000f24:	0040      	lsleq	r0, r0, #1
 8000f26:	f410 0f00 	tsteq.w	r0, #8388608	; 0x800000
 8000f2a:	3a01      	subeq	r2, #1
 8000f2c:	d0f9      	beq.n	8000f22 <__aeabi_fmul+0xce>
 8000f2e:	ea40 000c 	orr.w	r0, r0, ip
 8000f32:	f093 0f00 	teq	r3, #0
 8000f36:	f001 4c00 	and.w	ip, r1, #2147483648	; 0x80000000
 8000f3a:	bf02      	ittt	eq
 8000f3c:	0049      	lsleq	r1, r1, #1
 8000f3e:	f411 0f00 	tsteq.w	r1, #8388608	; 0x800000
 8000f42:	3b01      	subeq	r3, #1
 8000f44:	d0f9      	beq.n	8000f3a <__aeabi_fmul+0xe6>
 8000f46:	ea41 010c 	orr.w	r1, r1, ip
 8000f4a:	e78f      	b.n	8000e6c <__aeabi_fmul+0x18>
 8000f4c:	ea0c 53d1 	and.w	r3, ip, r1, lsr #23
 8000f50:	ea92 0f0c 	teq	r2, ip
 8000f54:	bf18      	it	ne
 8000f56:	ea93 0f0c 	teqne	r3, ip
 8000f5a:	d00a      	beq.n	8000f72 <__aeabi_fmul+0x11e>
 8000f5c:	f030 4c00 	bics.w	ip, r0, #2147483648	; 0x80000000
 8000f60:	bf18      	it	ne
 8000f62:	f031 4c00 	bicsne.w	ip, r1, #2147483648	; 0x80000000
 8000f66:	d1d8      	bne.n	8000f1a <__aeabi_fmul+0xc6>
 8000f68:	ea80 0001 	eor.w	r0, r0, r1
 8000f6c:	f000 4000 	and.w	r0, r0, #2147483648	; 0x80000000
 8000f70:	4770      	bx	lr
 8000f72:	f090 0f00 	teq	r0, #0
 8000f76:	bf17      	itett	ne
 8000f78:	f090 4f00 	teqne	r0, #2147483648	; 0x80000000
 8000f7c:	4608      	moveq	r0, r1
 8000f7e:	f091 0f00 	teqne	r1, #0
 8000f82:	f091 4f00 	teqne	r1, #2147483648	; 0x80000000
 8000f86:	d014      	beq.n	8000fb2 <__aeabi_fmul+0x15e>
 8000f88:	ea92 0f0c 	teq	r2, ip
 8000f8c:	d101      	bne.n	8000f92 <__aeabi_fmul+0x13e>
 8000f8e:	0242      	lsls	r2, r0, #9
 8000f90:	d10f      	bne.n	8000fb2 <__aeabi_fmul+0x15e>
 8000f92:	ea93 0f0c 	teq	r3, ip
 8000f96:	d103      	bne.n	8000fa0 <__aeabi_fmul+0x14c>
 8000f98:	024b      	lsls	r3, r1, #9
 8000f9a:	bf18      	it	ne
 8000f9c:	4608      	movne	r0, r1
 8000f9e:	d108      	bne.n	8000fb2 <__aeabi_fmul+0x15e>
 8000fa0:	ea80 0001 	eor.w	r0, r0, r1
 8000fa4:	f000 4000 	and.w	r0, r0, #2147483648	; 0x80000000
 8000fa8:	f040 40fe 	orr.w	r0, r0, #2130706432	; 0x7f000000
 8000fac:	f440 0000 	orr.w	r0, r0, #8388608	; 0x800000
 8000fb0:	4770      	bx	lr
 8000fb2:	f040 40fe 	orr.w	r0, r0, #2130706432	; 0x7f000000
 8000fb6:	f440 0040 	orr.w	r0, r0, #12582912	; 0xc00000
 8000fba:	4770      	bx	lr

08000fbc <__aeabi_fdiv>:
 8000fbc:	f04f 0cff 	mov.w	ip, #255	; 0xff
 8000fc0:	ea1c 52d0 	ands.w	r2, ip, r0, lsr #23
 8000fc4:	bf1e      	ittt	ne
 8000fc6:	ea1c 53d1 	andsne.w	r3, ip, r1, lsr #23
 8000fca:	ea92 0f0c 	teqne	r2, ip
 8000fce:	ea93 0f0c 	teqne	r3, ip
 8000fd2:	d069      	beq.n	80010a8 <__aeabi_fdiv+0xec>
 8000fd4:	eba2 0203 	sub.w	r2, r2, r3
 8000fd8:	ea80 0c01 	eor.w	ip, r0, r1
 8000fdc:	0249      	lsls	r1, r1, #9
 8000fde:	ea4f 2040 	mov.w	r0, r0, lsl #9
 8000fe2:	d037      	beq.n	8001054 <__aeabi_fdiv+0x98>
 8000fe4:	f04f 5380 	mov.w	r3, #268435456	; 0x10000000
 8000fe8:	ea43 1111 	orr.w	r1, r3, r1, lsr #4
 8000fec:	ea43 1310 	orr.w	r3, r3, r0, lsr #4
 8000ff0:	f00c 4000 	and.w	r0, ip, #2147483648	; 0x80000000
 8000ff4:	428b      	cmp	r3, r1
 8000ff6:	bf38      	it	cc
 8000ff8:	005b      	lslcc	r3, r3, #1
 8000ffa:	f142 027d 	adc.w	r2, r2, #125	; 0x7d
 8000ffe:	f44f 0c00 	mov.w	ip, #8388608	; 0x800000
 8001002:	428b      	cmp	r3, r1
 8001004:	bf24      	itt	cs
 8001006:	1a5b      	subcs	r3, r3, r1
 8001008:	ea40 000c 	orrcs.w	r0, r0, ip
 800100c:	ebb3 0f51 	cmp.w	r3, r1, lsr #1
 8001010:	bf24      	itt	cs
 8001012:	eba3 0351 	subcs.w	r3, r3, r1, lsr #1
 8001016:	ea40 005c 	orrcs.w	r0, r0, ip, lsr #1
 800101a:	ebb3 0f91 	cmp.w	r3, r1, lsr #2
 800101e:	bf24      	itt	cs
 8001020:	eba3 0391 	subcs.w	r3, r3, r1, lsr #2
 8001024:	ea40 009c 	orrcs.w	r0, r0, ip, lsr #2
 8001028:	ebb3 0fd1 	cmp.w	r3, r1, lsr #3
 800102c:	bf24      	itt	cs
 800102e:	eba3 03d1 	subcs.w	r3, r3, r1, lsr #3
 8001032:	ea40 00dc 	orrcs.w	r0, r0, ip, lsr #3
 8001036:	011b      	lsls	r3, r3, #4
 8001038:	bf18      	it	ne
 800103a:	ea5f 1c1c 	movsne.w	ip, ip, lsr #4
 800103e:	d1e0      	bne.n	8001002 <__aeabi_fdiv+0x46>
 8001040:	2afd      	cmp	r2, #253	; 0xfd
 8001042:	f63f af50 	bhi.w	8000ee6 <__aeabi_fmul+0x92>
 8001046:	428b      	cmp	r3, r1
 8001048:	eb40 50c2 	adc.w	r0, r0, r2, lsl #23
 800104c:	bf08      	it	eq
 800104e:	f020 0001 	biceq.w	r0, r0, #1
 8001052:	4770      	bx	lr
 8001054:	f00c 4c00 	and.w	ip, ip, #2147483648	; 0x80000000
 8001058:	ea4c 2050 	orr.w	r0, ip, r0, lsr #9
 800105c:	327f      	adds	r2, #127	; 0x7f
 800105e:	bfc2      	ittt	gt
 8001060:	f1d2 03ff 	rsbsgt	r3, r2, #255	; 0xff
 8001064:	ea40 50c2 	orrgt.w	r0, r0, r2, lsl #23
 8001068:	4770      	bxgt	lr
 800106a:	f440 0000 	orr.w	r0, r0, #8388608	; 0x800000
 800106e:	f04f 0300 	mov.w	r3, #0
 8001072:	3a01      	subs	r2, #1
 8001074:	e737      	b.n	8000ee6 <__aeabi_fmul+0x92>
 8001076:	f092 0f00 	teq	r2, #0
 800107a:	f000 4c00 	and.w	ip, r0, #2147483648	; 0x80000000
 800107e:	bf02      	ittt	eq
 8001080:	0040      	lsleq	r0, r0, #1
 8001082:	f410 0f00 	tsteq.w	r0, #8388608	; 0x800000
 8001086:	3a01      	subeq	r2, #1
 8001088:	d0f9      	beq.n	800107e <__aeabi_fdiv+0xc2>
 800108a:	ea40 000c 	orr.w	r0, r0, ip
 800108e:	f093 0f00 	teq	r3, #0
 8001092:	f001 4c00 	and.w	ip, r1, #2147483648	; 0x80000000
 8001096:	bf02      	ittt	eq
 8001098:	0049      	lsleq	r1, r1, #1
 800109a:	f411 0f00 	tsteq.w	r1, #8388608	; 0x800000
 800109e:	3b01      	subeq	r3, #1
 80010a0:	d0f9      	beq.n	8001096 <__aeabi_fdiv+0xda>
 80010a2:	ea41 010c 	orr.w	r1, r1, ip
 80010a6:	e795      	b.n	8000fd4 <__aeabi_fdiv+0x18>
 80010a8:	ea0c 53d1 	and.w	r3, ip, r1, lsr #23
 80010ac:	ea92 0f0c 	teq	r2, ip
 80010b0:	d108      	bne.n	80010c4 <__aeabi_fdiv+0x108>
 80010b2:	0242      	lsls	r2, r0, #9
 80010b4:	f47f af7d 	bne.w	8000fb2 <__aeabi_fmul+0x15e>
 80010b8:	ea93 0f0c 	teq	r3, ip
 80010bc:	f47f af70 	bne.w	8000fa0 <__aeabi_fmul+0x14c>
 80010c0:	4608      	mov	r0, r1
 80010c2:	e776      	b.n	8000fb2 <__aeabi_fmul+0x15e>
 80010c4:	ea93 0f0c 	teq	r3, ip
 80010c8:	d104      	bne.n	80010d4 <__aeabi_fdiv+0x118>
 80010ca:	024b      	lsls	r3, r1, #9
 80010cc:	f43f af4c 	beq.w	8000f68 <__aeabi_fmul+0x114>
 80010d0:	4608      	mov	r0, r1
 80010d2:	e76e      	b.n	8000fb2 <__aeabi_fmul+0x15e>
 80010d4:	f030 4c00 	bics.w	ip, r0, #2147483648	; 0x80000000
 80010d8:	bf18      	it	ne
 80010da:	f031 4c00 	bicsne.w	ip, r1, #2147483648	; 0x80000000
 80010de:	d1ca      	bne.n	8001076 <__aeabi_fdiv+0xba>
 80010e0:	f030 4200 	bics.w	r2, r0, #2147483648	; 0x80000000
 80010e4:	f47f af5c 	bne.w	8000fa0 <__aeabi_fmul+0x14c>
 80010e8:	f031 4300 	bics.w	r3, r1, #2147483648	; 0x80000000
 80010ec:	f47f af3c 	bne.w	8000f68 <__aeabi_fmul+0x114>
 80010f0:	e75f      	b.n	8000fb2 <__aeabi_fmul+0x15e>
 80010f2:	bf00      	nop

080010f4 <__aeabi_uldivmod>:
 80010f4:	b953      	cbnz	r3, 800110c <__aeabi_uldivmod+0x18>
 80010f6:	b94a      	cbnz	r2, 800110c <__aeabi_uldivmod+0x18>
 80010f8:	2900      	cmp	r1, #0
 80010fa:	bf08      	it	eq
 80010fc:	2800      	cmpeq	r0, #0
 80010fe:	bf1c      	itt	ne
 8001100:	f04f 31ff 	movne.w	r1, #4294967295	; 0xffffffff
 8001104:	f04f 30ff 	movne.w	r0, #4294967295	; 0xffffffff
 8001108:	f000 b9ac 	b.w	8001464 <__aeabi_idiv0>
 800110c:	f1ad 0c08 	sub.w	ip, sp, #8
 8001110:	e96d ce04 	strd	ip, lr, [sp, #-16]!
 8001114:	f000 f83e 	bl	8001194 <__udivmoddi4>
 8001118:	f8dd e004 	ldr.w	lr, [sp, #4]
 800111c:	e9dd 2302 	ldrd	r2, r3, [sp, #8]
 8001120:	b004      	add	sp, #16
 8001122:	4770      	bx	lr

08001124 <__aeabi_d2lz>:
 8001124:	b538      	push	{r3, r4, r5, lr}
 8001126:	4605      	mov	r5, r0
 8001128:	460c      	mov	r4, r1
 800112a:	4628      	mov	r0, r5
 800112c:	4621      	mov	r1, r4
 800112e:	2200      	movs	r2, #0
 8001130:	2300      	movs	r3, #0
 8001132:	f7ff fcab 	bl	8000a8c <__aeabi_dcmplt>
 8001136:	b928      	cbnz	r0, 8001144 <__aeabi_d2lz+0x20>
 8001138:	4628      	mov	r0, r5
 800113a:	4621      	mov	r1, r4
 800113c:	e8bd 4038 	ldmia.w	sp!, {r3, r4, r5, lr}
 8001140:	f000 b80a 	b.w	8001158 <__aeabi_d2ulz>
 8001144:	4628      	mov	r0, r5
 8001146:	f104 4100 	add.w	r1, r4, #2147483648	; 0x80000000
 800114a:	f000 f805 	bl	8001158 <__aeabi_d2ulz>
 800114e:	4240      	negs	r0, r0
 8001150:	eb61 0141 	sbc.w	r1, r1, r1, lsl #1
 8001154:	bd38      	pop	{r3, r4, r5, pc}
 8001156:	bf00      	nop

08001158 <__aeabi_d2ulz>:
 8001158:	b5d0      	push	{r4, r6, r7, lr}
 800115a:	4b0c      	ldr	r3, [pc, #48]	; (800118c <__aeabi_d2ulz+0x34>)
 800115c:	2200      	movs	r2, #0
 800115e:	4606      	mov	r6, r0
 8001160:	460f      	mov	r7, r1
 8001162:	f7ff fa21 	bl	80005a8 <__aeabi_dmul>
 8001166:	f7ff fcf7 	bl	8000b58 <__aeabi_d2uiz>
 800116a:	4604      	mov	r4, r0
 800116c:	f7ff f9a2 	bl	80004b4 <__aeabi_ui2d>
 8001170:	4b07      	ldr	r3, [pc, #28]	; (8001190 <__aeabi_d2ulz+0x38>)
 8001172:	2200      	movs	r2, #0
 8001174:	f7ff fa18 	bl	80005a8 <__aeabi_dmul>
 8001178:	4602      	mov	r2, r0
 800117a:	460b      	mov	r3, r1
 800117c:	4630      	mov	r0, r6
 800117e:	4639      	mov	r1, r7
 8001180:	f7ff f85a 	bl	8000238 <__aeabi_dsub>
 8001184:	f7ff fce8 	bl	8000b58 <__aeabi_d2uiz>
 8001188:	4621      	mov	r1, r4
 800118a:	bdd0      	pop	{r4, r6, r7, pc}
 800118c:	3df00000 	.word	0x3df00000
 8001190:	41f00000 	.word	0x41f00000

08001194 <__udivmoddi4>:
 8001194:	e92d 47f0 	stmdb	sp!, {r4, r5, r6, r7, r8, r9, sl, lr}
 8001198:	9e08      	ldr	r6, [sp, #32]
 800119a:	460d      	mov	r5, r1
 800119c:	4604      	mov	r4, r0
 800119e:	4688      	mov	r8, r1
 80011a0:	2b00      	cmp	r3, #0
 80011a2:	d14d      	bne.n	8001240 <__udivmoddi4+0xac>
 80011a4:	428a      	cmp	r2, r1
 80011a6:	4694      	mov	ip, r2
 80011a8:	d968      	bls.n	800127c <__udivmoddi4+0xe8>
 80011aa:	fab2 f282 	clz	r2, r2
 80011ae:	b152      	cbz	r2, 80011c6 <__udivmoddi4+0x32>
 80011b0:	fa01 f302 	lsl.w	r3, r1, r2
 80011b4:	f1c2 0120 	rsb	r1, r2, #32
 80011b8:	fa20 f101 	lsr.w	r1, r0, r1
 80011bc:	fa0c fc02 	lsl.w	ip, ip, r2
 80011c0:	ea41 0803 	orr.w	r8, r1, r3
 80011c4:	4094      	lsls	r4, r2
 80011c6:	ea4f 451c 	mov.w	r5, ip, lsr #16
 80011ca:	0c21      	lsrs	r1, r4, #16
 80011cc:	fbb8 fef5 	udiv	lr, r8, r5
 80011d0:	fa1f f78c 	uxth.w	r7, ip
 80011d4:	fb05 831e 	mls	r3, r5, lr, r8
 80011d8:	ea41 4303 	orr.w	r3, r1, r3, lsl #16
 80011dc:	fb0e f107 	mul.w	r1, lr, r7
 80011e0:	4299      	cmp	r1, r3
 80011e2:	d90b      	bls.n	80011fc <__udivmoddi4+0x68>
 80011e4:	eb1c 0303 	adds.w	r3, ip, r3
 80011e8:	f10e 30ff 	add.w	r0, lr, #4294967295	; 0xffffffff
 80011ec:	f080 811e 	bcs.w	800142c <__udivmoddi4+0x298>
 80011f0:	4299      	cmp	r1, r3
 80011f2:	f240 811b 	bls.w	800142c <__udivmoddi4+0x298>
 80011f6:	f1ae 0e02 	sub.w	lr, lr, #2
 80011fa:	4463      	add	r3, ip
 80011fc:	1a5b      	subs	r3, r3, r1
 80011fe:	b2a4      	uxth	r4, r4
 8001200:	fbb3 f0f5 	udiv	r0, r3, r5
 8001204:	fb05 3310 	mls	r3, r5, r0, r3
 8001208:	ea44 4403 	orr.w	r4, r4, r3, lsl #16
 800120c:	fb00 f707 	mul.w	r7, r0, r7
 8001210:	42a7      	cmp	r7, r4
 8001212:	d90a      	bls.n	800122a <__udivmoddi4+0x96>
 8001214:	eb1c 0404 	adds.w	r4, ip, r4
 8001218:	f100 33ff 	add.w	r3, r0, #4294967295	; 0xffffffff
 800121c:	f080 8108 	bcs.w	8001430 <__udivmoddi4+0x29c>
 8001220:	42a7      	cmp	r7, r4
 8001222:	f240 8105 	bls.w	8001430 <__udivmoddi4+0x29c>
 8001226:	4464      	add	r4, ip
 8001228:	3802      	subs	r0, #2
 800122a:	1be4      	subs	r4, r4, r7
 800122c:	ea40 400e 	orr.w	r0, r0, lr, lsl #16
 8001230:	2100      	movs	r1, #0
 8001232:	b11e      	cbz	r6, 800123c <__udivmoddi4+0xa8>
 8001234:	40d4      	lsrs	r4, r2
 8001236:	2300      	movs	r3, #0
 8001238:	e9c6 4300 	strd	r4, r3, [r6]
 800123c:	e8bd 87f0 	ldmia.w	sp!, {r4, r5, r6, r7, r8, r9, sl, pc}
 8001240:	428b      	cmp	r3, r1
 8001242:	d908      	bls.n	8001256 <__udivmoddi4+0xc2>
 8001244:	2e00      	cmp	r6, #0
 8001246:	f000 80ee 	beq.w	8001426 <__udivmoddi4+0x292>
 800124a:	2100      	movs	r1, #0
 800124c:	e9c6 0500 	strd	r0, r5, [r6]
 8001250:	4608      	mov	r0, r1
 8001252:	e8bd 87f0 	ldmia.w	sp!, {r4, r5, r6, r7, r8, r9, sl, pc}
 8001256:	fab3 f183 	clz	r1, r3
 800125a:	2900      	cmp	r1, #0
 800125c:	d14a      	bne.n	80012f4 <__udivmoddi4+0x160>
 800125e:	42ab      	cmp	r3, r5
 8001260:	d302      	bcc.n	8001268 <__udivmoddi4+0xd4>
 8001262:	4282      	cmp	r2, r0
 8001264:	f200 80f9 	bhi.w	800145a <__udivmoddi4+0x2c6>
 8001268:	1a84      	subs	r4, r0, r2
 800126a:	eb65 0303 	sbc.w	r3, r5, r3
 800126e:	2001      	movs	r0, #1
 8001270:	4698      	mov	r8, r3
 8001272:	2e00      	cmp	r6, #0
 8001274:	d0e2      	beq.n	800123c <__udivmoddi4+0xa8>
 8001276:	e9c6 4800 	strd	r4, r8, [r6]
 800127a:	e7df      	b.n	800123c <__udivmoddi4+0xa8>
 800127c:	b902      	cbnz	r2, 8001280 <__udivmoddi4+0xec>
 800127e:	deff      	udf	#255	; 0xff
 8001280:	fab2 f282 	clz	r2, r2
 8001284:	2a00      	cmp	r2, #0
 8001286:	f040 8091 	bne.w	80013ac <__udivmoddi4+0x218>
 800128a:	eba1 050c 	sub.w	r5, r1, ip
 800128e:	ea4f 471c 	mov.w	r7, ip, lsr #16
 8001292:	fa1f fe8c 	uxth.w	lr, ip
 8001296:	2101      	movs	r1, #1
 8001298:	fbb5 f3f7 	udiv	r3, r5, r7
 800129c:	fb07 5013 	mls	r0, r7, r3, r5
 80012a0:	0c25      	lsrs	r5, r4, #16
 80012a2:	ea45 4500 	orr.w	r5, r5, r0, lsl #16
 80012a6:	fb0e f003 	mul.w	r0, lr, r3
 80012aa:	42a8      	cmp	r0, r5
 80012ac:	d908      	bls.n	80012c0 <__udivmoddi4+0x12c>
 80012ae:	eb1c 0505 	adds.w	r5, ip, r5
 80012b2:	f103 38ff 	add.w	r8, r3, #4294967295	; 0xffffffff
 80012b6:	d202      	bcs.n	80012be <__udivmoddi4+0x12a>
 80012b8:	42a8      	cmp	r0, r5
 80012ba:	f200 80cb 	bhi.w	8001454 <__udivmoddi4+0x2c0>
 80012be:	4643      	mov	r3, r8
 80012c0:	1a2d      	subs	r5, r5, r0
 80012c2:	b2a4      	uxth	r4, r4
 80012c4:	fbb5 f0f7 	udiv	r0, r5, r7
 80012c8:	fb07 5510 	mls	r5, r7, r0, r5
 80012cc:	ea44 4405 	orr.w	r4, r4, r5, lsl #16
 80012d0:	fb0e fe00 	mul.w	lr, lr, r0
 80012d4:	45a6      	cmp	lr, r4
 80012d6:	d908      	bls.n	80012ea <__udivmoddi4+0x156>
 80012d8:	eb1c 0404 	adds.w	r4, ip, r4
 80012dc:	f100 35ff 	add.w	r5, r0, #4294967295	; 0xffffffff
 80012e0:	d202      	bcs.n	80012e8 <__udivmoddi4+0x154>
 80012e2:	45a6      	cmp	lr, r4
 80012e4:	f200 80bb 	bhi.w	800145e <__udivmoddi4+0x2ca>
 80012e8:	4628      	mov	r0, r5
 80012ea:	eba4 040e 	sub.w	r4, r4, lr
 80012ee:	ea40 4003 	orr.w	r0, r0, r3, lsl #16
 80012f2:	e79e      	b.n	8001232 <__udivmoddi4+0x9e>
 80012f4:	f1c1 0720 	rsb	r7, r1, #32
 80012f8:	408b      	lsls	r3, r1
 80012fa:	fa22 fc07 	lsr.w	ip, r2, r7
 80012fe:	ea4c 0c03 	orr.w	ip, ip, r3
 8001302:	fa20 f407 	lsr.w	r4, r0, r7
 8001306:	fa05 f301 	lsl.w	r3, r5, r1
 800130a:	431c      	orrs	r4, r3
 800130c:	40fd      	lsrs	r5, r7
 800130e:	ea4f 491c 	mov.w	r9, ip, lsr #16
 8001312:	fa00 f301 	lsl.w	r3, r0, r1
 8001316:	fbb5 f8f9 	udiv	r8, r5, r9
 800131a:	0c20      	lsrs	r0, r4, #16
 800131c:	fa1f fe8c 	uxth.w	lr, ip
 8001320:	fb09 5518 	mls	r5, r9, r8, r5
 8001324:	ea40 4505 	orr.w	r5, r0, r5, lsl #16
 8001328:	fb08 f00e 	mul.w	r0, r8, lr
 800132c:	42a8      	cmp	r0, r5
 800132e:	fa02 f201 	lsl.w	r2, r2, r1
 8001332:	d90b      	bls.n	800134c <__udivmoddi4+0x1b8>
 8001334:	eb1c 0505 	adds.w	r5, ip, r5
 8001338:	f108 3aff 	add.w	sl, r8, #4294967295	; 0xffffffff
 800133c:	f080 8088 	bcs.w	8001450 <__udivmoddi4+0x2bc>
 8001340:	42a8      	cmp	r0, r5
 8001342:	f240 8085 	bls.w	8001450 <__udivmoddi4+0x2bc>
 8001346:	f1a8 0802 	sub.w	r8, r8, #2
 800134a:	4465      	add	r5, ip
 800134c:	1a2d      	subs	r5, r5, r0
 800134e:	b2a4      	uxth	r4, r4
 8001350:	fbb5 f0f9 	udiv	r0, r5, r9
 8001354:	fb09 5510 	mls	r5, r9, r0, r5
 8001358:	ea44 4505 	orr.w	r5, r4, r5, lsl #16
 800135c:	fb00 fe0e 	mul.w	lr, r0, lr
 8001360:	45ae      	cmp	lr, r5
 8001362:	d908      	bls.n	8001376 <__udivmoddi4+0x1e2>
 8001364:	eb1c 0505 	adds.w	r5, ip, r5
 8001368:	f100 34ff 	add.w	r4, r0, #4294967295	; 0xffffffff
 800136c:	d26c      	bcs.n	8001448 <__udivmoddi4+0x2b4>
 800136e:	45ae      	cmp	lr, r5
 8001370:	d96a      	bls.n	8001448 <__udivmoddi4+0x2b4>
 8001372:	3802      	subs	r0, #2
 8001374:	4465      	add	r5, ip
 8001376:	ea40 4008 	orr.w	r0, r0, r8, lsl #16
 800137a:	fba0 9402 	umull	r9, r4, r0, r2
 800137e:	eba5 050e 	sub.w	r5, r5, lr
 8001382:	42a5      	cmp	r5, r4
 8001384:	46c8      	mov	r8, r9
 8001386:	46a6      	mov	lr, r4
 8001388:	d356      	bcc.n	8001438 <__udivmoddi4+0x2a4>
 800138a:	d053      	beq.n	8001434 <__udivmoddi4+0x2a0>
 800138c:	b15e      	cbz	r6, 80013a6 <__udivmoddi4+0x212>
 800138e:	ebb3 0208 	subs.w	r2, r3, r8
 8001392:	eb65 050e 	sbc.w	r5, r5, lr
 8001396:	fa05 f707 	lsl.w	r7, r5, r7
 800139a:	fa22 f301 	lsr.w	r3, r2, r1
 800139e:	40cd      	lsrs	r5, r1
 80013a0:	431f      	orrs	r7, r3
 80013a2:	e9c6 7500 	strd	r7, r5, [r6]
 80013a6:	2100      	movs	r1, #0
 80013a8:	e8bd 87f0 	ldmia.w	sp!, {r4, r5, r6, r7, r8, r9, sl, pc}
 80013ac:	f1c2 0320 	rsb	r3, r2, #32
 80013b0:	fa20 f103 	lsr.w	r1, r0, r3
 80013b4:	fa0c fc02 	lsl.w	ip, ip, r2
 80013b8:	fa25 f303 	lsr.w	r3, r5, r3
 80013bc:	4095      	lsls	r5, r2
 80013be:	430d      	orrs	r5, r1
 80013c0:	ea4f 471c 	mov.w	r7, ip, lsr #16
 80013c4:	fa1f fe8c 	uxth.w	lr, ip
 80013c8:	fbb3 f1f7 	udiv	r1, r3, r7
 80013cc:	fb07 3011 	mls	r0, r7, r1, r3
 80013d0:	0c2b      	lsrs	r3, r5, #16
 80013d2:	ea43 4300 	orr.w	r3, r3, r0, lsl #16
 80013d6:	fb01 f00e 	mul.w	r0, r1, lr
 80013da:	4298      	cmp	r0, r3
 80013dc:	fa04 f402 	lsl.w	r4, r4, r2
 80013e0:	d908      	bls.n	80013f4 <__udivmoddi4+0x260>
 80013e2:	eb1c 0303 	adds.w	r3, ip, r3
 80013e6:	f101 38ff 	add.w	r8, r1, #4294967295	; 0xffffffff
 80013ea:	d22f      	bcs.n	800144c <__udivmoddi4+0x2b8>
 80013ec:	4298      	cmp	r0, r3
 80013ee:	d92d      	bls.n	800144c <__udivmoddi4+0x2b8>
 80013f0:	3902      	subs	r1, #2
 80013f2:	4463      	add	r3, ip
 80013f4:	1a1b      	subs	r3, r3, r0
 80013f6:	b2ad      	uxth	r5, r5
 80013f8:	fbb3 f0f7 	udiv	r0, r3, r7
 80013fc:	fb07 3310 	mls	r3, r7, r0, r3
 8001400:	ea45 4503 	orr.w	r5, r5, r3, lsl #16
 8001404:	fb00 f30e 	mul.w	r3, r0, lr
 8001408:	42ab      	cmp	r3, r5
 800140a:	d908      	bls.n	800141e <__udivmoddi4+0x28a>
 800140c:	eb1c 0505 	adds.w	r5, ip, r5
 8001410:	f100 38ff 	add.w	r8, r0, #4294967295	; 0xffffffff
 8001414:	d216      	bcs.n	8001444 <__udivmoddi4+0x2b0>
 8001416:	42ab      	cmp	r3, r5
 8001418:	d914      	bls.n	8001444 <__udivmoddi4+0x2b0>
 800141a:	3802      	subs	r0, #2
 800141c:	4465      	add	r5, ip
 800141e:	1aed      	subs	r5, r5, r3
 8001420:	ea40 4101 	orr.w	r1, r0, r1, lsl #16
 8001424:	e738      	b.n	8001298 <__udivmoddi4+0x104>
 8001426:	4631      	mov	r1, r6
 8001428:	4630      	mov	r0, r6
 800142a:	e707      	b.n	800123c <__udivmoddi4+0xa8>
 800142c:	4686      	mov	lr, r0
 800142e:	e6e5      	b.n	80011fc <__udivmoddi4+0x68>
 8001430:	4618      	mov	r0, r3
 8001432:	e6fa      	b.n	800122a <__udivmoddi4+0x96>
 8001434:	454b      	cmp	r3, r9
 8001436:	d2a9      	bcs.n	800138c <__udivmoddi4+0x1f8>
 8001438:	ebb9 0802 	subs.w	r8, r9, r2
 800143c:	eb64 0e0c 	sbc.w	lr, r4, ip
 8001440:	3801      	subs	r0, #1
 8001442:	e7a3      	b.n	800138c <__udivmoddi4+0x1f8>
 8001444:	4640      	mov	r0, r8
 8001446:	e7ea      	b.n	800141e <__udivmoddi4+0x28a>
 8001448:	4620      	mov	r0, r4
 800144a:	e794      	b.n	8001376 <__udivmoddi4+0x1e2>
 800144c:	4641      	mov	r1, r8
 800144e:	e7d1      	b.n	80013f4 <__udivmoddi4+0x260>
 8001450:	46d0      	mov	r8, sl
 8001452:	e77b      	b.n	800134c <__udivmoddi4+0x1b8>
 8001454:	3b02      	subs	r3, #2
 8001456:	4465      	add	r5, ip
 8001458:	e732      	b.n	80012c0 <__udivmoddi4+0x12c>
 800145a:	4608      	mov	r0, r1
 800145c:	e709      	b.n	8001272 <__udivmoddi4+0xde>
 800145e:	4464      	add	r4, ip
 8001460:	3802      	subs	r0, #2
 8001462:	e742      	b.n	80012ea <__udivmoddi4+0x156>

08001464 <__aeabi_idiv0>:
 8001464:	4770      	bx	lr
 8001466:	bf00      	nop

08001468 <LL_AHB2_GRP1_EnableClock>:
  *         @arg @ref LL_AHB2_GRP1_PERIPH_GPIOC
  *         @arg @ref LL_AHB2_GRP1_PERIPH_GPIOH
  * @retval None
  */
__STATIC_INLINE void LL_AHB2_GRP1_EnableClock(uint32_t Periphs)
{
 8001468:	b480      	push	{r7}
 800146a:	b085      	sub	sp, #20
 800146c:	af00      	add	r7, sp, #0
 800146e:	6078      	str	r0, [r7, #4]
  __IO uint32_t tmpreg;
  SET_BIT(RCC->AHB2ENR, Periphs);
 8001470:	f04f 43b0 	mov.w	r3, #1476395008	; 0x58000000
 8001474:	6cda      	ldr	r2, [r3, #76]	; 0x4c
 8001476:	f04f 41b0 	mov.w	r1, #1476395008	; 0x58000000
 800147a:	687b      	ldr	r3, [r7, #4]
 800147c:	4313      	orrs	r3, r2
 800147e:	64cb      	str	r3, [r1, #76]	; 0x4c
  /* Delay after an RCC peripheral clock enabling */
  tmpreg = READ_BIT(RCC->AHB2ENR, Periphs);
 8001480:	f04f 43b0 	mov.w	r3, #1476395008	; 0x58000000
 8001484:	6cda      	ldr	r2, [r3, #76]	; 0x4c
 8001486:	687b      	ldr	r3, [r7, #4]
 8001488:	4013      	ands	r3, r2
 800148a:	60fb      	str	r3, [r7, #12]
  (void)tmpreg;
 800148c:	68fb      	ldr	r3, [r7, #12]
}
 800148e:	bf00      	nop
 8001490:	3714      	adds	r7, #20
 8001492:	46bd      	mov	sp, r7
 8001494:	bc80      	pop	{r7}
 8001496:	4770      	bx	lr

08001498 <delay_us>:
#define DS18B20_PORT GPIOB
#define DS18B20_PIN GPIO_PIN_10


void delay_us(uint32_t us)
{
 8001498:	b480      	push	{r7}
 800149a:	b083      	sub	sp, #12
 800149c:	af00      	add	r7, sp, #0
 800149e:	6078      	str	r0, [r7, #4]
  // Configure timer
  RCC->APB1ENR1 |= RCC_APB1ENR1_TIM2EN; // Enable clock for TIM2
 80014a0:	f04f 43b0 	mov.w	r3, #1476395008	; 0x58000000
 80014a4:	6d9b      	ldr	r3, [r3, #88]	; 0x58
 80014a6:	f04f 42b0 	mov.w	r2, #1476395008	; 0x58000000
 80014aa:	f043 0301 	orr.w	r3, r3, #1
 80014ae:	6593      	str	r3, [r2, #88]	; 0x58
  TIM2->CR1 &= ~TIM_CR1_CEN; // Disable timer
 80014b0:	f04f 4380 	mov.w	r3, #1073741824	; 0x40000000
 80014b4:	681b      	ldr	r3, [r3, #0]
 80014b6:	f04f 4280 	mov.w	r2, #1073741824	; 0x40000000
 80014ba:	f023 0301 	bic.w	r3, r3, #1
 80014be:	6013      	str	r3, [r2, #0]
  TIM2->PSC = (uint32_t)(SystemCoreClock / 1000000) - 1; // Set prescaler for 1 MHz
 80014c0:	4b1b      	ldr	r3, [pc, #108]	; (8001530 <delay_us+0x98>)
 80014c2:	681b      	ldr	r3, [r3, #0]
 80014c4:	4a1b      	ldr	r2, [pc, #108]	; (8001534 <delay_us+0x9c>)
 80014c6:	fba2 2303 	umull	r2, r3, r2, r3
 80014ca:	0c9b      	lsrs	r3, r3, #18
 80014cc:	f04f 4280 	mov.w	r2, #1073741824	; 0x40000000
 80014d0:	3b01      	subs	r3, #1
 80014d2:	6293      	str	r3, [r2, #40]	; 0x28
  TIM2->ARR = (uint32_t)(us); // Set auto-reload value
 80014d4:	f04f 4280 	mov.w	r2, #1073741824	; 0x40000000
 80014d8:	687b      	ldr	r3, [r7, #4]
 80014da:	62d3      	str	r3, [r2, #44]	; 0x2c
  TIM2->EGR = TIM_EGR_UG; // Update registers
 80014dc:	f04f 4380 	mov.w	r3, #1073741824	; 0x40000000
 80014e0:	2201      	movs	r2, #1
 80014e2:	615a      	str	r2, [r3, #20]
  TIM2->SR &= ~TIM_SR_UIF; // Clear update interrupt flag
 80014e4:	f04f 4380 	mov.w	r3, #1073741824	; 0x40000000
 80014e8:	691b      	ldr	r3, [r3, #16]
 80014ea:	f04f 4280 	mov.w	r2, #1073741824	; 0x40000000
 80014ee:	f023 0301 	bic.w	r3, r3, #1
 80014f2:	6113      	str	r3, [r2, #16]
  TIM2->CR1 |= TIM_CR1_CEN; // Enable timer
 80014f4:	f04f 4380 	mov.w	r3, #1073741824	; 0x40000000
 80014f8:	681b      	ldr	r3, [r3, #0]
 80014fa:	f04f 4280 	mov.w	r2, #1073741824	; 0x40000000
 80014fe:	f043 0301 	orr.w	r3, r3, #1
 8001502:	6013      	str	r3, [r2, #0]

  // Wait for timer to finish
  while ((TIM2->SR & TIM_SR_UIF) == 0) {}
 8001504:	bf00      	nop
 8001506:	f04f 4380 	mov.w	r3, #1073741824	; 0x40000000
 800150a:	691b      	ldr	r3, [r3, #16]
 800150c:	f003 0301 	and.w	r3, r3, #1
 8001510:	2b00      	cmp	r3, #0
 8001512:	d0f8      	beq.n	8001506 <delay_us+0x6e>

  // Disable timer
  TIM2->CR1 &= ~TIM_CR1_CEN;
 8001514:	f04f 4380 	mov.w	r3, #1073741824	; 0x40000000
 8001518:	681b      	ldr	r3, [r3, #0]
 800151a:	f04f 4280 	mov.w	r2, #1073741824	; 0x40000000
 800151e:	f023 0301 	bic.w	r3, r3, #1
 8001522:	6013      	str	r3, [r2, #0]
}
 8001524:	bf00      	nop
 8001526:	370c      	adds	r7, #12
 8001528:	46bd      	mov	sp, r7
 800152a:	bc80      	pop	{r7}
 800152c:	4770      	bx	lr
 800152e:	bf00      	nop
 8001530:	20000000 	.word	0x20000000
 8001534:	431bde83 	.word	0x431bde83

08001538 <Set_Pin_Output>:

uint16_t SUM, RH, TEMP;


void Set_Pin_Output (GPIO_TypeDef *GPIOx, uint16_t GPIO_Pin)
{
 8001538:	b580      	push	{r7, lr}
 800153a:	b088      	sub	sp, #32
 800153c:	af00      	add	r7, sp, #0
 800153e:	6078      	str	r0, [r7, #4]
 8001540:	460b      	mov	r3, r1
 8001542:	807b      	strh	r3, [r7, #2]
	GPIO_InitTypeDef GPIO_InitStruct = {0};
 8001544:	f107 030c 	add.w	r3, r7, #12
 8001548:	2200      	movs	r2, #0
 800154a:	601a      	str	r2, [r3, #0]
 800154c:	605a      	str	r2, [r3, #4]
 800154e:	609a      	str	r2, [r3, #8]
 8001550:	60da      	str	r2, [r3, #12]
 8001552:	611a      	str	r2, [r3, #16]
	GPIO_InitStruct.Pin = GPIO_Pin;
 8001554:	887b      	ldrh	r3, [r7, #2]
 8001556:	60fb      	str	r3, [r7, #12]
	GPIO_InitStruct.Mode = GPIO_MODE_OUTPUT_PP;
 8001558:	2301      	movs	r3, #1
 800155a:	613b      	str	r3, [r7, #16]
	GPIO_InitStruct.Speed = GPIO_SPEED_FREQ_LOW;
 800155c:	2300      	movs	r3, #0
 800155e:	61bb      	str	r3, [r7, #24]
	HAL_GPIO_Init(GPIOx, &GPIO_InitStruct);
 8001560:	f107 030c 	add.w	r3, r7, #12
 8001564:	4619      	mov	r1, r3
 8001566:	6878      	ldr	r0, [r7, #4]
 8001568:	f000 fe0c 	bl	8002184 <HAL_GPIO_Init>
}
 800156c:	bf00      	nop
 800156e:	3720      	adds	r7, #32
 8001570:	46bd      	mov	sp, r7
 8001572:	bd80      	pop	{r7, pc}

08001574 <Set_Pin_Input>:

void Set_Pin_Input (GPIO_TypeDef *GPIOx, uint16_t GPIO_Pin)
{
 8001574:	b580      	push	{r7, lr}
 8001576:	b088      	sub	sp, #32
 8001578:	af00      	add	r7, sp, #0
 800157a:	6078      	str	r0, [r7, #4]
 800157c:	460b      	mov	r3, r1
 800157e:	807b      	strh	r3, [r7, #2]
	GPIO_InitTypeDef GPIO_InitStruct = {0};
 8001580:	f107 030c 	add.w	r3, r7, #12
 8001584:	2200      	movs	r2, #0
 8001586:	601a      	str	r2, [r3, #0]
 8001588:	605a      	str	r2, [r3, #4]
 800158a:	609a      	str	r2, [r3, #8]
 800158c:	60da      	str	r2, [r3, #12]
 800158e:	611a      	str	r2, [r3, #16]
	GPIO_InitStruct.Pin = GPIO_Pin;
 8001590:	887b      	ldrh	r3, [r7, #2]
 8001592:	60fb      	str	r3, [r7, #12]
	GPIO_InitStruct.Mode = GPIO_MODE_INPUT;
 8001594:	2300      	movs	r3, #0
 8001596:	613b      	str	r3, [r7, #16]
	GPIO_InitStruct.Pull = GPIO_PULLUP;
 8001598:	2301      	movs	r3, #1
 800159a:	617b      	str	r3, [r7, #20]
	HAL_GPIO_Init(GPIOx, &GPIO_InitStruct);
 800159c:	f107 030c 	add.w	r3, r7, #12
 80015a0:	4619      	mov	r1, r3
 80015a2:	6878      	ldr	r0, [r7, #4]
 80015a4:	f000 fdee 	bl	8002184 <HAL_GPIO_Init>
}
 80015a8:	bf00      	nop
 80015aa:	3720      	adds	r7, #32
 80015ac:	46bd      	mov	sp, r7
 80015ae:	bd80      	pop	{r7, pc}

080015b0 <DS18B20_Start>:

uint8_t DS18B20_Start (void)
{
 80015b0:	b580      	push	{r7, lr}
 80015b2:	b082      	sub	sp, #8
 80015b4:	af00      	add	r7, sp, #0
	uint8_t Response = 0;
 80015b6:	2300      	movs	r3, #0
 80015b8:	71fb      	strb	r3, [r7, #7]
	Set_Pin_Output(DS18B20_PORT, DS18B20_PIN);   // set the pin as output
 80015ba:	f44f 6180 	mov.w	r1, #1024	; 0x400
 80015be:	4815      	ldr	r0, [pc, #84]	; (8001614 <DS18B20_Start+0x64>)
 80015c0:	f7ff ffba 	bl	8001538 <Set_Pin_Output>
	HAL_GPIO_WritePin (DS18B20_PORT, DS18B20_PIN, 0);  // pull the pin low
 80015c4:	2200      	movs	r2, #0
 80015c6:	f44f 6180 	mov.w	r1, #1024	; 0x400
 80015ca:	4812      	ldr	r0, [pc, #72]	; (8001614 <DS18B20_Start+0x64>)
 80015cc:	f000 ff51 	bl	8002472 <HAL_GPIO_WritePin>
	delay_us (480);   // delay according to datasheet
 80015d0:	f44f 70f0 	mov.w	r0, #480	; 0x1e0
 80015d4:	f7ff ff60 	bl	8001498 <delay_us>

	Set_Pin_Input(DS18B20_PORT, DS18B20_PIN);    // set the pin as input
 80015d8:	f44f 6180 	mov.w	r1, #1024	; 0x400
 80015dc:	480d      	ldr	r0, [pc, #52]	; (8001614 <DS18B20_Start+0x64>)
 80015de:	f7ff ffc9 	bl	8001574 <Set_Pin_Input>
	delay_us (80);    // delay according to datasheet
 80015e2:	2050      	movs	r0, #80	; 0x50
 80015e4:	f7ff ff58 	bl	8001498 <delay_us>

	if (!(HAL_GPIO_ReadPin (DS18B20_PORT, DS18B20_PIN))) Response = 1;    // if the pin is low i.e the presence pulse is detected
 80015e8:	f44f 6180 	mov.w	r1, #1024	; 0x400
 80015ec:	4809      	ldr	r0, [pc, #36]	; (8001614 <DS18B20_Start+0x64>)
 80015ee:	f000 ff29 	bl	8002444 <HAL_GPIO_ReadPin>
 80015f2:	4603      	mov	r3, r0
 80015f4:	2b00      	cmp	r3, #0
 80015f6:	d102      	bne.n	80015fe <DS18B20_Start+0x4e>
 80015f8:	2301      	movs	r3, #1
 80015fa:	71fb      	strb	r3, [r7, #7]
 80015fc:	e001      	b.n	8001602 <DS18B20_Start+0x52>
	else Response = -1;
 80015fe:	23ff      	movs	r3, #255	; 0xff
 8001600:	71fb      	strb	r3, [r7, #7]

	delay_us (400); // 480 us delay totally.
 8001602:	f44f 70c8 	mov.w	r0, #400	; 0x190
 8001606:	f7ff ff47 	bl	8001498 <delay_us>

	return Response;
 800160a:	79fb      	ldrb	r3, [r7, #7]
}
 800160c:	4618      	mov	r0, r3
 800160e:	3708      	adds	r7, #8
 8001610:	46bd      	mov	sp, r7
 8001612:	bd80      	pop	{r7, pc}
 8001614:	48000400 	.word	0x48000400

08001618 <DS18B20_Write>:

void DS18B20_Write (uint8_t data)
{
 8001618:	b580      	push	{r7, lr}
 800161a:	b084      	sub	sp, #16
 800161c:	af00      	add	r7, sp, #0
 800161e:	4603      	mov	r3, r0
 8001620:	71fb      	strb	r3, [r7, #7]
	Set_Pin_Output(DS18B20_PORT, DS18B20_PIN);  // set as output
 8001622:	f44f 6180 	mov.w	r1, #1024	; 0x400
 8001626:	4821      	ldr	r0, [pc, #132]	; (80016ac <DS18B20_Write+0x94>)
 8001628:	f7ff ff86 	bl	8001538 <Set_Pin_Output>

	for (int i=0; i<8; i++)
 800162c:	2300      	movs	r3, #0
 800162e:	60fb      	str	r3, [r7, #12]
 8001630:	e034      	b.n	800169c <DS18B20_Write+0x84>
	{

		if ((data & (1<<i))!=0)  // if the bit is high
 8001632:	79fa      	ldrb	r2, [r7, #7]
 8001634:	68fb      	ldr	r3, [r7, #12]
 8001636:	fa42 f303 	asr.w	r3, r2, r3
 800163a:	f003 0301 	and.w	r3, r3, #1
 800163e:	2b00      	cmp	r3, #0
 8001640:	d016      	beq.n	8001670 <DS18B20_Write+0x58>
		{
			// write 1

			Set_Pin_Output(DS18B20_PORT, DS18B20_PIN);  // set as output
 8001642:	f44f 6180 	mov.w	r1, #1024	; 0x400
 8001646:	4819      	ldr	r0, [pc, #100]	; (80016ac <DS18B20_Write+0x94>)
 8001648:	f7ff ff76 	bl	8001538 <Set_Pin_Output>
			HAL_GPIO_WritePin (DS18B20_PORT, DS18B20_PIN, 0);  // pull the pin LOW
 800164c:	2200      	movs	r2, #0
 800164e:	f44f 6180 	mov.w	r1, #1024	; 0x400
 8001652:	4816      	ldr	r0, [pc, #88]	; (80016ac <DS18B20_Write+0x94>)
 8001654:	f000 ff0d 	bl	8002472 <HAL_GPIO_WritePin>
			delay_us (1);  // wait for 1 us
 8001658:	2001      	movs	r0, #1
 800165a:	f7ff ff1d 	bl	8001498 <delay_us>

			Set_Pin_Input(DS18B20_PORT, DS18B20_PIN);  // set as input
 800165e:	f44f 6180 	mov.w	r1, #1024	; 0x400
 8001662:	4812      	ldr	r0, [pc, #72]	; (80016ac <DS18B20_Write+0x94>)
 8001664:	f7ff ff86 	bl	8001574 <Set_Pin_Input>
			delay_us (50);  // wait for 60 us
 8001668:	2032      	movs	r0, #50	; 0x32
 800166a:	f7ff ff15 	bl	8001498 <delay_us>
 800166e:	e012      	b.n	8001696 <DS18B20_Write+0x7e>

		else  // if the bit is low
		{
			// write 0

			Set_Pin_Output(DS18B20_PORT, DS18B20_PIN);
 8001670:	f44f 6180 	mov.w	r1, #1024	; 0x400
 8001674:	480d      	ldr	r0, [pc, #52]	; (80016ac <DS18B20_Write+0x94>)
 8001676:	f7ff ff5f 	bl	8001538 <Set_Pin_Output>
			HAL_GPIO_WritePin (DS18B20_PORT, DS18B20_PIN, 0);  // pull the pin LOW
 800167a:	2200      	movs	r2, #0
 800167c:	f44f 6180 	mov.w	r1, #1024	; 0x400
 8001680:	480a      	ldr	r0, [pc, #40]	; (80016ac <DS18B20_Write+0x94>)
 8001682:	f000 fef6 	bl	8002472 <HAL_GPIO_WritePin>
			delay_us (50);  // wait for 60 us
 8001686:	2032      	movs	r0, #50	; 0x32
 8001688:	f7ff ff06 	bl	8001498 <delay_us>

			Set_Pin_Input(DS18B20_PORT, DS18B20_PIN);
 800168c:	f44f 6180 	mov.w	r1, #1024	; 0x400
 8001690:	4806      	ldr	r0, [pc, #24]	; (80016ac <DS18B20_Write+0x94>)
 8001692:	f7ff ff6f 	bl	8001574 <Set_Pin_Input>
	for (int i=0; i<8; i++)
 8001696:	68fb      	ldr	r3, [r7, #12]
 8001698:	3301      	adds	r3, #1
 800169a:	60fb      	str	r3, [r7, #12]
 800169c:	68fb      	ldr	r3, [r7, #12]
 800169e:	2b07      	cmp	r3, #7
 80016a0:	ddc7      	ble.n	8001632 <DS18B20_Write+0x1a>
		}
	}
}
 80016a2:	bf00      	nop
 80016a4:	bf00      	nop
 80016a6:	3710      	adds	r7, #16
 80016a8:	46bd      	mov	sp, r7
 80016aa:	bd80      	pop	{r7, pc}
 80016ac:	48000400 	.word	0x48000400

080016b0 <DS18B20_Read>:

uint8_t DS18B20_Read (void)
{
 80016b0:	b580      	push	{r7, lr}
 80016b2:	b082      	sub	sp, #8
 80016b4:	af00      	add	r7, sp, #0
	uint8_t value=0;
 80016b6:	2300      	movs	r3, #0
 80016b8:	71fb      	strb	r3, [r7, #7]

	Set_Pin_Input(DS18B20_PORT, DS18B20_PIN);
 80016ba:	f44f 6180 	mov.w	r1, #1024	; 0x400
 80016be:	481c      	ldr	r0, [pc, #112]	; (8001730 <DS18B20_Read+0x80>)
 80016c0:	f7ff ff58 	bl	8001574 <Set_Pin_Input>

	for (int i=0;i<8;i++)
 80016c4:	2300      	movs	r3, #0
 80016c6:	603b      	str	r3, [r7, #0]
 80016c8:	e02a      	b.n	8001720 <DS18B20_Read+0x70>
	{
		Set_Pin_Output(DS18B20_PORT, DS18B20_PIN);   // set as output
 80016ca:	f44f 6180 	mov.w	r1, #1024	; 0x400
 80016ce:	4818      	ldr	r0, [pc, #96]	; (8001730 <DS18B20_Read+0x80>)
 80016d0:	f7ff ff32 	bl	8001538 <Set_Pin_Output>

		HAL_GPIO_WritePin (DS18B20_PORT, DS18B20_PIN, 0);  // pull the data pin LOW
 80016d4:	2200      	movs	r2, #0
 80016d6:	f44f 6180 	mov.w	r1, #1024	; 0x400
 80016da:	4815      	ldr	r0, [pc, #84]	; (8001730 <DS18B20_Read+0x80>)
 80016dc:	f000 fec9 	bl	8002472 <HAL_GPIO_WritePin>
		delay_us (1);  // wait for > 1us
 80016e0:	2001      	movs	r0, #1
 80016e2:	f7ff fed9 	bl	8001498 <delay_us>

		Set_Pin_Input(DS18B20_PORT, DS18B20_PIN);  // set as input
 80016e6:	f44f 6180 	mov.w	r1, #1024	; 0x400
 80016ea:	4811      	ldr	r0, [pc, #68]	; (8001730 <DS18B20_Read+0x80>)
 80016ec:	f7ff ff42 	bl	8001574 <Set_Pin_Input>
		if (HAL_GPIO_ReadPin (DS18B20_PORT, DS18B20_PIN))  // if the pin is HIGH
 80016f0:	f44f 6180 	mov.w	r1, #1024	; 0x400
 80016f4:	480e      	ldr	r0, [pc, #56]	; (8001730 <DS18B20_Read+0x80>)
 80016f6:	f000 fea5 	bl	8002444 <HAL_GPIO_ReadPin>
 80016fa:	4603      	mov	r3, r0
 80016fc:	2b00      	cmp	r3, #0
 80016fe:	d009      	beq.n	8001714 <DS18B20_Read+0x64>
		{
			value |= 1<<i;  // read = 1
 8001700:	2201      	movs	r2, #1
 8001702:	683b      	ldr	r3, [r7, #0]
 8001704:	fa02 f303 	lsl.w	r3, r2, r3
 8001708:	b25a      	sxtb	r2, r3
 800170a:	f997 3007 	ldrsb.w	r3, [r7, #7]
 800170e:	4313      	orrs	r3, r2
 8001710:	b25b      	sxtb	r3, r3
 8001712:	71fb      	strb	r3, [r7, #7]
		}
		delay_us (50);  // wait for 60 us
 8001714:	2032      	movs	r0, #50	; 0x32
 8001716:	f7ff febf 	bl	8001498 <delay_us>
	for (int i=0;i<8;i++)
 800171a:	683b      	ldr	r3, [r7, #0]
 800171c:	3301      	adds	r3, #1
 800171e:	603b      	str	r3, [r7, #0]
 8001720:	683b      	ldr	r3, [r7, #0]
 8001722:	2b07      	cmp	r3, #7
 8001724:	ddd1      	ble.n	80016ca <DS18B20_Read+0x1a>
	}
	return value;
 8001726:	79fb      	ldrb	r3, [r7, #7]
}
 8001728:	4618      	mov	r0, r3
 800172a:	3708      	adds	r7, #8
 800172c:	46bd      	mov	sp, r7
 800172e:	bd80      	pop	{r7, pc}
 8001730:	48000400 	.word	0x48000400

08001734 <AllumeDiode>:

void AllumeDiode (int time){
 8001734:	b580      	push	{r7, lr}
 8001736:	b082      	sub	sp, #8
 8001738:	af00      	add	r7, sp, #0
 800173a:	6078      	str	r0, [r7, #4]
	HAL_GPIO_WritePin(GPIOA, GPIO_PIN_9, GPIO_PIN_SET);
 800173c:	2201      	movs	r2, #1
 800173e:	f44f 7100 	mov.w	r1, #512	; 0x200
 8001742:	f04f 4090 	mov.w	r0, #1207959552	; 0x48000000
 8001746:	f000 fe94 	bl	8002472 <HAL_GPIO_WritePin>
	HAL_Delay(time);
 800174a:	687b      	ldr	r3, [r7, #4]
 800174c:	4618      	mov	r0, r3
 800174e:	f000 fc13 	bl	8001f78 <HAL_Delay>
	HAL_GPIO_WritePin(GPIOA, GPIO_PIN_9, GPIO_PIN_RESET);
 8001752:	2200      	movs	r2, #0
 8001754:	f44f 7100 	mov.w	r1, #512	; 0x200
 8001758:	f04f 4090 	mov.w	r0, #1207959552	; 0x48000000
 800175c:	f000 fe89 	bl	8002472 <HAL_GPIO_WritePin>
	HAL_Delay(time);
 8001760:	687b      	ldr	r3, [r7, #4]
 8001762:	4618      	mov	r0, r3
 8001764:	f000 fc08 	bl	8001f78 <HAL_Delay>
}
 8001768:	bf00      	nop
 800176a:	3708      	adds	r7, #8
 800176c:	46bd      	mov	sp, r7
 800176e:	bd80      	pop	{r7, pc}

08001770 <initTemp>:

uint8_t Temp_byte1, Temp_byte2;
float Temperature = 0;
uint8_t Presence;

void initTemp(){
 8001770:	b580      	push	{r7, lr}
 8001772:	af00      	add	r7, sp, #0

	Temperature = 0;
 8001774:	4b2b      	ldr	r3, [pc, #172]	; (8001824 <initTemp+0xb4>)
 8001776:	f04f 0200 	mov.w	r2, #0
 800177a:	601a      	str	r2, [r3, #0]

	delay_us(500);
 800177c:	f44f 70fa 	mov.w	r0, #500	; 0x1f4
 8001780:	f7ff fe8a 	bl	8001498 <delay_us>
	Presence = DS18B20_Start();
 8001784:	f7ff ff14 	bl	80015b0 <DS18B20_Start>
 8001788:	4603      	mov	r3, r0
 800178a:	461a      	mov	r2, r3
 800178c:	4b26      	ldr	r3, [pc, #152]	; (8001828 <initTemp+0xb8>)
 800178e:	701a      	strb	r2, [r3, #0]
	HAL_Delay (1);
 8001790:	2001      	movs	r0, #1
 8001792:	f000 fbf1 	bl	8001f78 <HAL_Delay>
	DS18B20_Write (0xCC);  // skip ROM
 8001796:	20cc      	movs	r0, #204	; 0xcc
 8001798:	f7ff ff3e 	bl	8001618 <DS18B20_Write>
	DS18B20_Write (0x44);  // convert t
 800179c:	2044      	movs	r0, #68	; 0x44
 800179e:	f7ff ff3b 	bl	8001618 <DS18B20_Write>
	HAL_Delay (800);
 80017a2:	f44f 7048 	mov.w	r0, #800	; 0x320
 80017a6:	f000 fbe7 	bl	8001f78 <HAL_Delay>

	Presence = DS18B20_Start ();
 80017aa:	f7ff ff01 	bl	80015b0 <DS18B20_Start>
 80017ae:	4603      	mov	r3, r0
 80017b0:	461a      	mov	r2, r3
 80017b2:	4b1d      	ldr	r3, [pc, #116]	; (8001828 <initTemp+0xb8>)
 80017b4:	701a      	strb	r2, [r3, #0]
	HAL_Delay(1);
 80017b6:	2001      	movs	r0, #1
 80017b8:	f000 fbde 	bl	8001f78 <HAL_Delay>
	DS18B20_Write (0xCC);  // skip ROM
 80017bc:	20cc      	movs	r0, #204	; 0xcc
 80017be:	f7ff ff2b 	bl	8001618 <DS18B20_Write>
	DS18B20_Write (0xBE);  // Read Scratch-pad
 80017c2:	20be      	movs	r0, #190	; 0xbe
 80017c4:	f7ff ff28 	bl	8001618 <DS18B20_Write>

	Temp_byte1 = DS18B20_Read();
 80017c8:	f7ff ff72 	bl	80016b0 <DS18B20_Read>
 80017cc:	4603      	mov	r3, r0
 80017ce:	461a      	mov	r2, r3
 80017d0:	4b16      	ldr	r3, [pc, #88]	; (800182c <initTemp+0xbc>)
 80017d2:	701a      	strb	r2, [r3, #0]
	Temp_byte2 = DS18B20_Read();
 80017d4:	f7ff ff6c 	bl	80016b0 <DS18B20_Read>
 80017d8:	4603      	mov	r3, r0
 80017da:	461a      	mov	r2, r3
 80017dc:	4b14      	ldr	r3, [pc, #80]	; (8001830 <initTemp+0xc0>)
 80017de:	701a      	strb	r2, [r3, #0]
	TEMP = (Temp_byte2<<8)|Temp_byte1;
 80017e0:	4b13      	ldr	r3, [pc, #76]	; (8001830 <initTemp+0xc0>)
 80017e2:	781b      	ldrb	r3, [r3, #0]
 80017e4:	021b      	lsls	r3, r3, #8
 80017e6:	b21a      	sxth	r2, r3
 80017e8:	4b10      	ldr	r3, [pc, #64]	; (800182c <initTemp+0xbc>)
 80017ea:	781b      	ldrb	r3, [r3, #0]
 80017ec:	b21b      	sxth	r3, r3
 80017ee:	4313      	orrs	r3, r2
 80017f0:	b21b      	sxth	r3, r3
 80017f2:	b29a      	uxth	r2, r3
 80017f4:	4b0f      	ldr	r3, [pc, #60]	; (8001834 <initTemp+0xc4>)
 80017f6:	801a      	strh	r2, [r3, #0]
	Temperature = (float)TEMP/16;
 80017f8:	4b0e      	ldr	r3, [pc, #56]	; (8001834 <initTemp+0xc4>)
 80017fa:	881b      	ldrh	r3, [r3, #0]
 80017fc:	4618      	mov	r0, r3
 80017fe:	f7ff fad1 	bl	8000da4 <__aeabi_ui2f>
 8001802:	4603      	mov	r3, r0
 8001804:	f04f 4183 	mov.w	r1, #1098907648	; 0x41800000
 8001808:	4618      	mov	r0, r3
 800180a:	f7ff fbd7 	bl	8000fbc <__aeabi_fdiv>
 800180e:	4603      	mov	r3, r0
 8001810:	461a      	mov	r2, r3
 8001812:	4b04      	ldr	r3, [pc, #16]	; (8001824 <initTemp+0xb4>)
 8001814:	601a      	str	r2, [r3, #0]

	HAL_Delay (1000);
 8001816:	f44f 707a 	mov.w	r0, #1000	; 0x3e8
 800181a:	f000 fbad 	bl	8001f78 <HAL_Delay>
}
 800181e:	bf00      	nop
 8001820:	bd80      	pop	{r7, pc}
 8001822:	bf00      	nop
 8001824:	200002e0 	.word	0x200002e0
 8001828:	200002e4 	.word	0x200002e4
 800182c:	200002de 	.word	0x200002de
 8001830:	200002df 	.word	0x200002df
 8001834:	200002dc 	.word	0x200002dc

08001838 <_write>:

// Send printf to uart1
int _write(int fd, char* ptr, int len) {
 8001838:	b580      	push	{r7, lr}
 800183a:	b086      	sub	sp, #24
 800183c:	af00      	add	r7, sp, #0
 800183e:	60f8      	str	r0, [r7, #12]
 8001840:	60b9      	str	r1, [r7, #8]
 8001842:	607a      	str	r2, [r7, #4]
   HAL_StatusTypeDef hstatus;

   if (fd == 1 || fd == 2) {
 8001844:	68fb      	ldr	r3, [r7, #12]
 8001846:	2b01      	cmp	r3, #1
 8001848:	d002      	beq.n	8001850 <_write+0x18>
 800184a:	68fb      	ldr	r3, [r7, #12]
 800184c:	2b02      	cmp	r3, #2
 800184e:	d111      	bne.n	8001874 <_write+0x3c>
     hstatus = HAL_UART_Transmit(&huart1, (uint8_t *) ptr, len,
 8001850:	687b      	ldr	r3, [r7, #4]
 8001852:	b29a      	uxth	r2, r3
 8001854:	f04f 33ff 	mov.w	r3, #4294967295	; 0xffffffff
 8001858:	68b9      	ldr	r1, [r7, #8]
 800185a:	4809      	ldr	r0, [pc, #36]	; (8001880 <_write+0x48>)
 800185c:	f002 fbf1 	bl	8004042 <HAL_UART_Transmit>
 8001860:	4603      	mov	r3, r0
 8001862:	75fb      	strb	r3, [r7, #23]
HAL_MAX_DELAY);
     if (hstatus == HAL_OK)
 8001864:	7dfb      	ldrb	r3, [r7, #23]
 8001866:	2b00      	cmp	r3, #0
 8001868:	d101      	bne.n	800186e <_write+0x36>
       return len;
 800186a:	687b      	ldr	r3, [r7, #4]
 800186c:	e004      	b.n	8001878 <_write+0x40>
     else
       return -1;
 800186e:	f04f 33ff 	mov.w	r3, #4294967295	; 0xffffffff
 8001872:	e001      	b.n	8001878 <_write+0x40>
   }
   return -1;
 8001874:	f04f 33ff 	mov.w	r3, #4294967295	; 0xffffffff
}
 8001878:	4618      	mov	r0, r3
 800187a:	3718      	adds	r7, #24
 800187c:	46bd      	mov	sp, r7
 800187e:	bd80      	pop	{r7, pc}
 8001880:	20000248 	.word	0x20000248

08001884 <main>:
/**
  * @brief  The application entry point.
  * @retval int
  */
int main(void)
{
 8001884:	b580      	push	{r7, lr}
 8001886:	af00      	add	r7, sp, #0
  /* USER CODE END 1 */

  /* MCU Configuration--------------------------------------------------------*/

  /* Reset of all peripherals, Initializes the Flash interface and the Systick. */
  HAL_Init();
 8001888:	f000 fb00 	bl	8001e8c <HAL_Init>
  /* USER CODE BEGIN Init */

  /* USER CODE END Init */

  /* Configure the system clock */
  SystemClock_Config();
 800188c:	f000 f820 	bl	80018d0 <SystemClock_Config>
  /* USER CODE BEGIN SysInit */

  /* USER CODE END SysInit */

  /* Initialize all configured peripherals */
  MX_GPIO_Init();
 8001890:	f000 f90a 	bl	8001aa8 <MX_GPIO_Init>
  MX_TIM2_Init();
 8001894:	f000 f86e 	bl	8001974 <MX_TIM2_Init>
  MX_USART1_UART_Init();
 8001898:	f000 f8ba 	bl	8001a10 <MX_USART1_UART_Init>
  while (1)
       {
    /* USER CODE END WHILE */

    /* USER CODE BEGIN 3 */
	  initTemp();
 800189c:	f7ff ff68 	bl	8001770 <initTemp>
	  printf("\n\r Temperature : ");
 80018a0:	4808      	ldr	r0, [pc, #32]	; (80018c4 <main+0x40>)
 80018a2:	f004 f81b 	bl	80058dc <iprintf>
	  printf("%.2f", Temperature);
 80018a6:	4b08      	ldr	r3, [pc, #32]	; (80018c8 <main+0x44>)
 80018a8:	681b      	ldr	r3, [r3, #0]
 80018aa:	4618      	mov	r0, r3
 80018ac:	f7fe fe24 	bl	80004f8 <__aeabi_f2d>
 80018b0:	4602      	mov	r2, r0
 80018b2:	460b      	mov	r3, r1
 80018b4:	4805      	ldr	r0, [pc, #20]	; (80018cc <main+0x48>)
 80018b6:	f004 f811 	bl	80058dc <iprintf>
	  AllumeDiode(1000);
 80018ba:	f44f 707a 	mov.w	r0, #1000	; 0x3e8
 80018be:	f7ff ff39 	bl	8001734 <AllumeDiode>
	  initTemp();
 80018c2:	e7eb      	b.n	800189c <main+0x18>
 80018c4:	08009480 	.word	0x08009480
 80018c8:	200002e0 	.word	0x200002e0
 80018cc:	08009494 	.word	0x08009494

080018d0 <SystemClock_Config>:
/**
  * @brief System Clock Configuration
  * @retval None
  */
void SystemClock_Config(void)
{
 80018d0:	b580      	push	{r7, lr}
 80018d2:	b09a      	sub	sp, #104	; 0x68
 80018d4:	af00      	add	r7, sp, #0
  RCC_OscInitTypeDef RCC_OscInitStruct = {0};
 80018d6:	f107 0320 	add.w	r3, r7, #32
 80018da:	2248      	movs	r2, #72	; 0x48
 80018dc:	2100      	movs	r1, #0
 80018de:	4618      	mov	r0, r3
 80018e0:	f003 f98c 	bl	8004bfc <memset>
  RCC_ClkInitTypeDef RCC_ClkInitStruct = {0};
 80018e4:	f107 0308 	add.w	r3, r7, #8
 80018e8:	2200      	movs	r2, #0
 80018ea:	601a      	str	r2, [r3, #0]
 80018ec:	605a      	str	r2, [r3, #4]
 80018ee:	609a      	str	r2, [r3, #8]
 80018f0:	60da      	str	r2, [r3, #12]
 80018f2:	611a      	str	r2, [r3, #16]
 80018f4:	615a      	str	r2, [r3, #20]

  /** Configure the main internal regulator output voltage
  */
  __HAL_PWR_VOLTAGESCALING_CONFIG(PWR_REGULATOR_VOLTAGE_SCALE2);
 80018f6:	4b1e      	ldr	r3, [pc, #120]	; (8001970 <SystemClock_Config+0xa0>)
 80018f8:	681b      	ldr	r3, [r3, #0]
 80018fa:	f423 63c0 	bic.w	r3, r3, #1536	; 0x600
 80018fe:	4a1c      	ldr	r2, [pc, #112]	; (8001970 <SystemClock_Config+0xa0>)
 8001900:	f443 6380 	orr.w	r3, r3, #1024	; 0x400
 8001904:	6013      	str	r3, [r2, #0]
 8001906:	4b1a      	ldr	r3, [pc, #104]	; (8001970 <SystemClock_Config+0xa0>)
 8001908:	681b      	ldr	r3, [r3, #0]
 800190a:	f403 63c0 	and.w	r3, r3, #1536	; 0x600
 800190e:	607b      	str	r3, [r7, #4]
 8001910:	687b      	ldr	r3, [r7, #4]

  /** Initializes the CPU, AHB and APB buses clocks
  */
  RCC_OscInitStruct.OscillatorType = RCC_OSCILLATORTYPE_MSI;
 8001912:	2320      	movs	r3, #32
 8001914:	623b      	str	r3, [r7, #32]
  RCC_OscInitStruct.MSIState = RCC_MSI_ON;
 8001916:	2301      	movs	r3, #1
 8001918:	643b      	str	r3, [r7, #64]	; 0x40
  RCC_OscInitStruct.MSICalibrationValue = RCC_MSICALIBRATION_DEFAULT;
 800191a:	2300      	movs	r3, #0
 800191c:	647b      	str	r3, [r7, #68]	; 0x44
  RCC_OscInitStruct.MSIClockRange = RCC_MSIRANGE_6;
 800191e:	2360      	movs	r3, #96	; 0x60
 8001920:	64bb      	str	r3, [r7, #72]	; 0x48
  RCC_OscInitStruct.PLL.PLLState = RCC_PLL_NONE;
 8001922:	2300      	movs	r3, #0
 8001924:	64fb      	str	r3, [r7, #76]	; 0x4c
  if (HAL_RCC_OscConfig(&RCC_OscInitStruct) != HAL_OK)
 8001926:	f107 0320 	add.w	r3, r7, #32
 800192a:	4618      	mov	r0, r3
 800192c:	f001 f862 	bl	80029f4 <HAL_RCC_OscConfig>
 8001930:	4603      	mov	r3, r0
 8001932:	2b00      	cmp	r3, #0
 8001934:	d001      	beq.n	800193a <SystemClock_Config+0x6a>
  {
    Error_Handler();
 8001936:	f000 f903 	bl	8001b40 <Error_Handler>
  }

  /** Configure the SYSCLKSource, HCLK, PCLK1 and PCLK2 clocks dividers
  */
  RCC_ClkInitStruct.ClockType = RCC_CLOCKTYPE_HCLK3|RCC_CLOCKTYPE_HCLK
 800193a:	234f      	movs	r3, #79	; 0x4f
 800193c:	60bb      	str	r3, [r7, #8]
                              |RCC_CLOCKTYPE_SYSCLK|RCC_CLOCKTYPE_PCLK1
                              |RCC_CLOCKTYPE_PCLK2;
  RCC_ClkInitStruct.SYSCLKSource = RCC_SYSCLKSOURCE_MSI;
 800193e:	2300      	movs	r3, #0
 8001940:	60fb      	str	r3, [r7, #12]
  RCC_ClkInitStruct.AHBCLKDivider = RCC_SYSCLK_DIV1;
 8001942:	2300      	movs	r3, #0
 8001944:	613b      	str	r3, [r7, #16]
  RCC_ClkInitStruct.APB1CLKDivider = RCC_HCLK_DIV1;
 8001946:	2300      	movs	r3, #0
 8001948:	617b      	str	r3, [r7, #20]
  RCC_ClkInitStruct.APB2CLKDivider = RCC_HCLK_DIV1;
 800194a:	2300      	movs	r3, #0
 800194c:	61bb      	str	r3, [r7, #24]
  RCC_ClkInitStruct.AHBCLK3Divider = RCC_SYSCLK_DIV1;
 800194e:	2300      	movs	r3, #0
 8001950:	61fb      	str	r3, [r7, #28]

  if (HAL_RCC_ClockConfig(&RCC_ClkInitStruct, FLASH_LATENCY_0) != HAL_OK)
 8001952:	f107 0308 	add.w	r3, r7, #8
 8001956:	2100      	movs	r1, #0
 8001958:	4618      	mov	r0, r3
 800195a:	f001 fbcd 	bl	80030f8 <HAL_RCC_ClockConfig>
 800195e:	4603      	mov	r3, r0
 8001960:	2b00      	cmp	r3, #0
 8001962:	d001      	beq.n	8001968 <SystemClock_Config+0x98>
  {
    Error_Handler();
 8001964:	f000 f8ec 	bl	8001b40 <Error_Handler>
  }
}
 8001968:	bf00      	nop
 800196a:	3768      	adds	r7, #104	; 0x68
 800196c:	46bd      	mov	sp, r7
 800196e:	bd80      	pop	{r7, pc}
 8001970:	58000400 	.word	0x58000400

08001974 <MX_TIM2_Init>:
  * @brief TIM2 Initialization Function
  * @param None
  * @retval None
  */
static void MX_TIM2_Init(void)
{
 8001974:	b580      	push	{r7, lr}
 8001976:	b088      	sub	sp, #32
 8001978:	af00      	add	r7, sp, #0

  /* USER CODE BEGIN TIM2_Init 0 */

  /* USER CODE END TIM2_Init 0 */

  TIM_ClockConfigTypeDef sClockSourceConfig = {0};
 800197a:	f107 0310 	add.w	r3, r7, #16
 800197e:	2200      	movs	r2, #0
 8001980:	601a      	str	r2, [r3, #0]
 8001982:	605a      	str	r2, [r3, #4]
 8001984:	609a      	str	r2, [r3, #8]
 8001986:	60da      	str	r2, [r3, #12]
  TIM_MasterConfigTypeDef sMasterConfig = {0};
 8001988:	1d3b      	adds	r3, r7, #4
 800198a:	2200      	movs	r2, #0
 800198c:	601a      	str	r2, [r3, #0]
 800198e:	605a      	str	r2, [r3, #4]
 8001990:	609a      	str	r2, [r3, #8]

  /* USER CODE BEGIN TIM2_Init 1 */

  /* USER CODE END TIM2_Init 1 */
  htim2.Instance = TIM2;
 8001992:	4b1e      	ldr	r3, [pc, #120]	; (8001a0c <MX_TIM2_Init+0x98>)
 8001994:	f04f 4280 	mov.w	r2, #1073741824	; 0x40000000
 8001998:	601a      	str	r2, [r3, #0]
  htim2.Init.Prescaler = 79;
 800199a:	4b1c      	ldr	r3, [pc, #112]	; (8001a0c <MX_TIM2_Init+0x98>)
 800199c:	224f      	movs	r2, #79	; 0x4f
 800199e:	605a      	str	r2, [r3, #4]
  htim2.Init.CounterMode = TIM_COUNTERMODE_UP;
 80019a0:	4b1a      	ldr	r3, [pc, #104]	; (8001a0c <MX_TIM2_Init+0x98>)
 80019a2:	2200      	movs	r2, #0
 80019a4:	609a      	str	r2, [r3, #8]
  htim2.Init.Period = 999;
 80019a6:	4b19      	ldr	r3, [pc, #100]	; (8001a0c <MX_TIM2_Init+0x98>)
 80019a8:	f240 32e7 	movw	r2, #999	; 0x3e7
 80019ac:	60da      	str	r2, [r3, #12]
  htim2.Init.ClockDivision = TIM_CLOCKDIVISION_DIV1;
 80019ae:	4b17      	ldr	r3, [pc, #92]	; (8001a0c <MX_TIM2_Init+0x98>)
 80019b0:	2200      	movs	r2, #0
 80019b2:	611a      	str	r2, [r3, #16]
  htim2.Init.AutoReloadPreload = TIM_AUTORELOAD_PRELOAD_DISABLE;
 80019b4:	4b15      	ldr	r3, [pc, #84]	; (8001a0c <MX_TIM2_Init+0x98>)
 80019b6:	2200      	movs	r2, #0
 80019b8:	619a      	str	r2, [r3, #24]
  if (HAL_TIM_Base_Init(&htim2) != HAL_OK)
 80019ba:	4814      	ldr	r0, [pc, #80]	; (8001a0c <MX_TIM2_Init+0x98>)
 80019bc:	f002 f858 	bl	8003a70 <HAL_TIM_Base_Init>
 80019c0:	4603      	mov	r3, r0
 80019c2:	2b00      	cmp	r3, #0
 80019c4:	d001      	beq.n	80019ca <MX_TIM2_Init+0x56>
  {
    Error_Handler();
 80019c6:	f000 f8bb 	bl	8001b40 <Error_Handler>
  }
  sClockSourceConfig.ClockSource = TIM_CLOCKSOURCE_INTERNAL;
 80019ca:	f44f 5380 	mov.w	r3, #4096	; 0x1000
 80019ce:	613b      	str	r3, [r7, #16]
  if (HAL_TIM_ConfigClockSource(&htim2, &sClockSourceConfig) != HAL_OK)
 80019d0:	f107 0310 	add.w	r3, r7, #16
 80019d4:	4619      	mov	r1, r3
 80019d6:	480d      	ldr	r0, [pc, #52]	; (8001a0c <MX_TIM2_Init+0x98>)
 80019d8:	f002 f8a1 	bl	8003b1e <HAL_TIM_ConfigClockSource>
 80019dc:	4603      	mov	r3, r0
 80019de:	2b00      	cmp	r3, #0
 80019e0:	d001      	beq.n	80019e6 <MX_TIM2_Init+0x72>
  {
    Error_Handler();
 80019e2:	f000 f8ad 	bl	8001b40 <Error_Handler>
  }
  sMasterConfig.MasterOutputTrigger = TIM_TRGO_RESET;
 80019e6:	2300      	movs	r3, #0
 80019e8:	607b      	str	r3, [r7, #4]
  sMasterConfig.MasterSlaveMode = TIM_MASTERSLAVEMODE_DISABLE;
 80019ea:	2300      	movs	r3, #0
 80019ec:	60fb      	str	r3, [r7, #12]
  if (HAL_TIMEx_MasterConfigSynchronization(&htim2, &sMasterConfig) != HAL_OK)
 80019ee:	1d3b      	adds	r3, r7, #4
 80019f0:	4619      	mov	r1, r3
 80019f2:	4806      	ldr	r0, [pc, #24]	; (8001a0c <MX_TIM2_Init+0x98>)
 80019f4:	f002 fa56 	bl	8003ea4 <HAL_TIMEx_MasterConfigSynchronization>
 80019f8:	4603      	mov	r3, r0
 80019fa:	2b00      	cmp	r3, #0
 80019fc:	d001      	beq.n	8001a02 <MX_TIM2_Init+0x8e>
  {
    Error_Handler();
 80019fe:	f000 f89f 	bl	8001b40 <Error_Handler>
  }
  /* USER CODE BEGIN TIM2_Init 2 */

  /* USER CODE END TIM2_Init 2 */

}
 8001a02:	bf00      	nop
 8001a04:	3720      	adds	r7, #32
 8001a06:	46bd      	mov	sp, r7
 8001a08:	bd80      	pop	{r7, pc}
 8001a0a:	bf00      	nop
 8001a0c:	200001fc 	.word	0x200001fc

08001a10 <MX_USART1_UART_Init>:
  * @brief USART1 Initialization Function
  * @param None
  * @retval None
  */
static void MX_USART1_UART_Init(void)
{
 8001a10:	b580      	push	{r7, lr}
 8001a12:	af00      	add	r7, sp, #0
  /* USER CODE END USART1_Init 0 */

  /* USER CODE BEGIN USART1_Init 1 */

  /* USER CODE END USART1_Init 1 */
  huart1.Instance = USART1;
 8001a14:	4b22      	ldr	r3, [pc, #136]	; (8001aa0 <MX_USART1_UART_Init+0x90>)
 8001a16:	4a23      	ldr	r2, [pc, #140]	; (8001aa4 <MX_USART1_UART_Init+0x94>)
 8001a18:	601a      	str	r2, [r3, #0]
  huart1.Init.BaudRate = 115200;
 8001a1a:	4b21      	ldr	r3, [pc, #132]	; (8001aa0 <MX_USART1_UART_Init+0x90>)
 8001a1c:	f44f 32e1 	mov.w	r2, #115200	; 0x1c200
 8001a20:	605a      	str	r2, [r3, #4]
  huart1.Init.WordLength = UART_WORDLENGTH_8B;
 8001a22:	4b1f      	ldr	r3, [pc, #124]	; (8001aa0 <MX_USART1_UART_Init+0x90>)
 8001a24:	2200      	movs	r2, #0
 8001a26:	609a      	str	r2, [r3, #8]
  huart1.Init.StopBits = UART_STOPBITS_1;
 8001a28:	4b1d      	ldr	r3, [pc, #116]	; (8001aa0 <MX_USART1_UART_Init+0x90>)
 8001a2a:	2200      	movs	r2, #0
 8001a2c:	60da      	str	r2, [r3, #12]
  huart1.Init.Parity = UART_PARITY_NONE;
 8001a2e:	4b1c      	ldr	r3, [pc, #112]	; (8001aa0 <MX_USART1_UART_Init+0x90>)
 8001a30:	2200      	movs	r2, #0
 8001a32:	611a      	str	r2, [r3, #16]
  huart1.Init.Mode = UART_MODE_TX_RX;
 8001a34:	4b1a      	ldr	r3, [pc, #104]	; (8001aa0 <MX_USART1_UART_Init+0x90>)
 8001a36:	220c      	movs	r2, #12
 8001a38:	615a      	str	r2, [r3, #20]
  huart1.Init.HwFlowCtl = UART_HWCONTROL_NONE;
 8001a3a:	4b19      	ldr	r3, [pc, #100]	; (8001aa0 <MX_USART1_UART_Init+0x90>)
 8001a3c:	2200      	movs	r2, #0
 8001a3e:	619a      	str	r2, [r3, #24]
  huart1.Init.OverSampling = UART_OVERSAMPLING_16;
 8001a40:	4b17      	ldr	r3, [pc, #92]	; (8001aa0 <MX_USART1_UART_Init+0x90>)
 8001a42:	2200      	movs	r2, #0
 8001a44:	61da      	str	r2, [r3, #28]
  huart1.Init.OneBitSampling = UART_ONE_BIT_SAMPLE_DISABLE;
 8001a46:	4b16      	ldr	r3, [pc, #88]	; (8001aa0 <MX_USART1_UART_Init+0x90>)
 8001a48:	2200      	movs	r2, #0
 8001a4a:	621a      	str	r2, [r3, #32]
  huart1.Init.ClockPrescaler = UART_PRESCALER_DIV1;
 8001a4c:	4b14      	ldr	r3, [pc, #80]	; (8001aa0 <MX_USART1_UART_Init+0x90>)
 8001a4e:	2200      	movs	r2, #0
 8001a50:	625a      	str	r2, [r3, #36]	; 0x24
  huart1.AdvancedInit.AdvFeatureInit = UART_ADVFEATURE_NO_INIT;
 8001a52:	4b13      	ldr	r3, [pc, #76]	; (8001aa0 <MX_USART1_UART_Init+0x90>)
 8001a54:	2200      	movs	r2, #0
 8001a56:	629a      	str	r2, [r3, #40]	; 0x28
  if (HAL_UART_Init(&huart1) != HAL_OK)
 8001a58:	4811      	ldr	r0, [pc, #68]	; (8001aa0 <MX_USART1_UART_Init+0x90>)
 8001a5a:	f002 faa2 	bl	8003fa2 <HAL_UART_Init>
 8001a5e:	4603      	mov	r3, r0
 8001a60:	2b00      	cmp	r3, #0
 8001a62:	d001      	beq.n	8001a68 <MX_USART1_UART_Init+0x58>
  {
    Error_Handler();
 8001a64:	f000 f86c 	bl	8001b40 <Error_Handler>
  }
  if (HAL_UARTEx_SetTxFifoThreshold(&huart1, UART_TXFIFO_THRESHOLD_1_8) != HAL_OK)
 8001a68:	2100      	movs	r1, #0
 8001a6a:	480d      	ldr	r0, [pc, #52]	; (8001aa0 <MX_USART1_UART_Init+0x90>)
 8001a6c:	f002 ffd3 	bl	8004a16 <HAL_UARTEx_SetTxFifoThreshold>
 8001a70:	4603      	mov	r3, r0
 8001a72:	2b00      	cmp	r3, #0
 8001a74:	d001      	beq.n	8001a7a <MX_USART1_UART_Init+0x6a>
  {
    Error_Handler();
 8001a76:	f000 f863 	bl	8001b40 <Error_Handler>
  }
  if (HAL_UARTEx_SetRxFifoThreshold(&huart1, UART_RXFIFO_THRESHOLD_1_8) != HAL_OK)
 8001a7a:	2100      	movs	r1, #0
 8001a7c:	4808      	ldr	r0, [pc, #32]	; (8001aa0 <MX_USART1_UART_Init+0x90>)
 8001a7e:	f003 f808 	bl	8004a92 <HAL_UARTEx_SetRxFifoThreshold>
 8001a82:	4603      	mov	r3, r0
 8001a84:	2b00      	cmp	r3, #0
 8001a86:	d001      	beq.n	8001a8c <MX_USART1_UART_Init+0x7c>
  {
    Error_Handler();
 8001a88:	f000 f85a 	bl	8001b40 <Error_Handler>
  }
  if (HAL_UARTEx_DisableFifoMode(&huart1) != HAL_OK)
 8001a8c:	4804      	ldr	r0, [pc, #16]	; (8001aa0 <MX_USART1_UART_Init+0x90>)
 8001a8e:	f002 ff8a 	bl	80049a6 <HAL_UARTEx_DisableFifoMode>
 8001a92:	4603      	mov	r3, r0
 8001a94:	2b00      	cmp	r3, #0
 8001a96:	d001      	beq.n	8001a9c <MX_USART1_UART_Init+0x8c>
  {
    Error_Handler();
 8001a98:	f000 f852 	bl	8001b40 <Error_Handler>
  }
  /* USER CODE BEGIN USART1_Init 2 */

  /* USER CODE END USART1_Init 2 */

}
 8001a9c:	bf00      	nop
 8001a9e:	bd80      	pop	{r7, pc}
 8001aa0:	20000248 	.word	0x20000248
 8001aa4:	40013800 	.word	0x40013800

08001aa8 <MX_GPIO_Init>:
  * @brief GPIO Initialization Function
  * @param None
  * @retval None
  */
static void MX_GPIO_Init(void)
{
 8001aa8:	b580      	push	{r7, lr}
 8001aaa:	b086      	sub	sp, #24
 8001aac:	af00      	add	r7, sp, #0
  GPIO_InitTypeDef GPIO_InitStruct = {0};
 8001aae:	1d3b      	adds	r3, r7, #4
 8001ab0:	2200      	movs	r2, #0
 8001ab2:	601a      	str	r2, [r3, #0]
 8001ab4:	605a      	str	r2, [r3, #4]
 8001ab6:	609a      	str	r2, [r3, #8]
 8001ab8:	60da      	str	r2, [r3, #12]
 8001aba:	611a      	str	r2, [r3, #16]

  /* GPIO Ports Clock Enable */
  __HAL_RCC_GPIOA_CLK_ENABLE();
 8001abc:	2001      	movs	r0, #1
 8001abe:	f7ff fcd3 	bl	8001468 <LL_AHB2_GRP1_EnableClock>
  __HAL_RCC_GPIOB_CLK_ENABLE();
 8001ac2:	2002      	movs	r0, #2
 8001ac4:	f7ff fcd0 	bl	8001468 <LL_AHB2_GRP1_EnableClock>

  /*Configure GPIO pin Output Level */
  HAL_GPIO_WritePin(GPIOA, GPIO_PIN_9, GPIO_PIN_RESET);
 8001ac8:	2200      	movs	r2, #0
 8001aca:	f44f 7100 	mov.w	r1, #512	; 0x200
 8001ace:	f04f 4090 	mov.w	r0, #1207959552	; 0x48000000
 8001ad2:	f000 fcce 	bl	8002472 <HAL_GPIO_WritePin>

  /*Configure GPIO pin Output Level */
  HAL_GPIO_WritePin(GPIOB, GPIO_PIN_10, GPIO_PIN_RESET);
 8001ad6:	2200      	movs	r2, #0
 8001ad8:	f44f 6180 	mov.w	r1, #1024	; 0x400
 8001adc:	4817      	ldr	r0, [pc, #92]	; (8001b3c <MX_GPIO_Init+0x94>)
 8001ade:	f000 fcc8 	bl	8002472 <HAL_GPIO_WritePin>

  /*Configure GPIO pin : PB4 */
  GPIO_InitStruct.Pin = GPIO_PIN_4;
 8001ae2:	2310      	movs	r3, #16
 8001ae4:	607b      	str	r3, [r7, #4]
  GPIO_InitStruct.Mode = GPIO_MODE_INPUT;
 8001ae6:	2300      	movs	r3, #0
 8001ae8:	60bb      	str	r3, [r7, #8]
  GPIO_InitStruct.Pull = GPIO_NOPULL;
 8001aea:	2300      	movs	r3, #0
 8001aec:	60fb      	str	r3, [r7, #12]
  HAL_GPIO_Init(GPIOB, &GPIO_InitStruct);
 8001aee:	1d3b      	adds	r3, r7, #4
 8001af0:	4619      	mov	r1, r3
 8001af2:	4812      	ldr	r0, [pc, #72]	; (8001b3c <MX_GPIO_Init+0x94>)
 8001af4:	f000 fb46 	bl	8002184 <HAL_GPIO_Init>

  /*Configure GPIO pin : PA9 */
  GPIO_InitStruct.Pin = GPIO_PIN_9;
 8001af8:	f44f 7300 	mov.w	r3, #512	; 0x200
 8001afc:	607b      	str	r3, [r7, #4]
  GPIO_InitStruct.Mode = GPIO_MODE_OUTPUT_PP;
 8001afe:	2301      	movs	r3, #1
 8001b00:	60bb      	str	r3, [r7, #8]
  GPIO_InitStruct.Pull = GPIO_NOPULL;
 8001b02:	2300      	movs	r3, #0
 8001b04:	60fb      	str	r3, [r7, #12]
  GPIO_InitStruct.Speed = GPIO_SPEED_FREQ_LOW;
 8001b06:	2300      	movs	r3, #0
 8001b08:	613b      	str	r3, [r7, #16]
  HAL_GPIO_Init(GPIOA, &GPIO_InitStruct);
 8001b0a:	1d3b      	adds	r3, r7, #4
 8001b0c:	4619      	mov	r1, r3
 8001b0e:	f04f 4090 	mov.w	r0, #1207959552	; 0x48000000
 8001b12:	f000 fb37 	bl	8002184 <HAL_GPIO_Init>

  /*Configure GPIO pin : PB10 */
  GPIO_InitStruct.Pin = GPIO_PIN_10;
 8001b16:	f44f 6380 	mov.w	r3, #1024	; 0x400
 8001b1a:	607b      	str	r3, [r7, #4]
  GPIO_InitStruct.Mode = GPIO_MODE_OUTPUT_PP;
 8001b1c:	2301      	movs	r3, #1
 8001b1e:	60bb      	str	r3, [r7, #8]
  GPIO_InitStruct.Pull = GPIO_PULLDOWN;
 8001b20:	2302      	movs	r3, #2
 8001b22:	60fb      	str	r3, [r7, #12]
  GPIO_InitStruct.Speed = GPIO_SPEED_FREQ_HIGH;
 8001b24:	2302      	movs	r3, #2
 8001b26:	613b      	str	r3, [r7, #16]
  HAL_GPIO_Init(GPIOB, &GPIO_InitStruct);
 8001b28:	1d3b      	adds	r3, r7, #4
 8001b2a:	4619      	mov	r1, r3
 8001b2c:	4803      	ldr	r0, [pc, #12]	; (8001b3c <MX_GPIO_Init+0x94>)
 8001b2e:	f000 fb29 	bl	8002184 <HAL_GPIO_Init>

}
 8001b32:	bf00      	nop
 8001b34:	3718      	adds	r7, #24
 8001b36:	46bd      	mov	sp, r7
 8001b38:	bd80      	pop	{r7, pc}
 8001b3a:	bf00      	nop
 8001b3c:	48000400 	.word	0x48000400

08001b40 <Error_Handler>:
/**
  * @brief  This function is executed in case of error occurrence.
  * @retval None
  */
void Error_Handler(void)
{
 8001b40:	b480      	push	{r7}
 8001b42:	af00      	add	r7, sp, #0
  \details Disables IRQ interrupts by setting the I-bit in the CPSR.
           Can only be executed in Privileged modes.
 */
__STATIC_FORCEINLINE void __disable_irq(void)
{
  __ASM volatile ("cpsid i" : : : "memory");
 8001b44:	b672      	cpsid	i
}
 8001b46:	bf00      	nop
  /* USER CODE BEGIN Error_Handler_Debug */
  /* User can add his own implementation to report the HAL error return state */
  __disable_irq();
  while (1)
 8001b48:	e7fe      	b.n	8001b48 <Error_Handler+0x8>

08001b4a <LL_AHB2_GRP1_EnableClock>:
{
 8001b4a:	b480      	push	{r7}
 8001b4c:	b085      	sub	sp, #20
 8001b4e:	af00      	add	r7, sp, #0
 8001b50:	6078      	str	r0, [r7, #4]
  SET_BIT(RCC->AHB2ENR, Periphs);
 8001b52:	f04f 43b0 	mov.w	r3, #1476395008	; 0x58000000
 8001b56:	6cda      	ldr	r2, [r3, #76]	; 0x4c
 8001b58:	f04f 41b0 	mov.w	r1, #1476395008	; 0x58000000
 8001b5c:	687b      	ldr	r3, [r7, #4]
 8001b5e:	4313      	orrs	r3, r2
 8001b60:	64cb      	str	r3, [r1, #76]	; 0x4c
  tmpreg = READ_BIT(RCC->AHB2ENR, Periphs);
 8001b62:	f04f 43b0 	mov.w	r3, #1476395008	; 0x58000000
 8001b66:	6cda      	ldr	r2, [r3, #76]	; 0x4c
 8001b68:	687b      	ldr	r3, [r7, #4]
 8001b6a:	4013      	ands	r3, r2
 8001b6c:	60fb      	str	r3, [r7, #12]
  (void)tmpreg;
 8001b6e:	68fb      	ldr	r3, [r7, #12]
}
 8001b70:	bf00      	nop
 8001b72:	3714      	adds	r7, #20
 8001b74:	46bd      	mov	sp, r7
 8001b76:	bc80      	pop	{r7}
 8001b78:	4770      	bx	lr

08001b7a <LL_APB1_GRP1_EnableClock>:
  *         @arg @ref LL_APB1_GRP1_PERIPH_DAC
  *         @arg @ref LL_APB1_GRP1_PERIPH_LPTIM1
  * @retval None
  */
__STATIC_INLINE void LL_APB1_GRP1_EnableClock(uint32_t Periphs)
{
 8001b7a:	b480      	push	{r7}
 8001b7c:	b085      	sub	sp, #20
 8001b7e:	af00      	add	r7, sp, #0
 8001b80:	6078      	str	r0, [r7, #4]
  __IO uint32_t tmpreg;
  SET_BIT(RCC->APB1ENR1, Periphs);
 8001b82:	f04f 43b0 	mov.w	r3, #1476395008	; 0x58000000
 8001b86:	6d9a      	ldr	r2, [r3, #88]	; 0x58
 8001b88:	f04f 41b0 	mov.w	r1, #1476395008	; 0x58000000
 8001b8c:	687b      	ldr	r3, [r7, #4]
 8001b8e:	4313      	orrs	r3, r2
 8001b90:	658b      	str	r3, [r1, #88]	; 0x58
  /* Delay after an RCC peripheral clock enabling */
  tmpreg = READ_BIT(RCC->APB1ENR1, Periphs);
 8001b92:	f04f 43b0 	mov.w	r3, #1476395008	; 0x58000000
 8001b96:	6d9a      	ldr	r2, [r3, #88]	; 0x58
 8001b98:	687b      	ldr	r3, [r7, #4]
 8001b9a:	4013      	ands	r3, r2
 8001b9c:	60fb      	str	r3, [r7, #12]
  (void)tmpreg;
 8001b9e:	68fb      	ldr	r3, [r7, #12]
}
 8001ba0:	bf00      	nop
 8001ba2:	3714      	adds	r7, #20
 8001ba4:	46bd      	mov	sp, r7
 8001ba6:	bc80      	pop	{r7}
 8001ba8:	4770      	bx	lr

08001baa <LL_APB2_GRP1_EnableClock>:
  *         @arg @ref LL_APB2_GRP1_PERIPH_TIM16
  *         @arg @ref LL_APB2_GRP1_PERIPH_TIM17
  * @retval None
  */
__STATIC_INLINE void LL_APB2_GRP1_EnableClock(uint32_t Periphs)
{
 8001baa:	b480      	push	{r7}
 8001bac:	b085      	sub	sp, #20
 8001bae:	af00      	add	r7, sp, #0
 8001bb0:	6078      	str	r0, [r7, #4]
  __IO uint32_t tmpreg;
  SET_BIT(RCC->APB2ENR, Periphs);
 8001bb2:	f04f 43b0 	mov.w	r3, #1476395008	; 0x58000000
 8001bb6:	6e1a      	ldr	r2, [r3, #96]	; 0x60
 8001bb8:	f04f 41b0 	mov.w	r1, #1476395008	; 0x58000000
 8001bbc:	687b      	ldr	r3, [r7, #4]
 8001bbe:	4313      	orrs	r3, r2
 8001bc0:	660b      	str	r3, [r1, #96]	; 0x60
  /* Delay after an RCC peripheral clock enabling */
  tmpreg = READ_BIT(RCC->APB2ENR, Periphs);
 8001bc2:	f04f 43b0 	mov.w	r3, #1476395008	; 0x58000000
 8001bc6:	6e1a      	ldr	r2, [r3, #96]	; 0x60
 8001bc8:	687b      	ldr	r3, [r7, #4]
 8001bca:	4013      	ands	r3, r2
 8001bcc:	60fb      	str	r3, [r7, #12]
  (void)tmpreg;
 8001bce:	68fb      	ldr	r3, [r7, #12]
}
 8001bd0:	bf00      	nop
 8001bd2:	3714      	adds	r7, #20
 8001bd4:	46bd      	mov	sp, r7
 8001bd6:	bc80      	pop	{r7}
 8001bd8:	4770      	bx	lr

08001bda <HAL_MspInit>:
/* USER CODE END 0 */
/**
  * Initializes the Global MSP.
  */
void HAL_MspInit(void)
{
 8001bda:	b480      	push	{r7}
 8001bdc:	af00      	add	r7, sp, #0
  /* System interrupt init*/

  /* USER CODE BEGIN MspInit 1 */

  /* USER CODE END MspInit 1 */
}
 8001bde:	bf00      	nop
 8001be0:	46bd      	mov	sp, r7
 8001be2:	bc80      	pop	{r7}
 8001be4:	4770      	bx	lr

08001be6 <HAL_TIM_Base_MspInit>:
* This function configures the hardware resources used in this example
* @param htim_base: TIM_Base handle pointer
* @retval None
*/
void HAL_TIM_Base_MspInit(TIM_HandleTypeDef* htim_base)
{
 8001be6:	b580      	push	{r7, lr}
 8001be8:	b082      	sub	sp, #8
 8001bea:	af00      	add	r7, sp, #0
 8001bec:	6078      	str	r0, [r7, #4]
  if(htim_base->Instance==TIM2)
 8001bee:	687b      	ldr	r3, [r7, #4]
 8001bf0:	681b      	ldr	r3, [r3, #0]
 8001bf2:	f1b3 4f80 	cmp.w	r3, #1073741824	; 0x40000000
 8001bf6:	d102      	bne.n	8001bfe <HAL_TIM_Base_MspInit+0x18>
  {
  /* USER CODE BEGIN TIM2_MspInit 0 */

  /* USER CODE END TIM2_MspInit 0 */
    /* Peripheral clock enable */
    __HAL_RCC_TIM2_CLK_ENABLE();
 8001bf8:	2001      	movs	r0, #1
 8001bfa:	f7ff ffbe 	bl	8001b7a <LL_APB1_GRP1_EnableClock>
  /* USER CODE BEGIN TIM2_MspInit 1 */

  /* USER CODE END TIM2_MspInit 1 */
  }

}
 8001bfe:	bf00      	nop
 8001c00:	3708      	adds	r7, #8
 8001c02:	46bd      	mov	sp, r7
 8001c04:	bd80      	pop	{r7, pc}
	...

08001c08 <HAL_UART_MspInit>:
* This function configures the hardware resources used in this example
* @param huart: UART handle pointer
* @retval None
*/
void HAL_UART_MspInit(UART_HandleTypeDef* huart)
{
 8001c08:	b580      	push	{r7, lr}
 8001c0a:	b096      	sub	sp, #88	; 0x58
 8001c0c:	af00      	add	r7, sp, #0
 8001c0e:	6078      	str	r0, [r7, #4]
  GPIO_InitTypeDef GPIO_InitStruct = {0};
 8001c10:	f107 0344 	add.w	r3, r7, #68	; 0x44
 8001c14:	2200      	movs	r2, #0
 8001c16:	601a      	str	r2, [r3, #0]
 8001c18:	605a      	str	r2, [r3, #4]
 8001c1a:	609a      	str	r2, [r3, #8]
 8001c1c:	60da      	str	r2, [r3, #12]
 8001c1e:	611a      	str	r2, [r3, #16]
  RCC_PeriphCLKInitTypeDef PeriphClkInitStruct = {0};
 8001c20:	f107 030c 	add.w	r3, r7, #12
 8001c24:	2238      	movs	r2, #56	; 0x38
 8001c26:	2100      	movs	r1, #0
 8001c28:	4618      	mov	r0, r3
 8001c2a:	f002 ffe7 	bl	8004bfc <memset>
  if(huart->Instance==USART1)
 8001c2e:	687b      	ldr	r3, [r7, #4]
 8001c30:	681b      	ldr	r3, [r3, #0]
 8001c32:	4a16      	ldr	r2, [pc, #88]	; (8001c8c <HAL_UART_MspInit+0x84>)
 8001c34:	4293      	cmp	r3, r2
 8001c36:	d125      	bne.n	8001c84 <HAL_UART_MspInit+0x7c>

  /* USER CODE END USART1_MspInit 0 */

  /** Initializes the peripherals clocks
  */
    PeriphClkInitStruct.PeriphClockSelection = RCC_PERIPHCLK_USART1;
 8001c38:	2301      	movs	r3, #1
 8001c3a:	60fb      	str	r3, [r7, #12]
    PeriphClkInitStruct.Usart1ClockSelection = RCC_USART1CLKSOURCE_PCLK2;
 8001c3c:	f44f 3340 	mov.w	r3, #196608	; 0x30000
 8001c40:	613b      	str	r3, [r7, #16]
    if (HAL_RCCEx_PeriphCLKConfig(&PeriphClkInitStruct) != HAL_OK)
 8001c42:	f107 030c 	add.w	r3, r7, #12
 8001c46:	4618      	mov	r0, r3
 8001c48:	f001 fdf8 	bl	800383c <HAL_RCCEx_PeriphCLKConfig>
 8001c4c:	4603      	mov	r3, r0
 8001c4e:	2b00      	cmp	r3, #0
 8001c50:	d001      	beq.n	8001c56 <HAL_UART_MspInit+0x4e>
    {
      Error_Handler();
 8001c52:	f7ff ff75 	bl	8001b40 <Error_Handler>
    }

    /* Peripheral clock enable */
    __HAL_RCC_USART1_CLK_ENABLE();
 8001c56:	f44f 4080 	mov.w	r0, #16384	; 0x4000
 8001c5a:	f7ff ffa6 	bl	8001baa <LL_APB2_GRP1_EnableClock>

    __HAL_RCC_GPIOB_CLK_ENABLE();
 8001c5e:	2002      	movs	r0, #2
 8001c60:	f7ff ff73 	bl	8001b4a <LL_AHB2_GRP1_EnableClock>
    /**USART1 GPIO Configuration
    PB7     ------> USART1_RX
    PB6     ------> USART1_TX
    */
    GPIO_InitStruct.Pin = GPIO_PIN_7|GPIO_PIN_6;
 8001c64:	23c0      	movs	r3, #192	; 0xc0
 8001c66:	647b      	str	r3, [r7, #68]	; 0x44
    GPIO_InitStruct.Mode = GPIO_MODE_AF_PP;
 8001c68:	2302      	movs	r3, #2
 8001c6a:	64bb      	str	r3, [r7, #72]	; 0x48
    GPIO_InitStruct.Pull = GPIO_NOPULL;
 8001c6c:	2300      	movs	r3, #0
 8001c6e:	64fb      	str	r3, [r7, #76]	; 0x4c
    GPIO_InitStruct.Speed = GPIO_SPEED_FREQ_LOW;
 8001c70:	2300      	movs	r3, #0
 8001c72:	653b      	str	r3, [r7, #80]	; 0x50
    GPIO_InitStruct.Alternate = GPIO_AF7_USART1;
 8001c74:	2307      	movs	r3, #7
 8001c76:	657b      	str	r3, [r7, #84]	; 0x54
    HAL_GPIO_Init(GPIOB, &GPIO_InitStruct);
 8001c78:	f107 0344 	add.w	r3, r7, #68	; 0x44
 8001c7c:	4619      	mov	r1, r3
 8001c7e:	4804      	ldr	r0, [pc, #16]	; (8001c90 <HAL_UART_MspInit+0x88>)
 8001c80:	f000 fa80 	bl	8002184 <HAL_GPIO_Init>
  /* USER CODE BEGIN USART1_MspInit 1 */

  /* USER CODE END USART1_MspInit 1 */
  }

}
 8001c84:	bf00      	nop
 8001c86:	3758      	adds	r7, #88	; 0x58
 8001c88:	46bd      	mov	sp, r7
 8001c8a:	bd80      	pop	{r7, pc}
 8001c8c:	40013800 	.word	0x40013800
 8001c90:	48000400 	.word	0x48000400

08001c94 <NMI_Handler>:
/******************************************************************************/
/**
  * @brief This function handles Non maskable interrupt.
  */
void NMI_Handler(void)
{
 8001c94:	b480      	push	{r7}
 8001c96:	af00      	add	r7, sp, #0
  /* USER CODE BEGIN NonMaskableInt_IRQn 0 */

  /* USER CODE END NonMaskableInt_IRQn 0 */
  /* USER CODE BEGIN NonMaskableInt_IRQn 1 */
  while (1)
 8001c98:	e7fe      	b.n	8001c98 <NMI_Handler+0x4>

08001c9a <HardFault_Handler>:

/**
  * @brief This function handles Hard fault interrupt.
  */
void HardFault_Handler(void)
{
 8001c9a:	b480      	push	{r7}
 8001c9c:	af00      	add	r7, sp, #0
  /* USER CODE BEGIN HardFault_IRQn 0 */

  /* USER CODE END HardFault_IRQn 0 */
  while (1)
 8001c9e:	e7fe      	b.n	8001c9e <HardFault_Handler+0x4>

08001ca0 <MemManage_Handler>:

/**
  * @brief This function handles Memory management fault.
  */
void MemManage_Handler(void)
{
 8001ca0:	b480      	push	{r7}
 8001ca2:	af00      	add	r7, sp, #0
  /* USER CODE BEGIN MemoryManagement_IRQn 0 */

  /* USER CODE END MemoryManagement_IRQn 0 */
  while (1)
 8001ca4:	e7fe      	b.n	8001ca4 <MemManage_Handler+0x4>

08001ca6 <BusFault_Handler>:

/**
  * @brief This function handles Prefetch fault, memory access fault.
  */
void BusFault_Handler(void)
{
 8001ca6:	b480      	push	{r7}
 8001ca8:	af00      	add	r7, sp, #0
  /* USER CODE BEGIN BusFault_IRQn 0 */

  /* USER CODE END BusFault_IRQn 0 */
  while (1)
 8001caa:	e7fe      	b.n	8001caa <BusFault_Handler+0x4>

08001cac <UsageFault_Handler>:

/**
  * @brief This function handles Undefined instruction or illegal state.
  */
void UsageFault_Handler(void)
{
 8001cac:	b480      	push	{r7}
 8001cae:	af00      	add	r7, sp, #0
  /* USER CODE BEGIN UsageFault_IRQn 0 */

  /* USER CODE END UsageFault_IRQn 0 */
  while (1)
 8001cb0:	e7fe      	b.n	8001cb0 <UsageFault_Handler+0x4>

08001cb2 <SVC_Handler>:

/**
  * @brief This function handles System service call via SWI instruction.
  */
void SVC_Handler(void)
{
 8001cb2:	b480      	push	{r7}
 8001cb4:	af00      	add	r7, sp, #0

  /* USER CODE END SVCall_IRQn 0 */
  /* USER CODE BEGIN SVCall_IRQn 1 */

  /* USER CODE END SVCall_IRQn 1 */
}
 8001cb6:	bf00      	nop
 8001cb8:	46bd      	mov	sp, r7
 8001cba:	bc80      	pop	{r7}
 8001cbc:	4770      	bx	lr

08001cbe <DebugMon_Handler>:

/**
  * @brief This function handles Debug monitor.
  */
void DebugMon_Handler(void)
{
 8001cbe:	b480      	push	{r7}
 8001cc0:	af00      	add	r7, sp, #0

  /* USER CODE END DebugMonitor_IRQn 0 */
  /* USER CODE BEGIN DebugMonitor_IRQn 1 */

  /* USER CODE END DebugMonitor_IRQn 1 */
}
 8001cc2:	bf00      	nop
 8001cc4:	46bd      	mov	sp, r7
 8001cc6:	bc80      	pop	{r7}
 8001cc8:	4770      	bx	lr

08001cca <PendSV_Handler>:

/**
  * @brief This function handles Pendable request for system service.
  */
void PendSV_Handler(void)
{
 8001cca:	b480      	push	{r7}
 8001ccc:	af00      	add	r7, sp, #0

  /* USER CODE END PendSV_IRQn 0 */
  /* USER CODE BEGIN PendSV_IRQn 1 */

  /* USER CODE END PendSV_IRQn 1 */
}
 8001cce:	bf00      	nop
 8001cd0:	46bd      	mov	sp, r7
 8001cd2:	bc80      	pop	{r7}
 8001cd4:	4770      	bx	lr

08001cd6 <SysTick_Handler>:

/**
  * @brief This function handles System tick timer.
  */
void SysTick_Handler(void)
{
 8001cd6:	b580      	push	{r7, lr}
 8001cd8:	af00      	add	r7, sp, #0
  /* USER CODE BEGIN SysTick_IRQn 0 */

  /* USER CODE END SysTick_IRQn 0 */
  HAL_IncTick();
 8001cda:	f000 f931 	bl	8001f40 <HAL_IncTick>
  /* USER CODE BEGIN SysTick_IRQn 1 */

  /* USER CODE END SysTick_IRQn 1 */
}
 8001cde:	bf00      	nop
 8001ce0:	bd80      	pop	{r7, pc}

08001ce2 <_getpid>:
void initialise_monitor_handles()
{
}

int _getpid(void)
{
 8001ce2:	b480      	push	{r7}
 8001ce4:	af00      	add	r7, sp, #0
  return 1;
 8001ce6:	2301      	movs	r3, #1
}
 8001ce8:	4618      	mov	r0, r3
 8001cea:	46bd      	mov	sp, r7
 8001cec:	bc80      	pop	{r7}
 8001cee:	4770      	bx	lr

08001cf0 <_kill>:

int _kill(int pid, int sig)
{
 8001cf0:	b580      	push	{r7, lr}
 8001cf2:	b082      	sub	sp, #8
 8001cf4:	af00      	add	r7, sp, #0
 8001cf6:	6078      	str	r0, [r7, #4]
 8001cf8:	6039      	str	r1, [r7, #0]
  (void)pid;
  (void)sig;
  errno = EINVAL;
 8001cfa:	f002 ff55 	bl	8004ba8 <__errno>
 8001cfe:	4603      	mov	r3, r0
 8001d00:	2216      	movs	r2, #22
 8001d02:	601a      	str	r2, [r3, #0]
  return -1;
 8001d04:	f04f 33ff 	mov.w	r3, #4294967295	; 0xffffffff
}
 8001d08:	4618      	mov	r0, r3
 8001d0a:	3708      	adds	r7, #8
 8001d0c:	46bd      	mov	sp, r7
 8001d0e:	bd80      	pop	{r7, pc}

08001d10 <_exit>:

void _exit (int status)
{
 8001d10:	b580      	push	{r7, lr}
 8001d12:	b082      	sub	sp, #8
 8001d14:	af00      	add	r7, sp, #0
 8001d16:	6078      	str	r0, [r7, #4]
  _kill(status, -1);
 8001d18:	f04f 31ff 	mov.w	r1, #4294967295	; 0xffffffff
 8001d1c:	6878      	ldr	r0, [r7, #4]
 8001d1e:	f7ff ffe7 	bl	8001cf0 <_kill>
  while (1) {}    /* Make sure we hang here */
 8001d22:	e7fe      	b.n	8001d22 <_exit+0x12>

08001d24 <_read>:
}

__attribute__((weak)) int _read(int file, char *ptr, int len)
{
 8001d24:	b580      	push	{r7, lr}
 8001d26:	b086      	sub	sp, #24
 8001d28:	af00      	add	r7, sp, #0
 8001d2a:	60f8      	str	r0, [r7, #12]
 8001d2c:	60b9      	str	r1, [r7, #8]
 8001d2e:	607a      	str	r2, [r7, #4]
  (void)file;
  int DataIdx;

  for (DataIdx = 0; DataIdx < len; DataIdx++)
 8001d30:	2300      	movs	r3, #0
 8001d32:	617b      	str	r3, [r7, #20]
 8001d34:	e00a      	b.n	8001d4c <_read+0x28>
  {
    *ptr++ = __io_getchar();
 8001d36:	f3af 8000 	nop.w
 8001d3a:	4601      	mov	r1, r0
 8001d3c:	68bb      	ldr	r3, [r7, #8]
 8001d3e:	1c5a      	adds	r2, r3, #1
 8001d40:	60ba      	str	r2, [r7, #8]
 8001d42:	b2ca      	uxtb	r2, r1
 8001d44:	701a      	strb	r2, [r3, #0]
  for (DataIdx = 0; DataIdx < len; DataIdx++)
 8001d46:	697b      	ldr	r3, [r7, #20]
 8001d48:	3301      	adds	r3, #1
 8001d4a:	617b      	str	r3, [r7, #20]
 8001d4c:	697a      	ldr	r2, [r7, #20]
 8001d4e:	687b      	ldr	r3, [r7, #4]
 8001d50:	429a      	cmp	r2, r3
 8001d52:	dbf0      	blt.n	8001d36 <_read+0x12>
  }

  return len;
 8001d54:	687b      	ldr	r3, [r7, #4]
}
 8001d56:	4618      	mov	r0, r3
 8001d58:	3718      	adds	r7, #24
 8001d5a:	46bd      	mov	sp, r7
 8001d5c:	bd80      	pop	{r7, pc}

08001d5e <_close>:
  }
  return len;
}

int _close(int file)
{
 8001d5e:	b480      	push	{r7}
 8001d60:	b083      	sub	sp, #12
 8001d62:	af00      	add	r7, sp, #0
 8001d64:	6078      	str	r0, [r7, #4]
  (void)file;
  return -1;
 8001d66:	f04f 33ff 	mov.w	r3, #4294967295	; 0xffffffff
}
 8001d6a:	4618      	mov	r0, r3
 8001d6c:	370c      	adds	r7, #12
 8001d6e:	46bd      	mov	sp, r7
 8001d70:	bc80      	pop	{r7}
 8001d72:	4770      	bx	lr

08001d74 <_fstat>:


int _fstat(int file, struct stat *st)
{
 8001d74:	b480      	push	{r7}
 8001d76:	b083      	sub	sp, #12
 8001d78:	af00      	add	r7, sp, #0
 8001d7a:	6078      	str	r0, [r7, #4]
 8001d7c:	6039      	str	r1, [r7, #0]
  (void)file;
  st->st_mode = S_IFCHR;
 8001d7e:	683b      	ldr	r3, [r7, #0]
 8001d80:	f44f 5200 	mov.w	r2, #8192	; 0x2000
 8001d84:	605a      	str	r2, [r3, #4]
  return 0;
 8001d86:	2300      	movs	r3, #0
}
 8001d88:	4618      	mov	r0, r3
 8001d8a:	370c      	adds	r7, #12
 8001d8c:	46bd      	mov	sp, r7
 8001d8e:	bc80      	pop	{r7}
 8001d90:	4770      	bx	lr

08001d92 <_isatty>:

int _isatty(int file)
{
 8001d92:	b480      	push	{r7}
 8001d94:	b083      	sub	sp, #12
 8001d96:	af00      	add	r7, sp, #0
 8001d98:	6078      	str	r0, [r7, #4]
  (void)file;
  return 1;
 8001d9a:	2301      	movs	r3, #1
}
 8001d9c:	4618      	mov	r0, r3
 8001d9e:	370c      	adds	r7, #12
 8001da0:	46bd      	mov	sp, r7
 8001da2:	bc80      	pop	{r7}
 8001da4:	4770      	bx	lr

08001da6 <_lseek>:

int _lseek(int file, int ptr, int dir)
{
 8001da6:	b480      	push	{r7}
 8001da8:	b085      	sub	sp, #20
 8001daa:	af00      	add	r7, sp, #0
 8001dac:	60f8      	str	r0, [r7, #12]
 8001dae:	60b9      	str	r1, [r7, #8]
 8001db0:	607a      	str	r2, [r7, #4]
  (void)file;
  (void)ptr;
  (void)dir;
  return 0;
 8001db2:	2300      	movs	r3, #0
}
 8001db4:	4618      	mov	r0, r3
 8001db6:	3714      	adds	r7, #20
 8001db8:	46bd      	mov	sp, r7
 8001dba:	bc80      	pop	{r7}
 8001dbc:	4770      	bx	lr
	...

08001dc0 <_sbrk>:
 *
 * @param incr Memory size
 * @return Pointer to allocated memory
 */
void *_sbrk(ptrdiff_t incr)
{
 8001dc0:	b580      	push	{r7, lr}
 8001dc2:	b086      	sub	sp, #24
 8001dc4:	af00      	add	r7, sp, #0
 8001dc6:	6078      	str	r0, [r7, #4]
  extern uint8_t _end; /* Symbol defined in the linker script */
  extern uint8_t _estack; /* Symbol defined in the linker script */
  extern uint32_t _Min_Stack_Size; /* Symbol defined in the linker script */
  const uint32_t stack_limit = (uint32_t)&_estack - (uint32_t)&_Min_Stack_Size;
 8001dc8:	4a14      	ldr	r2, [pc, #80]	; (8001e1c <_sbrk+0x5c>)
 8001dca:	4b15      	ldr	r3, [pc, #84]	; (8001e20 <_sbrk+0x60>)
 8001dcc:	1ad3      	subs	r3, r2, r3
 8001dce:	617b      	str	r3, [r7, #20]
  const uint8_t *max_heap = (uint8_t *)stack_limit;
 8001dd0:	697b      	ldr	r3, [r7, #20]
 8001dd2:	613b      	str	r3, [r7, #16]
  uint8_t *prev_heap_end;

  /* Initialize heap end at first call */
  if (NULL == __sbrk_heap_end)
 8001dd4:	4b13      	ldr	r3, [pc, #76]	; (8001e24 <_sbrk+0x64>)
 8001dd6:	681b      	ldr	r3, [r3, #0]
 8001dd8:	2b00      	cmp	r3, #0
 8001dda:	d102      	bne.n	8001de2 <_sbrk+0x22>
  {
    __sbrk_heap_end = &_end;
 8001ddc:	4b11      	ldr	r3, [pc, #68]	; (8001e24 <_sbrk+0x64>)
 8001dde:	4a12      	ldr	r2, [pc, #72]	; (8001e28 <_sbrk+0x68>)
 8001de0:	601a      	str	r2, [r3, #0]
  }

  /* Protect heap from growing into the reserved MSP stack */
  if (__sbrk_heap_end + incr > max_heap)
 8001de2:	4b10      	ldr	r3, [pc, #64]	; (8001e24 <_sbrk+0x64>)
 8001de4:	681a      	ldr	r2, [r3, #0]
 8001de6:	687b      	ldr	r3, [r7, #4]
 8001de8:	4413      	add	r3, r2
 8001dea:	693a      	ldr	r2, [r7, #16]
 8001dec:	429a      	cmp	r2, r3
 8001dee:	d207      	bcs.n	8001e00 <_sbrk+0x40>
  {
    errno = ENOMEM;
 8001df0:	f002 feda 	bl	8004ba8 <__errno>
 8001df4:	4603      	mov	r3, r0
 8001df6:	220c      	movs	r2, #12
 8001df8:	601a      	str	r2, [r3, #0]
    return (void *)-1;
 8001dfa:	f04f 33ff 	mov.w	r3, #4294967295	; 0xffffffff
 8001dfe:	e009      	b.n	8001e14 <_sbrk+0x54>
  }

  prev_heap_end = __sbrk_heap_end;
 8001e00:	4b08      	ldr	r3, [pc, #32]	; (8001e24 <_sbrk+0x64>)
 8001e02:	681b      	ldr	r3, [r3, #0]
 8001e04:	60fb      	str	r3, [r7, #12]
  __sbrk_heap_end += incr;
 8001e06:	4b07      	ldr	r3, [pc, #28]	; (8001e24 <_sbrk+0x64>)
 8001e08:	681a      	ldr	r2, [r3, #0]
 8001e0a:	687b      	ldr	r3, [r7, #4]
 8001e0c:	4413      	add	r3, r2
 8001e0e:	4a05      	ldr	r2, [pc, #20]	; (8001e24 <_sbrk+0x64>)
 8001e10:	6013      	str	r3, [r2, #0]

  return (void *)prev_heap_end;
 8001e12:	68fb      	ldr	r3, [r7, #12]
}
 8001e14:	4618      	mov	r0, r3
 8001e16:	3718      	adds	r7, #24
 8001e18:	46bd      	mov	sp, r7
 8001e1a:	bd80      	pop	{r7, pc}
 8001e1c:	20010000 	.word	0x20010000
 8001e20:	00000400 	.word	0x00000400
 8001e24:	200002e8 	.word	0x200002e8
 8001e28:	20000300 	.word	0x20000300

08001e2c <SystemInit>:
  * @brief  Setup the microcontroller system.
  * @param  None
  * @retval None
  */
void SystemInit(void)
{
 8001e2c:	b480      	push	{r7}
 8001e2e:	af00      	add	r7, sp, #0

  /* FPU settings ------------------------------------------------------------*/
#if (__FPU_PRESENT == 1) && (__FPU_USED == 1)
  SCB->CPACR |= ((3UL << (10UL*2UL))|(3UL << (11UL*2UL)));  /* set CP10 and CP11 Full Access */
#endif
}
 8001e30:	bf00      	nop
 8001e32:	46bd      	mov	sp, r7
 8001e34:	bc80      	pop	{r7}
 8001e36:	4770      	bx	lr

08001e38 <Reset_Handler>:

  .section .text.Reset_Handler
  .weak Reset_Handler
  .type Reset_Handler, %function
Reset_Handler:
  ldr   r0, =_estack
 8001e38:	480d      	ldr	r0, [pc, #52]	; (8001e70 <LoopForever+0x2>)
  mov   sp, r0          /* set stack pointer */
 8001e3a:	4685      	mov	sp, r0

/* Call the clock system initialization function.*/
  bl  SystemInit
 8001e3c:	f7ff fff6 	bl	8001e2c <SystemInit>

/* Copy the data segment initializers from flash to SRAM */
  ldr r0, =_sdata
 8001e40:	480c      	ldr	r0, [pc, #48]	; (8001e74 <LoopForever+0x6>)
  ldr r1, =_edata
 8001e42:	490d      	ldr	r1, [pc, #52]	; (8001e78 <LoopForever+0xa>)
  ldr r2, =_sidata
 8001e44:	4a0d      	ldr	r2, [pc, #52]	; (8001e7c <LoopForever+0xe>)
  movs r3, #0
 8001e46:	2300      	movs	r3, #0
  b LoopCopyDataInit
 8001e48:	e002      	b.n	8001e50 <LoopCopyDataInit>

08001e4a <CopyDataInit>:

CopyDataInit:
  ldr r4, [r2, r3]
 8001e4a:	58d4      	ldr	r4, [r2, r3]
  str r4, [r0, r3]
 8001e4c:	50c4      	str	r4, [r0, r3]
  adds r3, r3, #4
 8001e4e:	3304      	adds	r3, #4

08001e50 <LoopCopyDataInit>:

LoopCopyDataInit:
  adds r4, r0, r3
 8001e50:	18c4      	adds	r4, r0, r3
  cmp r4, r1
 8001e52:	428c      	cmp	r4, r1
  bcc CopyDataInit
 8001e54:	d3f9      	bcc.n	8001e4a <CopyDataInit>

/* Zero fill the bss segment. */
  ldr r2, =_sbss
 8001e56:	4a0a      	ldr	r2, [pc, #40]	; (8001e80 <LoopForever+0x12>)
  ldr r4, =_ebss
 8001e58:	4c0a      	ldr	r4, [pc, #40]	; (8001e84 <LoopForever+0x16>)
  movs r3, #0
 8001e5a:	2300      	movs	r3, #0
  b LoopFillZerobss
 8001e5c:	e001      	b.n	8001e62 <LoopFillZerobss>

08001e5e <FillZerobss>:

FillZerobss:
  str  r3, [r2]
 8001e5e:	6013      	str	r3, [r2, #0]
  adds r2, r2, #4
 8001e60:	3204      	adds	r2, #4

08001e62 <LoopFillZerobss>:

LoopFillZerobss:
  cmp r2, r4
 8001e62:	42a2      	cmp	r2, r4
  bcc FillZerobss
 8001e64:	d3fb      	bcc.n	8001e5e <FillZerobss>

/* Call static constructors */
  bl __libc_init_array
 8001e66:	f002 fea5 	bl	8004bb4 <__libc_init_array>
/* Call the application's entry point.*/
  bl main
 8001e6a:	f7ff fd0b 	bl	8001884 <main>

08001e6e <LoopForever>:

LoopForever:
    b LoopForever
 8001e6e:	e7fe      	b.n	8001e6e <LoopForever>
  ldr   r0, =_estack
 8001e70:	20010000 	.word	0x20010000
  ldr r0, =_sdata
 8001e74:	20000000 	.word	0x20000000
  ldr r1, =_edata
 8001e78:	200001e0 	.word	0x200001e0
  ldr r2, =_sidata
 8001e7c:	08009a3c 	.word	0x08009a3c
  ldr r2, =_sbss
 8001e80:	200001e0 	.word	0x200001e0
  ldr r4, =_ebss
 8001e84:	20000300 	.word	0x20000300

08001e88 <ADC_IRQHandler>:
 * @retval : None
*/
  .section .text.Default_Handler,"ax",%progbits
Default_Handler:
Infinite_Loop:
  b Infinite_Loop
 8001e88:	e7fe      	b.n	8001e88 <ADC_IRQHandler>
	...

08001e8c <HAL_Init>:
  *         need to ensure that the SysTick time base is always set to 1 millisecond
  *         to have correct HAL operation.
  * @retval HAL status
  */
HAL_StatusTypeDef HAL_Init(void)
{
 8001e8c:	b580      	push	{r7, lr}
 8001e8e:	b082      	sub	sp, #8
 8001e90:	af00      	add	r7, sp, #0
  HAL_StatusTypeDef  status = HAL_OK;
 8001e92:	2300      	movs	r3, #0
 8001e94:	71fb      	strb	r3, [r7, #7]
#endif /* PREFETCH_ENABLE */

#ifdef CORE_CM0PLUS
#else
  /* Set Interrupt Group Priority */
  HAL_NVIC_SetPriorityGrouping(NVIC_PRIORITYGROUP_4);
 8001e96:	2003      	movs	r0, #3
 8001e98:	f000 f942 	bl	8002120 <HAL_NVIC_SetPriorityGrouping>

  /* Update the SystemCoreClock global variable */
#if defined(DUAL_CORE) && defined(CORE_CM0PLUS)
  SystemCoreClock = HAL_RCC_GetHCLK2Freq();
#else
  SystemCoreClock = HAL_RCC_GetHCLKFreq();
 8001e9c:	f001 faf0 	bl	8003480 <HAL_RCC_GetHCLKFreq>
 8001ea0:	4603      	mov	r3, r0
 8001ea2:	4a09      	ldr	r2, [pc, #36]	; (8001ec8 <HAL_Init+0x3c>)
 8001ea4:	6013      	str	r3, [r2, #0]
#endif

  /* Use SysTick as time base source and configure 1ms tick (default clock after Reset is MSI) */
  if (HAL_InitTick(TICK_INT_PRIORITY) != HAL_OK)
 8001ea6:	200f      	movs	r0, #15
 8001ea8:	f000 f810 	bl	8001ecc <HAL_InitTick>
 8001eac:	4603      	mov	r3, r0
 8001eae:	2b00      	cmp	r3, #0
 8001eb0:	d002      	beq.n	8001eb8 <HAL_Init+0x2c>
  {
    status = HAL_ERROR;
 8001eb2:	2301      	movs	r3, #1
 8001eb4:	71fb      	strb	r3, [r7, #7]
 8001eb6:	e001      	b.n	8001ebc <HAL_Init+0x30>
  }
  else
  {
    /* Init the low level hardware */
    HAL_MspInit();
 8001eb8:	f7ff fe8f 	bl	8001bda <HAL_MspInit>
  }

  /* Return function status */
  return status;
 8001ebc:	79fb      	ldrb	r3, [r7, #7]
}
 8001ebe:	4618      	mov	r0, r3
 8001ec0:	3708      	adds	r7, #8
 8001ec2:	46bd      	mov	sp, r7
 8001ec4:	bd80      	pop	{r7, pc}
 8001ec6:	bf00      	nop
 8001ec8:	20000000 	.word	0x20000000

08001ecc <HAL_InitTick>:
  *       implementation  in user file.
  * @param TickPriority Tick interrupt priority.
  * @retval HAL status
  */
__weak HAL_StatusTypeDef HAL_InitTick(uint32_t TickPriority)
{
 8001ecc:	b580      	push	{r7, lr}
 8001ece:	b084      	sub	sp, #16
 8001ed0:	af00      	add	r7, sp, #0
 8001ed2:	6078      	str	r0, [r7, #4]
  HAL_StatusTypeDef  status = HAL_OK;
 8001ed4:	2300      	movs	r3, #0
 8001ed6:	73fb      	strb	r3, [r7, #15]

  /* Check uwTickFreq for MisraC 2012 (even if uwTickFreq is a enum type that don't take the value zero)*/
  if ((uint32_t)uwTickFreq != 0U)
 8001ed8:	4b17      	ldr	r3, [pc, #92]	; (8001f38 <HAL_InitTick+0x6c>)
 8001eda:	781b      	ldrb	r3, [r3, #0]
 8001edc:	2b00      	cmp	r3, #0
 8001ede:	d024      	beq.n	8001f2a <HAL_InitTick+0x5e>
  {
    /*Configure the SysTick to have interrupt in 1ms time basis*/
#ifdef CORE_CM0PLUS
    if (HAL_SYSTICK_Config(HAL_RCC_GetHCLK2Freq() / (1000U / (uint32_t)uwTickFreq)) == 0U)
#else
    if (HAL_SYSTICK_Config(HAL_RCC_GetHCLKFreq() / (1000U / (uint32_t)uwTickFreq)) == 0U)
 8001ee0:	f001 face 	bl	8003480 <HAL_RCC_GetHCLKFreq>
 8001ee4:	4602      	mov	r2, r0
 8001ee6:	4b14      	ldr	r3, [pc, #80]	; (8001f38 <HAL_InitTick+0x6c>)
 8001ee8:	781b      	ldrb	r3, [r3, #0]
 8001eea:	4619      	mov	r1, r3
 8001eec:	f44f 737a 	mov.w	r3, #1000	; 0x3e8
 8001ef0:	fbb3 f3f1 	udiv	r3, r3, r1
 8001ef4:	fbb2 f3f3 	udiv	r3, r2, r3
 8001ef8:	4618      	mov	r0, r3
 8001efa:	f000 f936 	bl	800216a <HAL_SYSTICK_Config>
 8001efe:	4603      	mov	r3, r0
 8001f00:	2b00      	cmp	r3, #0
 8001f02:	d10f      	bne.n	8001f24 <HAL_InitTick+0x58>
#endif
    {
      /* Configure the SysTick IRQ priority */
      if (TickPriority < (1UL << __NVIC_PRIO_BITS))
 8001f04:	687b      	ldr	r3, [r7, #4]
 8001f06:	2b0f      	cmp	r3, #15
 8001f08:	d809      	bhi.n	8001f1e <HAL_InitTick+0x52>
      {
        HAL_NVIC_SetPriority(SysTick_IRQn, TickPriority, 0U);
 8001f0a:	2200      	movs	r2, #0
 8001f0c:	6879      	ldr	r1, [r7, #4]
 8001f0e:	f04f 30ff 	mov.w	r0, #4294967295	; 0xffffffff
 8001f12:	f000 f910 	bl	8002136 <HAL_NVIC_SetPriority>
        uwTickPrio = TickPriority;
 8001f16:	4a09      	ldr	r2, [pc, #36]	; (8001f3c <HAL_InitTick+0x70>)
 8001f18:	687b      	ldr	r3, [r7, #4]
 8001f1a:	6013      	str	r3, [r2, #0]
 8001f1c:	e007      	b.n	8001f2e <HAL_InitTick+0x62>
      }
      else
      {
        status = HAL_ERROR;
 8001f1e:	2301      	movs	r3, #1
 8001f20:	73fb      	strb	r3, [r7, #15]
 8001f22:	e004      	b.n	8001f2e <HAL_InitTick+0x62>
      }
    }
    else
    {
      status = HAL_ERROR;
 8001f24:	2301      	movs	r3, #1
 8001f26:	73fb      	strb	r3, [r7, #15]
 8001f28:	e001      	b.n	8001f2e <HAL_InitTick+0x62>
    }
  }
  else
  {
    status = HAL_ERROR;
 8001f2a:	2301      	movs	r3, #1
 8001f2c:	73fb      	strb	r3, [r7, #15]
  }

  /* Return function status */
  return status;
 8001f2e:	7bfb      	ldrb	r3, [r7, #15]
}
 8001f30:	4618      	mov	r0, r3
 8001f32:	3710      	adds	r7, #16
 8001f34:	46bd      	mov	sp, r7
 8001f36:	bd80      	pop	{r7, pc}
 8001f38:	20000008 	.word	0x20000008
 8001f3c:	20000004 	.word	0x20000004

08001f40 <HAL_IncTick>:
  * @note This function is declared as __weak to be overwritten in case of other
  *      implementations in user file.
  * @retval None
  */
__weak void HAL_IncTick(void)
{
 8001f40:	b480      	push	{r7}
 8001f42:	af00      	add	r7, sp, #0
  uwTick += (uint32_t)uwTickFreq;
 8001f44:	4b05      	ldr	r3, [pc, #20]	; (8001f5c <HAL_IncTick+0x1c>)
 8001f46:	781b      	ldrb	r3, [r3, #0]
 8001f48:	461a      	mov	r2, r3
 8001f4a:	4b05      	ldr	r3, [pc, #20]	; (8001f60 <HAL_IncTick+0x20>)
 8001f4c:	681b      	ldr	r3, [r3, #0]
 8001f4e:	4413      	add	r3, r2
 8001f50:	4a03      	ldr	r2, [pc, #12]	; (8001f60 <HAL_IncTick+0x20>)
 8001f52:	6013      	str	r3, [r2, #0]
}
 8001f54:	bf00      	nop
 8001f56:	46bd      	mov	sp, r7
 8001f58:	bc80      	pop	{r7}
 8001f5a:	4770      	bx	lr
 8001f5c:	20000008 	.word	0x20000008
 8001f60:	200002ec 	.word	0x200002ec

08001f64 <HAL_GetTick>:
  * @note This function is declared as __weak to be overwritten in case of other
  *       implementations in user file.
  * @retval tick value
  */
__weak uint32_t HAL_GetTick(void)
{
 8001f64:	b480      	push	{r7}
 8001f66:	af00      	add	r7, sp, #0
  return uwTick;
 8001f68:	4b02      	ldr	r3, [pc, #8]	; (8001f74 <HAL_GetTick+0x10>)
 8001f6a:	681b      	ldr	r3, [r3, #0]
}
 8001f6c:	4618      	mov	r0, r3
 8001f6e:	46bd      	mov	sp, r7
 8001f70:	bc80      	pop	{r7}
 8001f72:	4770      	bx	lr
 8001f74:	200002ec 	.word	0x200002ec

08001f78 <HAL_Delay>:
  *       implementations in user file.
  * @param Delay  specifies the delay time length, in milliseconds.
  * @retval None
  */
__weak void HAL_Delay(uint32_t Delay)
{
 8001f78:	b580      	push	{r7, lr}
 8001f7a:	b084      	sub	sp, #16
 8001f7c:	af00      	add	r7, sp, #0
 8001f7e:	6078      	str	r0, [r7, #4]
  uint32_t tickstart = HAL_GetTick();
 8001f80:	f7ff fff0 	bl	8001f64 <HAL_GetTick>
 8001f84:	60b8      	str	r0, [r7, #8]
  uint32_t wait = Delay;
 8001f86:	687b      	ldr	r3, [r7, #4]
 8001f88:	60fb      	str	r3, [r7, #12]

  /* Add a freq to guarantee minimum wait */
  if (wait < HAL_MAX_DELAY)
 8001f8a:	68fb      	ldr	r3, [r7, #12]
 8001f8c:	f1b3 3fff 	cmp.w	r3, #4294967295	; 0xffffffff
 8001f90:	d005      	beq.n	8001f9e <HAL_Delay+0x26>
  {
    wait += (uint32_t)(uwTickFreq);
 8001f92:	4b0a      	ldr	r3, [pc, #40]	; (8001fbc <HAL_Delay+0x44>)
 8001f94:	781b      	ldrb	r3, [r3, #0]
 8001f96:	461a      	mov	r2, r3
 8001f98:	68fb      	ldr	r3, [r7, #12]
 8001f9a:	4413      	add	r3, r2
 8001f9c:	60fb      	str	r3, [r7, #12]
  }

  while ((HAL_GetTick() - tickstart) < wait)
 8001f9e:	bf00      	nop
 8001fa0:	f7ff ffe0 	bl	8001f64 <HAL_GetTick>
 8001fa4:	4602      	mov	r2, r0
 8001fa6:	68bb      	ldr	r3, [r7, #8]
 8001fa8:	1ad3      	subs	r3, r2, r3
 8001faa:	68fa      	ldr	r2, [r7, #12]
 8001fac:	429a      	cmp	r2, r3
 8001fae:	d8f7      	bhi.n	8001fa0 <HAL_Delay+0x28>
  {
  }
}
 8001fb0:	bf00      	nop
 8001fb2:	bf00      	nop
 8001fb4:	3710      	adds	r7, #16
 8001fb6:	46bd      	mov	sp, r7
 8001fb8:	bd80      	pop	{r7, pc}
 8001fba:	bf00      	nop
 8001fbc:	20000008 	.word	0x20000008

08001fc0 <__NVIC_SetPriorityGrouping>:
           In case of a conflict between priority grouping and available
           priority bits (__NVIC_PRIO_BITS), the smallest possible priority group is set.
  \param [in]      PriorityGroup  Priority grouping field.
 */
__STATIC_INLINE void __NVIC_SetPriorityGrouping(uint32_t PriorityGroup)
{
 8001fc0:	b480      	push	{r7}
 8001fc2:	b085      	sub	sp, #20
 8001fc4:	af00      	add	r7, sp, #0
 8001fc6:	6078      	str	r0, [r7, #4]
  uint32_t reg_value;
  uint32_t PriorityGroupTmp = (PriorityGroup & (uint32_t)0x07UL);             /* only values 0..7 are used          */
 8001fc8:	687b      	ldr	r3, [r7, #4]
 8001fca:	f003 0307 	and.w	r3, r3, #7
 8001fce:	60fb      	str	r3, [r7, #12]

  reg_value  =  SCB->AIRCR;                                                   /* read old register configuration    */
 8001fd0:	4b0c      	ldr	r3, [pc, #48]	; (8002004 <__NVIC_SetPriorityGrouping+0x44>)
 8001fd2:	68db      	ldr	r3, [r3, #12]
 8001fd4:	60bb      	str	r3, [r7, #8]
  reg_value &= ~((uint32_t)(SCB_AIRCR_VECTKEY_Msk | SCB_AIRCR_PRIGROUP_Msk)); /* clear bits to change               */
 8001fd6:	68ba      	ldr	r2, [r7, #8]
 8001fd8:	f64f 03ff 	movw	r3, #63743	; 0xf8ff
 8001fdc:	4013      	ands	r3, r2
 8001fde:	60bb      	str	r3, [r7, #8]
  reg_value  =  (reg_value                                   |
                ((uint32_t)0x5FAUL << SCB_AIRCR_VECTKEY_Pos) |
                (PriorityGroupTmp << SCB_AIRCR_PRIGROUP_Pos)  );              /* Insert write key and priority group */
 8001fe0:	68fb      	ldr	r3, [r7, #12]
 8001fe2:	021a      	lsls	r2, r3, #8
                ((uint32_t)0x5FAUL << SCB_AIRCR_VECTKEY_Pos) |
 8001fe4:	68bb      	ldr	r3, [r7, #8]
 8001fe6:	4313      	orrs	r3, r2
  reg_value  =  (reg_value                                   |
 8001fe8:	f043 63bf 	orr.w	r3, r3, #100139008	; 0x5f80000
 8001fec:	f443 3300 	orr.w	r3, r3, #131072	; 0x20000
 8001ff0:	60bb      	str	r3, [r7, #8]
  SCB->AIRCR =  reg_value;
 8001ff2:	4a04      	ldr	r2, [pc, #16]	; (8002004 <__NVIC_SetPriorityGrouping+0x44>)
 8001ff4:	68bb      	ldr	r3, [r7, #8]
 8001ff6:	60d3      	str	r3, [r2, #12]
}
 8001ff8:	bf00      	nop
 8001ffa:	3714      	adds	r7, #20
 8001ffc:	46bd      	mov	sp, r7
 8001ffe:	bc80      	pop	{r7}
 8002000:	4770      	bx	lr
 8002002:	bf00      	nop
 8002004:	e000ed00 	.word	0xe000ed00

08002008 <__NVIC_GetPriorityGrouping>:
  \brief   Get Priority Grouping
  \details Reads the priority grouping field from the NVIC Interrupt Controller.
  \return                Priority grouping field (SCB->AIRCR [10:8] PRIGROUP field).
 */
__STATIC_INLINE uint32_t __NVIC_GetPriorityGrouping(void)
{
 8002008:	b480      	push	{r7}
 800200a:	af00      	add	r7, sp, #0
  return ((uint32_t)((SCB->AIRCR & SCB_AIRCR_PRIGROUP_Msk) >> SCB_AIRCR_PRIGROUP_Pos));
 800200c:	4b04      	ldr	r3, [pc, #16]	; (8002020 <__NVIC_GetPriorityGrouping+0x18>)
 800200e:	68db      	ldr	r3, [r3, #12]
 8002010:	0a1b      	lsrs	r3, r3, #8
 8002012:	f003 0307 	and.w	r3, r3, #7
}
 8002016:	4618      	mov	r0, r3
 8002018:	46bd      	mov	sp, r7
 800201a:	bc80      	pop	{r7}
 800201c:	4770      	bx	lr
 800201e:	bf00      	nop
 8002020:	e000ed00 	.word	0xe000ed00

08002024 <__NVIC_SetPriority>:
  \param [in]      IRQn  Interrupt number.
  \param [in]  priority  Priority to set.
  \note    The priority cannot be set for every processor exception.
 */
__STATIC_INLINE void __NVIC_SetPriority(IRQn_Type IRQn, uint32_t priority)
{
 8002024:	b480      	push	{r7}
 8002026:	b083      	sub	sp, #12
 8002028:	af00      	add	r7, sp, #0
 800202a:	4603      	mov	r3, r0
 800202c:	6039      	str	r1, [r7, #0]
 800202e:	71fb      	strb	r3, [r7, #7]
  if ((int32_t)(IRQn) >= 0)
 8002030:	f997 3007 	ldrsb.w	r3, [r7, #7]
 8002034:	2b00      	cmp	r3, #0
 8002036:	db0a      	blt.n	800204e <__NVIC_SetPriority+0x2a>
  {
    NVIC->IP[((uint32_t)IRQn)]               = (uint8_t)((priority << (8U - __NVIC_PRIO_BITS)) & (uint32_t)0xFFUL);
 8002038:	683b      	ldr	r3, [r7, #0]
 800203a:	b2da      	uxtb	r2, r3
 800203c:	490c      	ldr	r1, [pc, #48]	; (8002070 <__NVIC_SetPriority+0x4c>)
 800203e:	f997 3007 	ldrsb.w	r3, [r7, #7]
 8002042:	0112      	lsls	r2, r2, #4
 8002044:	b2d2      	uxtb	r2, r2
 8002046:	440b      	add	r3, r1
 8002048:	f883 2300 	strb.w	r2, [r3, #768]	; 0x300
  }
  else
  {
    SCB->SHP[(((uint32_t)IRQn) & 0xFUL)-4UL] = (uint8_t)((priority << (8U - __NVIC_PRIO_BITS)) & (uint32_t)0xFFUL);
  }
}
 800204c:	e00a      	b.n	8002064 <__NVIC_SetPriority+0x40>
    SCB->SHP[(((uint32_t)IRQn) & 0xFUL)-4UL] = (uint8_t)((priority << (8U - __NVIC_PRIO_BITS)) & (uint32_t)0xFFUL);
 800204e:	683b      	ldr	r3, [r7, #0]
 8002050:	b2da      	uxtb	r2, r3
 8002052:	4908      	ldr	r1, [pc, #32]	; (8002074 <__NVIC_SetPriority+0x50>)
 8002054:	79fb      	ldrb	r3, [r7, #7]
 8002056:	f003 030f 	and.w	r3, r3, #15
 800205a:	3b04      	subs	r3, #4
 800205c:	0112      	lsls	r2, r2, #4
 800205e:	b2d2      	uxtb	r2, r2
 8002060:	440b      	add	r3, r1
 8002062:	761a      	strb	r2, [r3, #24]
}
 8002064:	bf00      	nop
 8002066:	370c      	adds	r7, #12
 8002068:	46bd      	mov	sp, r7
 800206a:	bc80      	pop	{r7}
 800206c:	4770      	bx	lr
 800206e:	bf00      	nop
 8002070:	e000e100 	.word	0xe000e100
 8002074:	e000ed00 	.word	0xe000ed00

08002078 <NVIC_EncodePriority>:
  \param [in]   PreemptPriority  Preemptive priority value (starting from 0).
  \param [in]       SubPriority  Subpriority value (starting from 0).
  \return                        Encoded priority. Value can be used in the function \ref NVIC_SetPriority().
 */
__STATIC_INLINE uint32_t NVIC_EncodePriority (uint32_t PriorityGroup, uint32_t PreemptPriority, uint32_t SubPriority)
{
 8002078:	b480      	push	{r7}
 800207a:	b089      	sub	sp, #36	; 0x24
 800207c:	af00      	add	r7, sp, #0
 800207e:	60f8      	str	r0, [r7, #12]
 8002080:	60b9      	str	r1, [r7, #8]
 8002082:	607a      	str	r2, [r7, #4]
  uint32_t PriorityGroupTmp = (PriorityGroup & (uint32_t)0x07UL);   /* only values 0..7 are used          */
 8002084:	68fb      	ldr	r3, [r7, #12]
 8002086:	f003 0307 	and.w	r3, r3, #7
 800208a:	61fb      	str	r3, [r7, #28]
  uint32_t PreemptPriorityBits;
  uint32_t SubPriorityBits;

  PreemptPriorityBits = ((7UL - PriorityGroupTmp) > (uint32_t)(__NVIC_PRIO_BITS)) ? (uint32_t)(__NVIC_PRIO_BITS) : (uint32_t)(7UL - PriorityGroupTmp);
 800208c:	69fb      	ldr	r3, [r7, #28]
 800208e:	f1c3 0307 	rsb	r3, r3, #7
 8002092:	2b04      	cmp	r3, #4
 8002094:	bf28      	it	cs
 8002096:	2304      	movcs	r3, #4
 8002098:	61bb      	str	r3, [r7, #24]
  SubPriorityBits     = ((PriorityGroupTmp + (uint32_t)(__NVIC_PRIO_BITS)) < (uint32_t)7UL) ? (uint32_t)0UL : (uint32_t)((PriorityGroupTmp - 7UL) + (uint32_t)(__NVIC_PRIO_BITS));
 800209a:	69fb      	ldr	r3, [r7, #28]
 800209c:	3304      	adds	r3, #4
 800209e:	2b06      	cmp	r3, #6
 80020a0:	d902      	bls.n	80020a8 <NVIC_EncodePriority+0x30>
 80020a2:	69fb      	ldr	r3, [r7, #28]
 80020a4:	3b03      	subs	r3, #3
 80020a6:	e000      	b.n	80020aa <NVIC_EncodePriority+0x32>
 80020a8:	2300      	movs	r3, #0
 80020aa:	617b      	str	r3, [r7, #20]

  return (
           ((PreemptPriority & (uint32_t)((1UL << (PreemptPriorityBits)) - 1UL)) << SubPriorityBits) |
 80020ac:	f04f 32ff 	mov.w	r2, #4294967295	; 0xffffffff
 80020b0:	69bb      	ldr	r3, [r7, #24]
 80020b2:	fa02 f303 	lsl.w	r3, r2, r3
 80020b6:	43da      	mvns	r2, r3
 80020b8:	68bb      	ldr	r3, [r7, #8]
 80020ba:	401a      	ands	r2, r3
 80020bc:	697b      	ldr	r3, [r7, #20]
 80020be:	409a      	lsls	r2, r3
           ((SubPriority     & (uint32_t)((1UL << (SubPriorityBits    )) - 1UL)))
 80020c0:	f04f 31ff 	mov.w	r1, #4294967295	; 0xffffffff
 80020c4:	697b      	ldr	r3, [r7, #20]
 80020c6:	fa01 f303 	lsl.w	r3, r1, r3
 80020ca:	43d9      	mvns	r1, r3
 80020cc:	687b      	ldr	r3, [r7, #4]
 80020ce:	400b      	ands	r3, r1
           ((PreemptPriority & (uint32_t)((1UL << (PreemptPriorityBits)) - 1UL)) << SubPriorityBits) |
 80020d0:	4313      	orrs	r3, r2
         );
}
 80020d2:	4618      	mov	r0, r3
 80020d4:	3724      	adds	r7, #36	; 0x24
 80020d6:	46bd      	mov	sp, r7
 80020d8:	bc80      	pop	{r7}
 80020da:	4770      	bx	lr

080020dc <SysTick_Config>:
  \note    When the variable <b>__Vendor_SysTickConfig</b> is set to 1, then the
           function <b>SysTick_Config</b> is not included. In this case, the file <b><i>device</i>.h</b>
           must contain a vendor-specific implementation of this function.
 */
__STATIC_INLINE uint32_t SysTick_Config(uint32_t ticks)
{
 80020dc:	b580      	push	{r7, lr}
 80020de:	b082      	sub	sp, #8
 80020e0:	af00      	add	r7, sp, #0
 80020e2:	6078      	str	r0, [r7, #4]
  if ((ticks - 1UL) > SysTick_LOAD_RELOAD_Msk)
 80020e4:	687b      	ldr	r3, [r7, #4]
 80020e6:	3b01      	subs	r3, #1
 80020e8:	f1b3 7f80 	cmp.w	r3, #16777216	; 0x1000000
 80020ec:	d301      	bcc.n	80020f2 <SysTick_Config+0x16>
  {
    return (1UL);                                                   /* Reload value impossible */
 80020ee:	2301      	movs	r3, #1
 80020f0:	e00f      	b.n	8002112 <SysTick_Config+0x36>
  }

  SysTick->LOAD  = (uint32_t)(ticks - 1UL);                         /* set reload register */
 80020f2:	4a0a      	ldr	r2, [pc, #40]	; (800211c <SysTick_Config+0x40>)
 80020f4:	687b      	ldr	r3, [r7, #4]
 80020f6:	3b01      	subs	r3, #1
 80020f8:	6053      	str	r3, [r2, #4]
  NVIC_SetPriority (SysTick_IRQn, (1UL << __NVIC_PRIO_BITS) - 1UL); /* set Priority for Systick Interrupt */
 80020fa:	210f      	movs	r1, #15
 80020fc:	f04f 30ff 	mov.w	r0, #4294967295	; 0xffffffff
 8002100:	f7ff ff90 	bl	8002024 <__NVIC_SetPriority>
  SysTick->VAL   = 0UL;                                             /* Load the SysTick Counter Value */
 8002104:	4b05      	ldr	r3, [pc, #20]	; (800211c <SysTick_Config+0x40>)
 8002106:	2200      	movs	r2, #0
 8002108:	609a      	str	r2, [r3, #8]
  SysTick->CTRL  = SysTick_CTRL_CLKSOURCE_Msk |
 800210a:	4b04      	ldr	r3, [pc, #16]	; (800211c <SysTick_Config+0x40>)
 800210c:	2207      	movs	r2, #7
 800210e:	601a      	str	r2, [r3, #0]
                   SysTick_CTRL_TICKINT_Msk   |
                   SysTick_CTRL_ENABLE_Msk;                         /* Enable SysTick IRQ and SysTick Timer */
  return (0UL);                                                     /* Function successful */
 8002110:	2300      	movs	r3, #0
}
 8002112:	4618      	mov	r0, r3
 8002114:	3708      	adds	r7, #8
 8002116:	46bd      	mov	sp, r7
 8002118:	bd80      	pop	{r7, pc}
 800211a:	bf00      	nop
 800211c:	e000e010 	.word	0xe000e010

08002120 <HAL_NVIC_SetPriorityGrouping>:
  * @note   When the NVIC_PriorityGroup_0 is selected, IRQ pre-emption is no more possible.
  *         The pending IRQ priority will be managed only by the subpriority.
  * @retval None
  */
void HAL_NVIC_SetPriorityGrouping(uint32_t PriorityGroup)
{
 8002120:	b580      	push	{r7, lr}
 8002122:	b082      	sub	sp, #8
 8002124:	af00      	add	r7, sp, #0
 8002126:	6078      	str	r0, [r7, #4]
  /* Check the parameters */
  assert_param(IS_NVIC_PRIORITY_GROUP(PriorityGroup));

  /* Set the PRIGROUP[10:8] bits according to the PriorityGroup parameter value */
  NVIC_SetPriorityGrouping(PriorityGroup);
 8002128:	6878      	ldr	r0, [r7, #4]
 800212a:	f7ff ff49 	bl	8001fc0 <__NVIC_SetPriorityGrouping>
}
 800212e:	bf00      	nop
 8002130:	3708      	adds	r7, #8
 8002132:	46bd      	mov	sp, r7
 8002134:	bd80      	pop	{r7, pc}

08002136 <HAL_NVIC_SetPriority>:
  *         This parameter can be a value between 0 and 15
  *         A lower priority value indicates a higher priority.
  * @retval None
  */
void HAL_NVIC_SetPriority(IRQn_Type IRQn, uint32_t PreemptPriority, uint32_t SubPriority)
{
 8002136:	b580      	push	{r7, lr}
 8002138:	b086      	sub	sp, #24
 800213a:	af00      	add	r7, sp, #0
 800213c:	4603      	mov	r3, r0
 800213e:	60b9      	str	r1, [r7, #8]
 8002140:	607a      	str	r2, [r7, #4]
 8002142:	73fb      	strb	r3, [r7, #15]

  /* Check the parameters */
  assert_param(IS_NVIC_SUB_PRIORITY(SubPriority));
  assert_param(IS_NVIC_PREEMPTION_PRIORITY(PreemptPriority));

  prioritygroup = NVIC_GetPriorityGrouping();
 8002144:	f7ff ff60 	bl	8002008 <__NVIC_GetPriorityGrouping>
 8002148:	6178      	str	r0, [r7, #20]

  NVIC_SetPriority(IRQn, NVIC_EncodePriority(prioritygroup, PreemptPriority, SubPriority));
 800214a:	687a      	ldr	r2, [r7, #4]
 800214c:	68b9      	ldr	r1, [r7, #8]
 800214e:	6978      	ldr	r0, [r7, #20]
 8002150:	f7ff ff92 	bl	8002078 <NVIC_EncodePriority>
 8002154:	4602      	mov	r2, r0
 8002156:	f997 300f 	ldrsb.w	r3, [r7, #15]
 800215a:	4611      	mov	r1, r2
 800215c:	4618      	mov	r0, r3
 800215e:	f7ff ff61 	bl	8002024 <__NVIC_SetPriority>
}
 8002162:	bf00      	nop
 8002164:	3718      	adds	r7, #24
 8002166:	46bd      	mov	sp, r7
 8002168:	bd80      	pop	{r7, pc}

0800216a <HAL_SYSTICK_Config>:
  * @param TicksNumb Specifies the ticks Number of ticks between two interrupts.
  * @retval status:  - 0  Function succeeded.
  *                  - 1  Function failed.
  */
uint32_t HAL_SYSTICK_Config(uint32_t TicksNumb)
{
 800216a:	b580      	push	{r7, lr}
 800216c:	b082      	sub	sp, #8
 800216e:	af00      	add	r7, sp, #0
 8002170:	6078      	str	r0, [r7, #4]
  return SysTick_Config(TicksNumb);
 8002172:	6878      	ldr	r0, [r7, #4]
 8002174:	f7ff ffb2 	bl	80020dc <SysTick_Config>
 8002178:	4603      	mov	r3, r0
}
 800217a:	4618      	mov	r0, r3
 800217c:	3708      	adds	r7, #8
 800217e:	46bd      	mov	sp, r7
 8002180:	bd80      	pop	{r7, pc}
	...

08002184 <HAL_GPIO_Init>:
  * @param GPIO_Init pointer to a GPIO_InitTypeDef structure that contains
  *         the configuration information for the specified GPIO peripheral.
  * @retval None
  */
void HAL_GPIO_Init(GPIO_TypeDef  *GPIOx, GPIO_InitTypeDef *GPIO_Init)
{
 8002184:	b480      	push	{r7}
 8002186:	b087      	sub	sp, #28
 8002188:	af00      	add	r7, sp, #0
 800218a:	6078      	str	r0, [r7, #4]
 800218c:	6039      	str	r1, [r7, #0]
  uint32_t position = 0x00u;
 800218e:	2300      	movs	r3, #0
 8002190:	617b      	str	r3, [r7, #20]
  assert_param(IS_GPIO_PIN(GPIO_Init->Pin));
  assert_param(IS_GPIO_MODE(GPIO_Init->Mode));
  assert_param(IS_GPIO_PULL(GPIO_Init->Pull));

  /* Configure the port pins */
  while (((GPIO_Init->Pin) >> position) != 0x00u)
 8002192:	e140      	b.n	8002416 <HAL_GPIO_Init+0x292>
  {
    /* Get current io position */
    iocurrent = (GPIO_Init->Pin) & (1uL << position);
 8002194:	683b      	ldr	r3, [r7, #0]
 8002196:	681a      	ldr	r2, [r3, #0]
 8002198:	2101      	movs	r1, #1
 800219a:	697b      	ldr	r3, [r7, #20]
 800219c:	fa01 f303 	lsl.w	r3, r1, r3
 80021a0:	4013      	ands	r3, r2
 80021a2:	60fb      	str	r3, [r7, #12]

    if (iocurrent != 0x00u)
 80021a4:	68fb      	ldr	r3, [r7, #12]
 80021a6:	2b00      	cmp	r3, #0
 80021a8:	f000 8132 	beq.w	8002410 <HAL_GPIO_Init+0x28c>
    {
      /*--------------------- GPIO Mode Configuration ------------------------*/
      /* In case of Output or Alternate function mode selection */
      if (((GPIO_Init->Mode & GPIO_MODE) == MODE_OUTPUT) || ((GPIO_Init->Mode & GPIO_MODE) == MODE_AF))
 80021ac:	683b      	ldr	r3, [r7, #0]
 80021ae:	685b      	ldr	r3, [r3, #4]
 80021b0:	f003 0303 	and.w	r3, r3, #3
 80021b4:	2b01      	cmp	r3, #1
 80021b6:	d005      	beq.n	80021c4 <HAL_GPIO_Init+0x40>
 80021b8:	683b      	ldr	r3, [r7, #0]
 80021ba:	685b      	ldr	r3, [r3, #4]
 80021bc:	f003 0303 	and.w	r3, r3, #3
 80021c0:	2b02      	cmp	r3, #2
 80021c2:	d130      	bne.n	8002226 <HAL_GPIO_Init+0xa2>
      {
        /* Check the Speed parameter */
        assert_param(IS_GPIO_SPEED(GPIO_Init->Speed));
        /* Configure the IO Speed */
        temp = GPIOx->OSPEEDR;
 80021c4:	687b      	ldr	r3, [r7, #4]
 80021c6:	689b      	ldr	r3, [r3, #8]
 80021c8:	613b      	str	r3, [r7, #16]
        temp &= ~(GPIO_OSPEEDR_OSPEED0 << (position * 2U));
 80021ca:	697b      	ldr	r3, [r7, #20]
 80021cc:	005b      	lsls	r3, r3, #1
 80021ce:	2203      	movs	r2, #3
 80021d0:	fa02 f303 	lsl.w	r3, r2, r3
 80021d4:	43db      	mvns	r3, r3
 80021d6:	693a      	ldr	r2, [r7, #16]
 80021d8:	4013      	ands	r3, r2
 80021da:	613b      	str	r3, [r7, #16]
        temp |= (GPIO_Init->Speed << (position * 2U));
 80021dc:	683b      	ldr	r3, [r7, #0]
 80021de:	68da      	ldr	r2, [r3, #12]
 80021e0:	697b      	ldr	r3, [r7, #20]
 80021e2:	005b      	lsls	r3, r3, #1
 80021e4:	fa02 f303 	lsl.w	r3, r2, r3
 80021e8:	693a      	ldr	r2, [r7, #16]
 80021ea:	4313      	orrs	r3, r2
 80021ec:	613b      	str	r3, [r7, #16]
        GPIOx->OSPEEDR = temp;
 80021ee:	687b      	ldr	r3, [r7, #4]
 80021f0:	693a      	ldr	r2, [r7, #16]
 80021f2:	609a      	str	r2, [r3, #8]

        /* Configure the IO Output Type */
        temp = GPIOx->OTYPER;
 80021f4:	687b      	ldr	r3, [r7, #4]
 80021f6:	685b      	ldr	r3, [r3, #4]
 80021f8:	613b      	str	r3, [r7, #16]
        temp &= ~(GPIO_OTYPER_OT0 << position) ;
 80021fa:	2201      	movs	r2, #1
 80021fc:	697b      	ldr	r3, [r7, #20]
 80021fe:	fa02 f303 	lsl.w	r3, r2, r3
 8002202:	43db      	mvns	r3, r3
 8002204:	693a      	ldr	r2, [r7, #16]
 8002206:	4013      	ands	r3, r2
 8002208:	613b      	str	r3, [r7, #16]
        temp |= (((GPIO_Init->Mode & OUTPUT_TYPE) >> OUTPUT_TYPE_Pos) << position);
 800220a:	683b      	ldr	r3, [r7, #0]
 800220c:	685b      	ldr	r3, [r3, #4]
 800220e:	091b      	lsrs	r3, r3, #4
 8002210:	f003 0201 	and.w	r2, r3, #1
 8002214:	697b      	ldr	r3, [r7, #20]
 8002216:	fa02 f303 	lsl.w	r3, r2, r3
 800221a:	693a      	ldr	r2, [r7, #16]
 800221c:	4313      	orrs	r3, r2
 800221e:	613b      	str	r3, [r7, #16]
        GPIOx->OTYPER = temp;
 8002220:	687b      	ldr	r3, [r7, #4]
 8002222:	693a      	ldr	r2, [r7, #16]
 8002224:	605a      	str	r2, [r3, #4]
      }

      /* Activate the Pull-up or Pull down resistor for the current IO */
      if ((GPIO_Init->Mode & GPIO_MODE) != MODE_ANALOG)
 8002226:	683b      	ldr	r3, [r7, #0]
 8002228:	685b      	ldr	r3, [r3, #4]
 800222a:	f003 0303 	and.w	r3, r3, #3
 800222e:	2b03      	cmp	r3, #3
 8002230:	d017      	beq.n	8002262 <HAL_GPIO_Init+0xde>
      {
        temp = GPIOx->PUPDR;
 8002232:	687b      	ldr	r3, [r7, #4]
 8002234:	68db      	ldr	r3, [r3, #12]
 8002236:	613b      	str	r3, [r7, #16]
        temp &= ~(GPIO_PUPDR_PUPD0 << (position * 2U));
 8002238:	697b      	ldr	r3, [r7, #20]
 800223a:	005b      	lsls	r3, r3, #1
 800223c:	2203      	movs	r2, #3
 800223e:	fa02 f303 	lsl.w	r3, r2, r3
 8002242:	43db      	mvns	r3, r3
 8002244:	693a      	ldr	r2, [r7, #16]
 8002246:	4013      	ands	r3, r2
 8002248:	613b      	str	r3, [r7, #16]
        temp |= ((GPIO_Init->Pull) << (position * 2U));
 800224a:	683b      	ldr	r3, [r7, #0]
 800224c:	689a      	ldr	r2, [r3, #8]
 800224e:	697b      	ldr	r3, [r7, #20]
 8002250:	005b      	lsls	r3, r3, #1
 8002252:	fa02 f303 	lsl.w	r3, r2, r3
 8002256:	693a      	ldr	r2, [r7, #16]
 8002258:	4313      	orrs	r3, r2
 800225a:	613b      	str	r3, [r7, #16]
        GPIOx->PUPDR = temp;
 800225c:	687b      	ldr	r3, [r7, #4]
 800225e:	693a      	ldr	r2, [r7, #16]
 8002260:	60da      	str	r2, [r3, #12]
      }

      /* In case of Alternate function mode selection */
      if ((GPIO_Init->Mode & GPIO_MODE) == MODE_AF)
 8002262:	683b      	ldr	r3, [r7, #0]
 8002264:	685b      	ldr	r3, [r3, #4]
 8002266:	f003 0303 	and.w	r3, r3, #3
 800226a:	2b02      	cmp	r3, #2
 800226c:	d123      	bne.n	80022b6 <HAL_GPIO_Init+0x132>
        /* Check the Alternate function parameters */
        assert_param(IS_GPIO_AF_INSTANCE(GPIOx));
        assert_param(IS_GPIO_AF(GPIO_Init->Alternate));

        /* Configure Alternate function mapped with the current IO */
        temp = GPIOx->AFR[position >> 3U];
 800226e:	697b      	ldr	r3, [r7, #20]
 8002270:	08da      	lsrs	r2, r3, #3
 8002272:	687b      	ldr	r3, [r7, #4]
 8002274:	3208      	adds	r2, #8
 8002276:	f853 3022 	ldr.w	r3, [r3, r2, lsl #2]
 800227a:	613b      	str	r3, [r7, #16]
        temp &= ~(0xFU << ((position & 0x07U) * 4U));
 800227c:	697b      	ldr	r3, [r7, #20]
 800227e:	f003 0307 	and.w	r3, r3, #7
 8002282:	009b      	lsls	r3, r3, #2
 8002284:	220f      	movs	r2, #15
 8002286:	fa02 f303 	lsl.w	r3, r2, r3
 800228a:	43db      	mvns	r3, r3
 800228c:	693a      	ldr	r2, [r7, #16]
 800228e:	4013      	ands	r3, r2
 8002290:	613b      	str	r3, [r7, #16]
        temp |= ((GPIO_Init->Alternate) << ((position & 0x07U) * 4U));
 8002292:	683b      	ldr	r3, [r7, #0]
 8002294:	691a      	ldr	r2, [r3, #16]
 8002296:	697b      	ldr	r3, [r7, #20]
 8002298:	f003 0307 	and.w	r3, r3, #7
 800229c:	009b      	lsls	r3, r3, #2
 800229e:	fa02 f303 	lsl.w	r3, r2, r3
 80022a2:	693a      	ldr	r2, [r7, #16]
 80022a4:	4313      	orrs	r3, r2
 80022a6:	613b      	str	r3, [r7, #16]
        GPIOx->AFR[position >> 3u] = temp;
 80022a8:	697b      	ldr	r3, [r7, #20]
 80022aa:	08da      	lsrs	r2, r3, #3
 80022ac:	687b      	ldr	r3, [r7, #4]
 80022ae:	3208      	adds	r2, #8
 80022b0:	6939      	ldr	r1, [r7, #16]
 80022b2:	f843 1022 	str.w	r1, [r3, r2, lsl #2]
      }

      /* Configure IO Direction mode (Input, Output, Alternate or Analog) */
      temp = GPIOx->MODER;
 80022b6:	687b      	ldr	r3, [r7, #4]
 80022b8:	681b      	ldr	r3, [r3, #0]
 80022ba:	613b      	str	r3, [r7, #16]
      temp &= ~(GPIO_MODER_MODE0 << (position * 2U));
 80022bc:	697b      	ldr	r3, [r7, #20]
 80022be:	005b      	lsls	r3, r3, #1
 80022c0:	2203      	movs	r2, #3
 80022c2:	fa02 f303 	lsl.w	r3, r2, r3
 80022c6:	43db      	mvns	r3, r3
 80022c8:	693a      	ldr	r2, [r7, #16]
 80022ca:	4013      	ands	r3, r2
 80022cc:	613b      	str	r3, [r7, #16]
      temp |= ((GPIO_Init->Mode & GPIO_MODE) << (position * 2U));
 80022ce:	683b      	ldr	r3, [r7, #0]
 80022d0:	685b      	ldr	r3, [r3, #4]
 80022d2:	f003 0203 	and.w	r2, r3, #3
 80022d6:	697b      	ldr	r3, [r7, #20]
 80022d8:	005b      	lsls	r3, r3, #1
 80022da:	fa02 f303 	lsl.w	r3, r2, r3
 80022de:	693a      	ldr	r2, [r7, #16]
 80022e0:	4313      	orrs	r3, r2
 80022e2:	613b      	str	r3, [r7, #16]
      GPIOx->MODER = temp;
 80022e4:	687b      	ldr	r3, [r7, #4]
 80022e6:	693a      	ldr	r2, [r7, #16]
 80022e8:	601a      	str	r2, [r3, #0]

      /*--------------------- EXTI Mode Configuration ------------------------*/
      /* Configure the External Interrupt or event for the current IO */
      if ((GPIO_Init->Mode & EXTI_MODE) != 0x00u)
 80022ea:	683b      	ldr	r3, [r7, #0]
 80022ec:	685b      	ldr	r3, [r3, #4]
 80022ee:	f403 3340 	and.w	r3, r3, #196608	; 0x30000
 80022f2:	2b00      	cmp	r3, #0
 80022f4:	f000 808c 	beq.w	8002410 <HAL_GPIO_Init+0x28c>
      {
        temp = SYSCFG->EXTICR[position >> 2u];
 80022f8:	4a4e      	ldr	r2, [pc, #312]	; (8002434 <HAL_GPIO_Init+0x2b0>)
 80022fa:	697b      	ldr	r3, [r7, #20]
 80022fc:	089b      	lsrs	r3, r3, #2
 80022fe:	3302      	adds	r3, #2
 8002300:	f852 3023 	ldr.w	r3, [r2, r3, lsl #2]
 8002304:	613b      	str	r3, [r7, #16]
        temp &= ~(0x07uL << (4U * (position & 0x03U)));
 8002306:	697b      	ldr	r3, [r7, #20]
 8002308:	f003 0303 	and.w	r3, r3, #3
 800230c:	009b      	lsls	r3, r3, #2
 800230e:	2207      	movs	r2, #7
 8002310:	fa02 f303 	lsl.w	r3, r2, r3
 8002314:	43db      	mvns	r3, r3
 8002316:	693a      	ldr	r2, [r7, #16]
 8002318:	4013      	ands	r3, r2
 800231a:	613b      	str	r3, [r7, #16]
        temp |= (GPIO_GET_INDEX(GPIOx) << (4U * (position & 0x03U)));
 800231c:	687b      	ldr	r3, [r7, #4]
 800231e:	f1b3 4f90 	cmp.w	r3, #1207959552	; 0x48000000
 8002322:	d00d      	beq.n	8002340 <HAL_GPIO_Init+0x1bc>
 8002324:	687b      	ldr	r3, [r7, #4]
 8002326:	4a44      	ldr	r2, [pc, #272]	; (8002438 <HAL_GPIO_Init+0x2b4>)
 8002328:	4293      	cmp	r3, r2
 800232a:	d007      	beq.n	800233c <HAL_GPIO_Init+0x1b8>
 800232c:	687b      	ldr	r3, [r7, #4]
 800232e:	4a43      	ldr	r2, [pc, #268]	; (800243c <HAL_GPIO_Init+0x2b8>)
 8002330:	4293      	cmp	r3, r2
 8002332:	d101      	bne.n	8002338 <HAL_GPIO_Init+0x1b4>
 8002334:	2302      	movs	r3, #2
 8002336:	e004      	b.n	8002342 <HAL_GPIO_Init+0x1be>
 8002338:	2307      	movs	r3, #7
 800233a:	e002      	b.n	8002342 <HAL_GPIO_Init+0x1be>
 800233c:	2301      	movs	r3, #1
 800233e:	e000      	b.n	8002342 <HAL_GPIO_Init+0x1be>
 8002340:	2300      	movs	r3, #0
 8002342:	697a      	ldr	r2, [r7, #20]
 8002344:	f002 0203 	and.w	r2, r2, #3
 8002348:	0092      	lsls	r2, r2, #2
 800234a:	4093      	lsls	r3, r2
 800234c:	693a      	ldr	r2, [r7, #16]
 800234e:	4313      	orrs	r3, r2
 8002350:	613b      	str	r3, [r7, #16]
        SYSCFG->EXTICR[position >> 2u] = temp;
 8002352:	4938      	ldr	r1, [pc, #224]	; (8002434 <HAL_GPIO_Init+0x2b0>)
 8002354:	697b      	ldr	r3, [r7, #20]
 8002356:	089b      	lsrs	r3, r3, #2
 8002358:	3302      	adds	r3, #2
 800235a:	693a      	ldr	r2, [r7, #16]
 800235c:	f841 2023 	str.w	r2, [r1, r3, lsl #2]

        /* Clear Rising Falling edge configuration */
        temp = EXTI->RTSR1;
 8002360:	4b37      	ldr	r3, [pc, #220]	; (8002440 <HAL_GPIO_Init+0x2bc>)
 8002362:	681b      	ldr	r3, [r3, #0]
 8002364:	613b      	str	r3, [r7, #16]
        temp &= ~(iocurrent);
 8002366:	68fb      	ldr	r3, [r7, #12]
 8002368:	43db      	mvns	r3, r3
 800236a:	693a      	ldr	r2, [r7, #16]
 800236c:	4013      	ands	r3, r2
 800236e:	613b      	str	r3, [r7, #16]
        if ((GPIO_Init->Mode & TRIGGER_RISING) != 0x00u)
 8002370:	683b      	ldr	r3, [r7, #0]
 8002372:	685b      	ldr	r3, [r3, #4]
 8002374:	f403 1380 	and.w	r3, r3, #1048576	; 0x100000
 8002378:	2b00      	cmp	r3, #0
 800237a:	d003      	beq.n	8002384 <HAL_GPIO_Init+0x200>
        {
          temp |= iocurrent;
 800237c:	693a      	ldr	r2, [r7, #16]
 800237e:	68fb      	ldr	r3, [r7, #12]
 8002380:	4313      	orrs	r3, r2
 8002382:	613b      	str	r3, [r7, #16]
        }
        EXTI->RTSR1 = temp;
 8002384:	4a2e      	ldr	r2, [pc, #184]	; (8002440 <HAL_GPIO_Init+0x2bc>)
 8002386:	693b      	ldr	r3, [r7, #16]
 8002388:	6013      	str	r3, [r2, #0]

        temp = EXTI->FTSR1;
 800238a:	4b2d      	ldr	r3, [pc, #180]	; (8002440 <HAL_GPIO_Init+0x2bc>)
 800238c:	685b      	ldr	r3, [r3, #4]
 800238e:	613b      	str	r3, [r7, #16]
        temp &= ~(iocurrent);
 8002390:	68fb      	ldr	r3, [r7, #12]
 8002392:	43db      	mvns	r3, r3
 8002394:	693a      	ldr	r2, [r7, #16]
 8002396:	4013      	ands	r3, r2
 8002398:	613b      	str	r3, [r7, #16]
        if ((GPIO_Init->Mode & TRIGGER_FALLING) != 0x00u)
 800239a:	683b      	ldr	r3, [r7, #0]
 800239c:	685b      	ldr	r3, [r3, #4]
 800239e:	f403 1300 	and.w	r3, r3, #2097152	; 0x200000
 80023a2:	2b00      	cmp	r3, #0
 80023a4:	d003      	beq.n	80023ae <HAL_GPIO_Init+0x22a>
        {
          temp |= iocurrent;
 80023a6:	693a      	ldr	r2, [r7, #16]
 80023a8:	68fb      	ldr	r3, [r7, #12]
 80023aa:	4313      	orrs	r3, r2
 80023ac:	613b      	str	r3, [r7, #16]
        }
        EXTI->FTSR1 = temp;
 80023ae:	4a24      	ldr	r2, [pc, #144]	; (8002440 <HAL_GPIO_Init+0x2bc>)
 80023b0:	693b      	ldr	r3, [r7, #16]
 80023b2:	6053      	str	r3, [r2, #4]

        /* Clear EXTI line configuration */
#ifdef CORE_CM0PLUS
        temp = EXTI->C2IMR1;
#else
        temp = EXTI->IMR1;
 80023b4:	4b22      	ldr	r3, [pc, #136]	; (8002440 <HAL_GPIO_Init+0x2bc>)
 80023b6:	f8d3 3080 	ldr.w	r3, [r3, #128]	; 0x80
 80023ba:	613b      	str	r3, [r7, #16]
#endif /* CORE_CM0PLUS */
        temp &= ~(iocurrent);
 80023bc:	68fb      	ldr	r3, [r7, #12]
 80023be:	43db      	mvns	r3, r3
 80023c0:	693a      	ldr	r2, [r7, #16]
 80023c2:	4013      	ands	r3, r2
 80023c4:	613b      	str	r3, [r7, #16]
        if ((GPIO_Init->Mode & EXTI_IT) != 0x00u)
 80023c6:	683b      	ldr	r3, [r7, #0]
 80023c8:	685b      	ldr	r3, [r3, #4]
 80023ca:	f403 3380 	and.w	r3, r3, #65536	; 0x10000
 80023ce:	2b00      	cmp	r3, #0
 80023d0:	d003      	beq.n	80023da <HAL_GPIO_Init+0x256>
        {
          temp |= iocurrent;
 80023d2:	693a      	ldr	r2, [r7, #16]
 80023d4:	68fb      	ldr	r3, [r7, #12]
 80023d6:	4313      	orrs	r3, r2
 80023d8:	613b      	str	r3, [r7, #16]
        }
#ifdef CORE_CM0PLUS
        EXTI->C2IMR1 = temp;
#else
        EXTI->IMR1 = temp;
 80023da:	4a19      	ldr	r2, [pc, #100]	; (8002440 <HAL_GPIO_Init+0x2bc>)
 80023dc:	693b      	ldr	r3, [r7, #16]
 80023de:	f8c2 3080 	str.w	r3, [r2, #128]	; 0x80
#endif /* CORE_CM0PLUS */

#ifdef CORE_CM0PLUS
        temp = EXTI->C2EMR1;
#else
        temp = EXTI->EMR1;
 80023e2:	4b17      	ldr	r3, [pc, #92]	; (8002440 <HAL_GPIO_Init+0x2bc>)
 80023e4:	f8d3 3084 	ldr.w	r3, [r3, #132]	; 0x84
 80023e8:	613b      	str	r3, [r7, #16]
#endif /* CORE_CM0PLUS */
        temp &= ~(iocurrent);
 80023ea:	68fb      	ldr	r3, [r7, #12]
 80023ec:	43db      	mvns	r3, r3
 80023ee:	693a      	ldr	r2, [r7, #16]
 80023f0:	4013      	ands	r3, r2
 80023f2:	613b      	str	r3, [r7, #16]
        if ((GPIO_Init->Mode & EXTI_EVT) != 0x00u)
 80023f4:	683b      	ldr	r3, [r7, #0]
 80023f6:	685b      	ldr	r3, [r3, #4]
 80023f8:	f403 3300 	and.w	r3, r3, #131072	; 0x20000
 80023fc:	2b00      	cmp	r3, #0
 80023fe:	d003      	beq.n	8002408 <HAL_GPIO_Init+0x284>
        {
          temp |= iocurrent;
 8002400:	693a      	ldr	r2, [r7, #16]
 8002402:	68fb      	ldr	r3, [r7, #12]
 8002404:	4313      	orrs	r3, r2
 8002406:	613b      	str	r3, [r7, #16]
        }
#ifdef CORE_CM0PLUS
        EXTI->C2EMR1 = temp;
#else
        EXTI->EMR1 = temp;
 8002408:	4a0d      	ldr	r2, [pc, #52]	; (8002440 <HAL_GPIO_Init+0x2bc>)
 800240a:	693b      	ldr	r3, [r7, #16]
 800240c:	f8c2 3084 	str.w	r3, [r2, #132]	; 0x84
#endif /* CORE_CM0PLUS */
      }
    }

    position++;
 8002410:	697b      	ldr	r3, [r7, #20]
 8002412:	3301      	adds	r3, #1
 8002414:	617b      	str	r3, [r7, #20]
  while (((GPIO_Init->Pin) >> position) != 0x00u)
 8002416:	683b      	ldr	r3, [r7, #0]
 8002418:	681a      	ldr	r2, [r3, #0]
 800241a:	697b      	ldr	r3, [r7, #20]
 800241c:	fa22 f303 	lsr.w	r3, r2, r3
 8002420:	2b00      	cmp	r3, #0
 8002422:	f47f aeb7 	bne.w	8002194 <HAL_GPIO_Init+0x10>
  }
}
 8002426:	bf00      	nop
 8002428:	bf00      	nop
 800242a:	371c      	adds	r7, #28
 800242c:	46bd      	mov	sp, r7
 800242e:	bc80      	pop	{r7}
 8002430:	4770      	bx	lr
 8002432:	bf00      	nop
 8002434:	40010000 	.word	0x40010000
 8002438:	48000400 	.word	0x48000400
 800243c:	48000800 	.word	0x48000800
 8002440:	58000800 	.word	0x58000800

08002444 <HAL_GPIO_ReadPin>:
  * @param GPIO_Pin specifies the port bit to read.
  *         This parameter can be any combination of GPIO_PIN_x where x can be (0..15).
  * @retval The input port pin value.
  */
GPIO_PinState HAL_GPIO_ReadPin(GPIO_TypeDef *GPIOx, uint16_t GPIO_Pin)
{
 8002444:	b480      	push	{r7}
 8002446:	b085      	sub	sp, #20
 8002448:	af00      	add	r7, sp, #0
 800244a:	6078      	str	r0, [r7, #4]
 800244c:	460b      	mov	r3, r1
 800244e:	807b      	strh	r3, [r7, #2]
  GPIO_PinState bitstatus;

  /* Check the parameters */
  assert_param(IS_GPIO_PIN(GPIO_Pin));

  if ((GPIOx->IDR & GPIO_Pin) != 0x00u)
 8002450:	687b      	ldr	r3, [r7, #4]
 8002452:	691a      	ldr	r2, [r3, #16]
 8002454:	887b      	ldrh	r3, [r7, #2]
 8002456:	4013      	ands	r3, r2
 8002458:	2b00      	cmp	r3, #0
 800245a:	d002      	beq.n	8002462 <HAL_GPIO_ReadPin+0x1e>
  {
    bitstatus = GPIO_PIN_SET;
 800245c:	2301      	movs	r3, #1
 800245e:	73fb      	strb	r3, [r7, #15]
 8002460:	e001      	b.n	8002466 <HAL_GPIO_ReadPin+0x22>
  }
  else
  {
    bitstatus = GPIO_PIN_RESET;
 8002462:	2300      	movs	r3, #0
 8002464:	73fb      	strb	r3, [r7, #15]
  }
  return bitstatus;
 8002466:	7bfb      	ldrb	r3, [r7, #15]
}
 8002468:	4618      	mov	r0, r3
 800246a:	3714      	adds	r7, #20
 800246c:	46bd      	mov	sp, r7
 800246e:	bc80      	pop	{r7}
 8002470:	4770      	bx	lr

08002472 <HAL_GPIO_WritePin>:
  *            @arg GPIO_PIN_RESET: to clear the port pin
  *            @arg GPIO_PIN_SET: to set the port pin
  * @retval None
  */
void HAL_GPIO_WritePin(GPIO_TypeDef *GPIOx, uint16_t GPIO_Pin, GPIO_PinState PinState)
{
 8002472:	b480      	push	{r7}
 8002474:	b083      	sub	sp, #12
 8002476:	af00      	add	r7, sp, #0
 8002478:	6078      	str	r0, [r7, #4]
 800247a:	460b      	mov	r3, r1
 800247c:	807b      	strh	r3, [r7, #2]
 800247e:	4613      	mov	r3, r2
 8002480:	707b      	strb	r3, [r7, #1]
  /* Check the parameters */
  assert_param(IS_GPIO_PIN(GPIO_Pin));
  assert_param(IS_GPIO_PIN_ACTION(PinState));

  if (PinState != GPIO_PIN_RESET)
 8002482:	787b      	ldrb	r3, [r7, #1]
 8002484:	2b00      	cmp	r3, #0
 8002486:	d003      	beq.n	8002490 <HAL_GPIO_WritePin+0x1e>
  {
    GPIOx->BSRR = (uint32_t)GPIO_Pin;
 8002488:	887a      	ldrh	r2, [r7, #2]
 800248a:	687b      	ldr	r3, [r7, #4]
 800248c:	619a      	str	r2, [r3, #24]
  }
  else
  {
    GPIOx->BRR = (uint32_t)GPIO_Pin;
  }
}
 800248e:	e002      	b.n	8002496 <HAL_GPIO_WritePin+0x24>
    GPIOx->BRR = (uint32_t)GPIO_Pin;
 8002490:	887a      	ldrh	r2, [r7, #2]
 8002492:	687b      	ldr	r3, [r7, #4]
 8002494:	629a      	str	r2, [r3, #40]	; 0x28
}
 8002496:	bf00      	nop
 8002498:	370c      	adds	r7, #12
 800249a:	46bd      	mov	sp, r7
 800249c:	bc80      	pop	{r7}
 800249e:	4770      	bx	lr

080024a0 <HAL_PWR_EnableBkUpAccess>:
  * @note   LSEON bit that switches on and off the LSE crystal belongs as well to the
  *         backup domain.
  * @retval None
  */
void HAL_PWR_EnableBkUpAccess(void)
{
 80024a0:	b480      	push	{r7}
 80024a2:	af00      	add	r7, sp, #0
  SET_BIT(PWR->CR1, PWR_CR1_DBP);
 80024a4:	4b04      	ldr	r3, [pc, #16]	; (80024b8 <HAL_PWR_EnableBkUpAccess+0x18>)
 80024a6:	681b      	ldr	r3, [r3, #0]
 80024a8:	4a03      	ldr	r2, [pc, #12]	; (80024b8 <HAL_PWR_EnableBkUpAccess+0x18>)
 80024aa:	f443 7380 	orr.w	r3, r3, #256	; 0x100
 80024ae:	6013      	str	r3, [r2, #0]
}
 80024b0:	bf00      	nop
 80024b2:	46bd      	mov	sp, r7
 80024b4:	bc80      	pop	{r7}
 80024b6:	4770      	bx	lr
 80024b8:	58000400 	.word	0x58000400

080024bc <HAL_PWREx_GetVoltageRange>:
/**
  * @brief Return Voltage Scaling Range.
  * @retval VOS bit field (PWR_REGULATOR_VOLTAGE_SCALE1 or PWPWR_REGULATOR_VOLTAGE_SCALE2)
  */
uint32_t HAL_PWREx_GetVoltageRange(void)
{
 80024bc:	b480      	push	{r7}
 80024be:	af00      	add	r7, sp, #0
  return (PWR->CR1 & PWR_CR1_VOS);
 80024c0:	4b03      	ldr	r3, [pc, #12]	; (80024d0 <HAL_PWREx_GetVoltageRange+0x14>)
 80024c2:	681b      	ldr	r3, [r3, #0]
 80024c4:	f403 63c0 	and.w	r3, r3, #1536	; 0x600
}
 80024c8:	4618      	mov	r0, r3
 80024ca:	46bd      	mov	sp, r7
 80024cc:	bc80      	pop	{r7}
 80024ce:	4770      	bx	lr
 80024d0:	58000400 	.word	0x58000400

080024d4 <LL_PWR_IsEnabledBkUpAccess>:
  * @brief  Check if the backup domain is enabled
  * @rmtoll CR1          DBP           LL_PWR_IsEnabledBkUpAccess
  * @retval State of bit (1 or 0).
  */
__STATIC_INLINE uint32_t LL_PWR_IsEnabledBkUpAccess(void)
{
 80024d4:	b480      	push	{r7}
 80024d6:	af00      	add	r7, sp, #0
  return ((READ_BIT(PWR->CR1, PWR_CR1_DBP) == (PWR_CR1_DBP)) ? 1UL : 0UL);
 80024d8:	4b06      	ldr	r3, [pc, #24]	; (80024f4 <LL_PWR_IsEnabledBkUpAccess+0x20>)
 80024da:	681b      	ldr	r3, [r3, #0]
 80024dc:	f403 7380 	and.w	r3, r3, #256	; 0x100
 80024e0:	f5b3 7f80 	cmp.w	r3, #256	; 0x100
 80024e4:	d101      	bne.n	80024ea <LL_PWR_IsEnabledBkUpAccess+0x16>
 80024e6:	2301      	movs	r3, #1
 80024e8:	e000      	b.n	80024ec <LL_PWR_IsEnabledBkUpAccess+0x18>
 80024ea:	2300      	movs	r3, #0
}
 80024ec:	4618      	mov	r0, r3
 80024ee:	46bd      	mov	sp, r7
 80024f0:	bc80      	pop	{r7}
 80024f2:	4770      	bx	lr
 80024f4:	58000400 	.word	0x58000400

080024f8 <LL_RCC_HSE_EnableTcxo>:
  * @note PB0 must be configured in analog mode prior enabling VDDTCXO supply
  * @rmtoll CR           HSEBYPPWR        LL_RCC_HSE_EnableTcxo
  * @retval None
  */
__STATIC_INLINE void LL_RCC_HSE_EnableTcxo(void)
{
 80024f8:	b480      	push	{r7}
 80024fa:	af00      	add	r7, sp, #0
  SET_BIT(RCC->CR, RCC_CR_HSEBYPPWR);
 80024fc:	f04f 43b0 	mov.w	r3, #1476395008	; 0x58000000
 8002500:	681b      	ldr	r3, [r3, #0]
 8002502:	f04f 42b0 	mov.w	r2, #1476395008	; 0x58000000
 8002506:	f443 1300 	orr.w	r3, r3, #2097152	; 0x200000
 800250a:	6013      	str	r3, [r2, #0]
}
 800250c:	bf00      	nop
 800250e:	46bd      	mov	sp, r7
 8002510:	bc80      	pop	{r7}
 8002512:	4770      	bx	lr

08002514 <LL_RCC_HSE_DisableTcxo>:
  * @brief  Disable HSE VDDTCXO output on package pin PB0-VDDTCXO
  * @rmtoll CR           HSEBYPPWR        LL_RCC_HSE_DisableTcxo
  * @retval None
  */
__STATIC_INLINE void LL_RCC_HSE_DisableTcxo(void)
{
 8002514:	b480      	push	{r7}
 8002516:	af00      	add	r7, sp, #0
  CLEAR_BIT(RCC->CR, RCC_CR_HSEBYPPWR);
 8002518:	f04f 43b0 	mov.w	r3, #1476395008	; 0x58000000
 800251c:	681b      	ldr	r3, [r3, #0]
 800251e:	f04f 42b0 	mov.w	r2, #1476395008	; 0x58000000
 8002522:	f423 1300 	bic.w	r3, r3, #2097152	; 0x200000
 8002526:	6013      	str	r3, [r2, #0]
}
 8002528:	bf00      	nop
 800252a:	46bd      	mov	sp, r7
 800252c:	bc80      	pop	{r7}
 800252e:	4770      	bx	lr

08002530 <LL_RCC_HSE_IsEnabledDiv2>:
  * @brief  Get HSE sysclk and pll prescaler  division by 2
  * @rmtoll CR           HSEPRE        LL_RCC_HSE_IsEnabledDiv2
  * @retval None
  */
__STATIC_INLINE uint32_t LL_RCC_HSE_IsEnabledDiv2(void)
{
 8002530:	b480      	push	{r7}
 8002532:	af00      	add	r7, sp, #0
  return ((READ_BIT(RCC->CR, RCC_CR_HSEPRE) == (RCC_CR_HSEPRE)) ? 1UL : 0UL);
 8002534:	f04f 43b0 	mov.w	r3, #1476395008	; 0x58000000
 8002538:	681b      	ldr	r3, [r3, #0]
 800253a:	f403 1380 	and.w	r3, r3, #1048576	; 0x100000
 800253e:	f5b3 1f80 	cmp.w	r3, #1048576	; 0x100000
 8002542:	d101      	bne.n	8002548 <LL_RCC_HSE_IsEnabledDiv2+0x18>
 8002544:	2301      	movs	r3, #1
 8002546:	e000      	b.n	800254a <LL_RCC_HSE_IsEnabledDiv2+0x1a>
 8002548:	2300      	movs	r3, #0
}
 800254a:	4618      	mov	r0, r3
 800254c:	46bd      	mov	sp, r7
 800254e:	bc80      	pop	{r7}
 8002550:	4770      	bx	lr

08002552 <LL_RCC_HSE_Enable>:
  * @brief  Enable HSE crystal oscillator (HSE ON)
  * @rmtoll CR           HSEON         LL_RCC_HSE_Enable
  * @retval None
  */
__STATIC_INLINE void LL_RCC_HSE_Enable(void)
{
 8002552:	b480      	push	{r7}
 8002554:	af00      	add	r7, sp, #0
  SET_BIT(RCC->CR, RCC_CR_HSEON);
 8002556:	f04f 43b0 	mov.w	r3, #1476395008	; 0x58000000
 800255a:	681b      	ldr	r3, [r3, #0]
 800255c:	f04f 42b0 	mov.w	r2, #1476395008	; 0x58000000
 8002560:	f443 3380 	orr.w	r3, r3, #65536	; 0x10000
 8002564:	6013      	str	r3, [r2, #0]
}
 8002566:	bf00      	nop
 8002568:	46bd      	mov	sp, r7
 800256a:	bc80      	pop	{r7}
 800256c:	4770      	bx	lr

0800256e <LL_RCC_HSE_Disable>:
  * @brief  Disable HSE crystal oscillator (HSE ON)
  * @rmtoll CR           HSEON         LL_RCC_HSE_Disable
  * @retval None
  */
__STATIC_INLINE void LL_RCC_HSE_Disable(void)
{
 800256e:	b480      	push	{r7}
 8002570:	af00      	add	r7, sp, #0
  CLEAR_BIT(RCC->CR, RCC_CR_HSEON);
 8002572:	f04f 43b0 	mov.w	r3, #1476395008	; 0x58000000
 8002576:	681b      	ldr	r3, [r3, #0]
 8002578:	f04f 42b0 	mov.w	r2, #1476395008	; 0x58000000
 800257c:	f423 3380 	bic.w	r3, r3, #65536	; 0x10000
 8002580:	6013      	str	r3, [r2, #0]
}
 8002582:	bf00      	nop
 8002584:	46bd      	mov	sp, r7
 8002586:	bc80      	pop	{r7}
 8002588:	4770      	bx	lr

0800258a <LL_RCC_HSE_IsReady>:
  * @brief  Check if HSE oscillator Ready
  * @rmtoll CR           HSERDY        LL_RCC_HSE_IsReady
  * @retval State of bit (1 or 0).
  */
__STATIC_INLINE uint32_t LL_RCC_HSE_IsReady(void)
{
 800258a:	b480      	push	{r7}
 800258c:	af00      	add	r7, sp, #0
  return ((READ_BIT(RCC->CR, RCC_CR_HSERDY) == (RCC_CR_HSERDY)) ? 1UL : 0UL);
 800258e:	f04f 43b0 	mov.w	r3, #1476395008	; 0x58000000
 8002592:	681b      	ldr	r3, [r3, #0]
 8002594:	f403 3300 	and.w	r3, r3, #131072	; 0x20000
 8002598:	f5b3 3f00 	cmp.w	r3, #131072	; 0x20000
 800259c:	d101      	bne.n	80025a2 <LL_RCC_HSE_IsReady+0x18>
 800259e:	2301      	movs	r3, #1
 80025a0:	e000      	b.n	80025a4 <LL_RCC_HSE_IsReady+0x1a>
 80025a2:	2300      	movs	r3, #0
}
 80025a4:	4618      	mov	r0, r3
 80025a6:	46bd      	mov	sp, r7
 80025a8:	bc80      	pop	{r7}
 80025aa:	4770      	bx	lr

080025ac <LL_RCC_HSI_Enable>:
  * @brief  Enable HSI oscillator
  * @rmtoll CR           HSION         LL_RCC_HSI_Enable
  * @retval None
  */
__STATIC_INLINE void LL_RCC_HSI_Enable(void)
{
 80025ac:	b480      	push	{r7}
 80025ae:	af00      	add	r7, sp, #0
  SET_BIT(RCC->CR, RCC_CR_HSION);
 80025b0:	f04f 43b0 	mov.w	r3, #1476395008	; 0x58000000
 80025b4:	681b      	ldr	r3, [r3, #0]
 80025b6:	f04f 42b0 	mov.w	r2, #1476395008	; 0x58000000
 80025ba:	f443 7380 	orr.w	r3, r3, #256	; 0x100
 80025be:	6013      	str	r3, [r2, #0]
}
 80025c0:	bf00      	nop
 80025c2:	46bd      	mov	sp, r7
 80025c4:	bc80      	pop	{r7}
 80025c6:	4770      	bx	lr

080025c8 <LL_RCC_HSI_Disable>:
  * @brief  Disable HSI oscillator
  * @rmtoll CR           HSION         LL_RCC_HSI_Disable
  * @retval None
  */
__STATIC_INLINE void LL_RCC_HSI_Disable(void)
{
 80025c8:	b480      	push	{r7}
 80025ca:	af00      	add	r7, sp, #0
  CLEAR_BIT(RCC->CR, RCC_CR_HSION);
 80025cc:	f04f 43b0 	mov.w	r3, #1476395008	; 0x58000000
 80025d0:	681b      	ldr	r3, [r3, #0]
 80025d2:	f04f 42b0 	mov.w	r2, #1476395008	; 0x58000000
 80025d6:	f423 7380 	bic.w	r3, r3, #256	; 0x100
 80025da:	6013      	str	r3, [r2, #0]
}
 80025dc:	bf00      	nop
 80025de:	46bd      	mov	sp, r7
 80025e0:	bc80      	pop	{r7}
 80025e2:	4770      	bx	lr

080025e4 <LL_RCC_HSI_IsReady>:
  * @brief  Check if HSI clock is ready
  * @rmtoll CR           HSIRDY        LL_RCC_HSI_IsReady
  * @retval State of bit (1 or 0).
  */
__STATIC_INLINE uint32_t LL_RCC_HSI_IsReady(void)
{
 80025e4:	b480      	push	{r7}
 80025e6:	af00      	add	r7, sp, #0
  return ((READ_BIT(RCC->CR, RCC_CR_HSIRDY) == (RCC_CR_HSIRDY)) ? 1UL : 0UL);
 80025e8:	f04f 43b0 	mov.w	r3, #1476395008	; 0x58000000
 80025ec:	681b      	ldr	r3, [r3, #0]
 80025ee:	f403 6380 	and.w	r3, r3, #1024	; 0x400
 80025f2:	f5b3 6f80 	cmp.w	r3, #1024	; 0x400
 80025f6:	d101      	bne.n	80025fc <LL_RCC_HSI_IsReady+0x18>
 80025f8:	2301      	movs	r3, #1
 80025fa:	e000      	b.n	80025fe <LL_RCC_HSI_IsReady+0x1a>
 80025fc:	2300      	movs	r3, #0
}
 80025fe:	4618      	mov	r0, r3
 8002600:	46bd      	mov	sp, r7
 8002602:	bc80      	pop	{r7}
 8002604:	4770      	bx	lr

08002606 <LL_RCC_HSI_SetCalibTrimming>:
  * @rmtoll ICSCR        HSITRIM       LL_RCC_HSI_SetCalibTrimming
  * @param  Value Between Min_Data = 0 and Max_Data = 127
  * @retval None
  */
__STATIC_INLINE void LL_RCC_HSI_SetCalibTrimming(uint32_t Value)
{
 8002606:	b480      	push	{r7}
 8002608:	b083      	sub	sp, #12
 800260a:	af00      	add	r7, sp, #0
 800260c:	6078      	str	r0, [r7, #4]
  MODIFY_REG(RCC->ICSCR, RCC_ICSCR_HSITRIM, Value << RCC_ICSCR_HSITRIM_Pos);
 800260e:	f04f 43b0 	mov.w	r3, #1476395008	; 0x58000000
 8002612:	685b      	ldr	r3, [r3, #4]
 8002614:	f023 42fe 	bic.w	r2, r3, #2130706432	; 0x7f000000
 8002618:	687b      	ldr	r3, [r7, #4]
 800261a:	061b      	lsls	r3, r3, #24
 800261c:	f04f 41b0 	mov.w	r1, #1476395008	; 0x58000000
 8002620:	4313      	orrs	r3, r2
 8002622:	604b      	str	r3, [r1, #4]
}
 8002624:	bf00      	nop
 8002626:	370c      	adds	r7, #12
 8002628:	46bd      	mov	sp, r7
 800262a:	bc80      	pop	{r7}
 800262c:	4770      	bx	lr

0800262e <LL_RCC_LSE_IsReady>:
  * @brief  Check if LSE oscillator Ready
  * @rmtoll BDCR         LSERDY        LL_RCC_LSE_IsReady
  * @retval State of bit (1 or 0).
  */
__STATIC_INLINE uint32_t LL_RCC_LSE_IsReady(void)
{
 800262e:	b480      	push	{r7}
 8002630:	af00      	add	r7, sp, #0
  return ((READ_BIT(RCC->BDCR, RCC_BDCR_LSERDY) == (RCC_BDCR_LSERDY)) ? 1UL : 0UL);
 8002632:	f04f 43b0 	mov.w	r3, #1476395008	; 0x58000000
 8002636:	f8d3 3090 	ldr.w	r3, [r3, #144]	; 0x90
 800263a:	f003 0302 	and.w	r3, r3, #2
 800263e:	2b02      	cmp	r3, #2
 8002640:	d101      	bne.n	8002646 <LL_RCC_LSE_IsReady+0x18>
 8002642:	2301      	movs	r3, #1
 8002644:	e000      	b.n	8002648 <LL_RCC_LSE_IsReady+0x1a>
 8002646:	2300      	movs	r3, #0
}
 8002648:	4618      	mov	r0, r3
 800264a:	46bd      	mov	sp, r7
 800264c:	bc80      	pop	{r7}
 800264e:	4770      	bx	lr

08002650 <LL_RCC_LSI_Enable>:
  * @brief  Enable LSI Oscillator
  * @rmtoll CSR          LSION         LL_RCC_LSI_Enable
  * @retval None
  */
__STATIC_INLINE void LL_RCC_LSI_Enable(void)
{
 8002650:	b480      	push	{r7}
 8002652:	af00      	add	r7, sp, #0
  SET_BIT(RCC->CSR, RCC_CSR_LSION);
 8002654:	f04f 43b0 	mov.w	r3, #1476395008	; 0x58000000
 8002658:	f8d3 3094 	ldr.w	r3, [r3, #148]	; 0x94
 800265c:	f04f 42b0 	mov.w	r2, #1476395008	; 0x58000000
 8002660:	f043 0301 	orr.w	r3, r3, #1
 8002664:	f8c2 3094 	str.w	r3, [r2, #148]	; 0x94
}
 8002668:	bf00      	nop
 800266a:	46bd      	mov	sp, r7
 800266c:	bc80      	pop	{r7}
 800266e:	4770      	bx	lr

08002670 <LL_RCC_LSI_Disable>:
  * @brief  Disable LSI Oscillator
  * @rmtoll CSR          LSION         LL_RCC_LSI_Disable
  * @retval None
  */
__STATIC_INLINE void LL_RCC_LSI_Disable(void)
{
 8002670:	b480      	push	{r7}
 8002672:	af00      	add	r7, sp, #0
  CLEAR_BIT(RCC->CSR, RCC_CSR_LSION);
 8002674:	f04f 43b0 	mov.w	r3, #1476395008	; 0x58000000
 8002678:	f8d3 3094 	ldr.w	r3, [r3, #148]	; 0x94
 800267c:	f04f 42b0 	mov.w	r2, #1476395008	; 0x58000000
 8002680:	f023 0301 	bic.w	r3, r3, #1
 8002684:	f8c2 3094 	str.w	r3, [r2, #148]	; 0x94
}
 8002688:	bf00      	nop
 800268a:	46bd      	mov	sp, r7
 800268c:	bc80      	pop	{r7}
 800268e:	4770      	bx	lr

08002690 <LL_RCC_LSI_IsReady>:
  * @brief  Check if LSI is Ready
  * @rmtoll CSR          LSIRDY        LL_RCC_LSI_IsReady
  * @retval State of bit (1 or 0).
  */
__STATIC_INLINE uint32_t LL_RCC_LSI_IsReady(void)
{
 8002690:	b480      	push	{r7}
 8002692:	af00      	add	r7, sp, #0
  return ((READ_BIT(RCC->CSR, RCC_CSR_LSIRDY) == (RCC_CSR_LSIRDY)) ? 1UL : 0UL);
 8002694:	f04f 43b0 	mov.w	r3, #1476395008	; 0x58000000
 8002698:	f8d3 3094 	ldr.w	r3, [r3, #148]	; 0x94
 800269c:	f003 0302 	and.w	r3, r3, #2
 80026a0:	2b02      	cmp	r3, #2
 80026a2:	d101      	bne.n	80026a8 <LL_RCC_LSI_IsReady+0x18>
 80026a4:	2301      	movs	r3, #1
 80026a6:	e000      	b.n	80026aa <LL_RCC_LSI_IsReady+0x1a>
 80026a8:	2300      	movs	r3, #0
}
 80026aa:	4618      	mov	r0, r3
 80026ac:	46bd      	mov	sp, r7
 80026ae:	bc80      	pop	{r7}
 80026b0:	4770      	bx	lr

080026b2 <LL_RCC_MSI_Enable>:
  * @brief  Enable MSI oscillator
  * @rmtoll CR           MSION         LL_RCC_MSI_Enable
  * @retval None
  */
__STATIC_INLINE void LL_RCC_MSI_Enable(void)
{
 80026b2:	b480      	push	{r7}
 80026b4:	af00      	add	r7, sp, #0
  SET_BIT(RCC->CR, RCC_CR_MSION);
 80026b6:	f04f 43b0 	mov.w	r3, #1476395008	; 0x58000000
 80026ba:	681b      	ldr	r3, [r3, #0]
 80026bc:	f04f 42b0 	mov.w	r2, #1476395008	; 0x58000000
 80026c0:	f043 0301 	orr.w	r3, r3, #1
 80026c4:	6013      	str	r3, [r2, #0]
}
 80026c6:	bf00      	nop
 80026c8:	46bd      	mov	sp, r7
 80026ca:	bc80      	pop	{r7}
 80026cc:	4770      	bx	lr

080026ce <LL_RCC_MSI_Disable>:
  * @brief  Disable MSI oscillator
  * @rmtoll CR           MSION         LL_RCC_MSI_Disable
  * @retval None
  */
__STATIC_INLINE void LL_RCC_MSI_Disable(void)
{
 80026ce:	b480      	push	{r7}
 80026d0:	af00      	add	r7, sp, #0
  CLEAR_BIT(RCC->CR, RCC_CR_MSION);
 80026d2:	f04f 43b0 	mov.w	r3, #1476395008	; 0x58000000
 80026d6:	681b      	ldr	r3, [r3, #0]
 80026d8:	f04f 42b0 	mov.w	r2, #1476395008	; 0x58000000
 80026dc:	f023 0301 	bic.w	r3, r3, #1
 80026e0:	6013      	str	r3, [r2, #0]
}
 80026e2:	bf00      	nop
 80026e4:	46bd      	mov	sp, r7
 80026e6:	bc80      	pop	{r7}
 80026e8:	4770      	bx	lr

080026ea <LL_RCC_MSI_IsReady>:
  * @brief  Check if MSI oscillator Ready
  * @rmtoll CR           MSIRDY        LL_RCC_MSI_IsReady
  * @retval State of bit (1 or 0).
  */
__STATIC_INLINE uint32_t LL_RCC_MSI_IsReady(void)
{
 80026ea:	b480      	push	{r7}
 80026ec:	af00      	add	r7, sp, #0
  return ((READ_BIT(RCC->CR, RCC_CR_MSIRDY) == (RCC_CR_MSIRDY)) ? 1UL : 0UL);
 80026ee:	f04f 43b0 	mov.w	r3, #1476395008	; 0x58000000
 80026f2:	681b      	ldr	r3, [r3, #0]
 80026f4:	f003 0302 	and.w	r3, r3, #2
 80026f8:	2b02      	cmp	r3, #2
 80026fa:	d101      	bne.n	8002700 <LL_RCC_MSI_IsReady+0x16>
 80026fc:	2301      	movs	r3, #1
 80026fe:	e000      	b.n	8002702 <LL_RCC_MSI_IsReady+0x18>
 8002700:	2300      	movs	r3, #0
}
 8002702:	4618      	mov	r0, r3
 8002704:	46bd      	mov	sp, r7
 8002706:	bc80      	pop	{r7}
 8002708:	4770      	bx	lr

0800270a <LL_RCC_MSI_IsEnabledRangeSelect>:
  * @brief  Check if MSI clock range is selected with MSIRANGE register
  * @rmtoll CR           MSIRGSEL      LL_RCC_MSI_IsEnabledRangeSelect
  * @retval State of bit (1 or 0).
  */
__STATIC_INLINE uint32_t LL_RCC_MSI_IsEnabledRangeSelect(void)
{
 800270a:	b480      	push	{r7}
 800270c:	af00      	add	r7, sp, #0
  return ((READ_BIT(RCC->CR, RCC_CR_MSIRGSEL) == (RCC_CR_MSIRGSEL)) ? 1UL : 0UL);
 800270e:	f04f 43b0 	mov.w	r3, #1476395008	; 0x58000000
 8002712:	681b      	ldr	r3, [r3, #0]
 8002714:	f003 0308 	and.w	r3, r3, #8
 8002718:	2b08      	cmp	r3, #8
 800271a:	d101      	bne.n	8002720 <LL_RCC_MSI_IsEnabledRangeSelect+0x16>
 800271c:	2301      	movs	r3, #1
 800271e:	e000      	b.n	8002722 <LL_RCC_MSI_IsEnabledRangeSelect+0x18>
 8002720:	2300      	movs	r3, #0
}
 8002722:	4618      	mov	r0, r3
 8002724:	46bd      	mov	sp, r7
 8002726:	bc80      	pop	{r7}
 8002728:	4770      	bx	lr

0800272a <LL_RCC_MSI_GetRange>:
  *         @arg @ref LL_RCC_MSIRANGE_9
  *         @arg @ref LL_RCC_MSIRANGE_10
  *         @arg @ref LL_RCC_MSIRANGE_11
  */
__STATIC_INLINE uint32_t LL_RCC_MSI_GetRange(void)
{
 800272a:	b480      	push	{r7}
 800272c:	af00      	add	r7, sp, #0
  return (uint32_t)(READ_BIT(RCC->CR, RCC_CR_MSIRANGE));
 800272e:	f04f 43b0 	mov.w	r3, #1476395008	; 0x58000000
 8002732:	681b      	ldr	r3, [r3, #0]
 8002734:	f003 03f0 	and.w	r3, r3, #240	; 0xf0
}
 8002738:	4618      	mov	r0, r3
 800273a:	46bd      	mov	sp, r7
 800273c:	bc80      	pop	{r7}
 800273e:	4770      	bx	lr

08002740 <LL_RCC_MSI_GetRangeAfterStandby>:
  *         @arg @ref LL_RCC_MSISRANGE_5
  *         @arg @ref LL_RCC_MSISRANGE_6
  *         @arg @ref LL_RCC_MSISRANGE_7
  */
__STATIC_INLINE uint32_t LL_RCC_MSI_GetRangeAfterStandby(void)
{
 8002740:	b480      	push	{r7}
 8002742:	af00      	add	r7, sp, #0
  return (uint32_t)(READ_BIT(RCC->CSR, RCC_CSR_MSISRANGE));
 8002744:	f04f 43b0 	mov.w	r3, #1476395008	; 0x58000000
 8002748:	f8d3 3094 	ldr.w	r3, [r3, #148]	; 0x94
 800274c:	f403 6370 	and.w	r3, r3, #3840	; 0xf00
}
 8002750:	4618      	mov	r0, r3
 8002752:	46bd      	mov	sp, r7
 8002754:	bc80      	pop	{r7}
 8002756:	4770      	bx	lr

08002758 <LL_RCC_MSI_SetCalibTrimming>:
  * @rmtoll ICSCR        MSITRIM       LL_RCC_MSI_SetCalibTrimming
  * @param  Value Between Min_Data = 0 and Max_Data = 255
  * @retval None
  */
__STATIC_INLINE void LL_RCC_MSI_SetCalibTrimming(uint32_t Value)
{
 8002758:	b480      	push	{r7}
 800275a:	b083      	sub	sp, #12
 800275c:	af00      	add	r7, sp, #0
 800275e:	6078      	str	r0, [r7, #4]
  MODIFY_REG(RCC->ICSCR, RCC_ICSCR_MSITRIM, Value << RCC_ICSCR_MSITRIM_Pos);
 8002760:	f04f 43b0 	mov.w	r3, #1476395008	; 0x58000000
 8002764:	685b      	ldr	r3, [r3, #4]
 8002766:	f423 427f 	bic.w	r2, r3, #65280	; 0xff00
 800276a:	687b      	ldr	r3, [r7, #4]
 800276c:	021b      	lsls	r3, r3, #8
 800276e:	f04f 41b0 	mov.w	r1, #1476395008	; 0x58000000
 8002772:	4313      	orrs	r3, r2
 8002774:	604b      	str	r3, [r1, #4]
}
 8002776:	bf00      	nop
 8002778:	370c      	adds	r7, #12
 800277a:	46bd      	mov	sp, r7
 800277c:	bc80      	pop	{r7}
 800277e:	4770      	bx	lr

08002780 <LL_RCC_SetSysClkSource>:
  *         @arg @ref LL_RCC_SYS_CLKSOURCE_HSE
  *         @arg @ref LL_RCC_SYS_CLKSOURCE_PLL
  * @retval None
  */
__STATIC_INLINE void LL_RCC_SetSysClkSource(uint32_t Source)
{
 8002780:	b480      	push	{r7}
 8002782:	b083      	sub	sp, #12
 8002784:	af00      	add	r7, sp, #0
 8002786:	6078      	str	r0, [r7, #4]
  MODIFY_REG(RCC->CFGR, RCC_CFGR_SW, Source);
 8002788:	f04f 43b0 	mov.w	r3, #1476395008	; 0x58000000
 800278c:	689b      	ldr	r3, [r3, #8]
 800278e:	f023 0203 	bic.w	r2, r3, #3
 8002792:	f04f 41b0 	mov.w	r1, #1476395008	; 0x58000000
 8002796:	687b      	ldr	r3, [r7, #4]
 8002798:	4313      	orrs	r3, r2
 800279a:	608b      	str	r3, [r1, #8]
}
 800279c:	bf00      	nop
 800279e:	370c      	adds	r7, #12
 80027a0:	46bd      	mov	sp, r7
 80027a2:	bc80      	pop	{r7}
 80027a4:	4770      	bx	lr

080027a6 <LL_RCC_GetSysClkSource>:
  *         @arg @ref LL_RCC_SYS_CLKSOURCE_STATUS_HSI
  *         @arg @ref LL_RCC_SYS_CLKSOURCE_STATUS_HSE
  *         @arg @ref LL_RCC_SYS_CLKSOURCE_STATUS_PLL
  */
__STATIC_INLINE uint32_t LL_RCC_GetSysClkSource(void)
{
 80027a6:	b480      	push	{r7}
 80027a8:	af00      	add	r7, sp, #0
  return (uint32_t)(READ_BIT(RCC->CFGR, RCC_CFGR_SWS));
 80027aa:	f04f 43b0 	mov.w	r3, #1476395008	; 0x58000000
 80027ae:	689b      	ldr	r3, [r3, #8]
 80027b0:	f003 030c 	and.w	r3, r3, #12
}
 80027b4:	4618      	mov	r0, r3
 80027b6:	46bd      	mov	sp, r7
 80027b8:	bc80      	pop	{r7}
 80027ba:	4770      	bx	lr

080027bc <LL_RCC_SetAHBPrescaler>:
  *         @arg @ref LL_RCC_SYSCLK_DIV_256
  *         @arg @ref LL_RCC_SYSCLK_DIV_512
  * @retval None
  */
__STATIC_INLINE void LL_RCC_SetAHBPrescaler(uint32_t Prescaler)
{
 80027bc:	b480      	push	{r7}
 80027be:	b083      	sub	sp, #12
 80027c0:	af00      	add	r7, sp, #0
 80027c2:	6078      	str	r0, [r7, #4]
  MODIFY_REG(RCC->CFGR, RCC_CFGR_HPRE, Prescaler);
 80027c4:	f04f 43b0 	mov.w	r3, #1476395008	; 0x58000000
 80027c8:	689b      	ldr	r3, [r3, #8]
 80027ca:	f023 02f0 	bic.w	r2, r3, #240	; 0xf0
 80027ce:	f04f 41b0 	mov.w	r1, #1476395008	; 0x58000000
 80027d2:	687b      	ldr	r3, [r7, #4]
 80027d4:	4313      	orrs	r3, r2
 80027d6:	608b      	str	r3, [r1, #8]
}
 80027d8:	bf00      	nop
 80027da:	370c      	adds	r7, #12
 80027dc:	46bd      	mov	sp, r7
 80027de:	bc80      	pop	{r7}
 80027e0:	4770      	bx	lr

080027e2 <LL_RCC_SetAHB3Prescaler>:
  *         @arg @ref LL_RCC_SYSCLK_DIV_256
  *         @arg @ref LL_RCC_SYSCLK_DIV_512
  * @retval None
  */
__STATIC_INLINE void LL_RCC_SetAHB3Prescaler(uint32_t Prescaler)
{
 80027e2:	b480      	push	{r7}
 80027e4:	b083      	sub	sp, #12
 80027e6:	af00      	add	r7, sp, #0
 80027e8:	6078      	str	r0, [r7, #4]
  MODIFY_REG(RCC->EXTCFGR, RCC_EXTCFGR_SHDHPRE, Prescaler >> 4);
 80027ea:	f04f 43b0 	mov.w	r3, #1476395008	; 0x58000000
 80027ee:	f8d3 3108 	ldr.w	r3, [r3, #264]	; 0x108
 80027f2:	f023 020f 	bic.w	r2, r3, #15
 80027f6:	687b      	ldr	r3, [r7, #4]
 80027f8:	091b      	lsrs	r3, r3, #4
 80027fa:	f04f 41b0 	mov.w	r1, #1476395008	; 0x58000000
 80027fe:	4313      	orrs	r3, r2
 8002800:	f8c1 3108 	str.w	r3, [r1, #264]	; 0x108
}
 8002804:	bf00      	nop
 8002806:	370c      	adds	r7, #12
 8002808:	46bd      	mov	sp, r7
 800280a:	bc80      	pop	{r7}
 800280c:	4770      	bx	lr

0800280e <LL_RCC_SetAPB1Prescaler>:
  *         @arg @ref LL_RCC_APB1_DIV_8
  *         @arg @ref LL_RCC_APB1_DIV_16
  * @retval None
  */
__STATIC_INLINE void LL_RCC_SetAPB1Prescaler(uint32_t Prescaler)
{
 800280e:	b480      	push	{r7}
 8002810:	b083      	sub	sp, #12
 8002812:	af00      	add	r7, sp, #0
 8002814:	6078      	str	r0, [r7, #4]
  MODIFY_REG(RCC->CFGR, RCC_CFGR_PPRE1, Prescaler);
 8002816:	f04f 43b0 	mov.w	r3, #1476395008	; 0x58000000
 800281a:	689b      	ldr	r3, [r3, #8]
 800281c:	f423 62e0 	bic.w	r2, r3, #1792	; 0x700
 8002820:	f04f 41b0 	mov.w	r1, #1476395008	; 0x58000000
 8002824:	687b      	ldr	r3, [r7, #4]
 8002826:	4313      	orrs	r3, r2
 8002828:	608b      	str	r3, [r1, #8]
}
 800282a:	bf00      	nop
 800282c:	370c      	adds	r7, #12
 800282e:	46bd      	mov	sp, r7
 8002830:	bc80      	pop	{r7}
 8002832:	4770      	bx	lr

08002834 <LL_RCC_SetAPB2Prescaler>:
  *         @arg @ref LL_RCC_APB2_DIV_8
  *         @arg @ref LL_RCC_APB2_DIV_16
  * @retval None
  */
__STATIC_INLINE void LL_RCC_SetAPB2Prescaler(uint32_t Prescaler)
{
 8002834:	b480      	push	{r7}
 8002836:	b083      	sub	sp, #12
 8002838:	af00      	add	r7, sp, #0
 800283a:	6078      	str	r0, [r7, #4]
  MODIFY_REG(RCC->CFGR, RCC_CFGR_PPRE2, Prescaler);
 800283c:	f04f 43b0 	mov.w	r3, #1476395008	; 0x58000000
 8002840:	689b      	ldr	r3, [r3, #8]
 8002842:	f423 5260 	bic.w	r2, r3, #14336	; 0x3800
 8002846:	f04f 41b0 	mov.w	r1, #1476395008	; 0x58000000
 800284a:	687b      	ldr	r3, [r7, #4]
 800284c:	4313      	orrs	r3, r2
 800284e:	608b      	str	r3, [r1, #8]
}
 8002850:	bf00      	nop
 8002852:	370c      	adds	r7, #12
 8002854:	46bd      	mov	sp, r7
 8002856:	bc80      	pop	{r7}
 8002858:	4770      	bx	lr

0800285a <LL_RCC_GetAHBPrescaler>:
  *         @arg @ref LL_RCC_SYSCLK_DIV_128
  *         @arg @ref LL_RCC_SYSCLK_DIV_256
  *         @arg @ref LL_RCC_SYSCLK_DIV_512
  */
__STATIC_INLINE uint32_t LL_RCC_GetAHBPrescaler(void)
{
 800285a:	b480      	push	{r7}
 800285c:	af00      	add	r7, sp, #0
  return (uint32_t)(READ_BIT(RCC->CFGR, RCC_CFGR_HPRE));
 800285e:	f04f 43b0 	mov.w	r3, #1476395008	; 0x58000000
 8002862:	689b      	ldr	r3, [r3, #8]
 8002864:	f003 03f0 	and.w	r3, r3, #240	; 0xf0
}
 8002868:	4618      	mov	r0, r3
 800286a:	46bd      	mov	sp, r7
 800286c:	bc80      	pop	{r7}
 800286e:	4770      	bx	lr

08002870 <LL_RCC_GetAHB3Prescaler>:
  *         @arg @ref LL_RCC_SYSCLK_DIV_128
  *         @arg @ref LL_RCC_SYSCLK_DIV_256
  *         @arg @ref LL_RCC_SYSCLK_DIV_512
  */
__STATIC_INLINE uint32_t LL_RCC_GetAHB3Prescaler(void)
{
 8002870:	b480      	push	{r7}
 8002872:	af00      	add	r7, sp, #0
  return (uint32_t)(READ_BIT(RCC->EXTCFGR, RCC_EXTCFGR_SHDHPRE) << 4);
 8002874:	f04f 43b0 	mov.w	r3, #1476395008	; 0x58000000
 8002878:	f8d3 3108 	ldr.w	r3, [r3, #264]	; 0x108
 800287c:	011b      	lsls	r3, r3, #4
 800287e:	f003 03f0 	and.w	r3, r3, #240	; 0xf0
}
 8002882:	4618      	mov	r0, r3
 8002884:	46bd      	mov	sp, r7
 8002886:	bc80      	pop	{r7}
 8002888:	4770      	bx	lr

0800288a <LL_RCC_GetAPB1Prescaler>:
  *         @arg @ref LL_RCC_APB1_DIV_4
  *         @arg @ref LL_RCC_APB1_DIV_8
  *         @arg @ref LL_RCC_APB1_DIV_16
  */
__STATIC_INLINE uint32_t LL_RCC_GetAPB1Prescaler(void)
{
 800288a:	b480      	push	{r7}
 800288c:	af00      	add	r7, sp, #0
  return (uint32_t)(READ_BIT(RCC->CFGR, RCC_CFGR_PPRE1));
 800288e:	f04f 43b0 	mov.w	r3, #1476395008	; 0x58000000
 8002892:	689b      	ldr	r3, [r3, #8]
 8002894:	f403 63e0 	and.w	r3, r3, #1792	; 0x700
}
 8002898:	4618      	mov	r0, r3
 800289a:	46bd      	mov	sp, r7
 800289c:	bc80      	pop	{r7}
 800289e:	4770      	bx	lr

080028a0 <LL_RCC_GetAPB2Prescaler>:
  *         @arg @ref LL_RCC_APB2_DIV_4
  *         @arg @ref LL_RCC_APB2_DIV_8
  *         @arg @ref LL_RCC_APB2_DIV_16
  */
__STATIC_INLINE uint32_t LL_RCC_GetAPB2Prescaler(void)
{
 80028a0:	b480      	push	{r7}
 80028a2:	af00      	add	r7, sp, #0
  return (uint32_t)(READ_BIT(RCC->CFGR, RCC_CFGR_PPRE2));
 80028a4:	f04f 43b0 	mov.w	r3, #1476395008	; 0x58000000
 80028a8:	689b      	ldr	r3, [r3, #8]
 80028aa:	f403 5360 	and.w	r3, r3, #14336	; 0x3800
}
